:100000000C94EA080C9431090C9431090C943109D0
:100010000C9431090C9431090C9431090C94310978
:100020000C9431090C9431090C94BB280C94F727DB
:100030000C94122E0C9431090C9431090C94310952
:100040000C9431090C9431090C9431090C94310948
:100050000C9474210C94E02D0C9431090C9431090A
:100060000C9431090C9431090C9431090C94310928
:100070000C9431090C9431090C9431090C94310918
:100080000C9431090C9431090C9431090C94310908
:100090000C9431090C9431090C9431090C943109F8
:1000A0000C9431090C9431090C943109430A550A16
:1000B000630A8C0ABE0A070B370B020F020F3C0FB4
:1000C0003C0F950F3C113C113C11B10F8F10A0104B
:1000D000A010641652167616AE14541754174F1605
:1000E00054175417A3165417B7163217541754172A
:1000F00054175417E51654175417D21654178F1661
:10010000541754174E174E174E174E174E174E17BB
:100110004E174E174E17501754176416471654179C
:100120005417541754175417541754175417541777
:1001300054175017541754174F1654174C174C1781
:100140004C174C174C174C174C174C174C17501793
:1001500011263826D9273826D9278426A726D92735
:100160009C27AB27F629F629092A092AFF29092AFB
:10017000092A092AF629F629042A092A092A042A19
:100180006261636B6C696768742064656372656142
:1001900073653A2025750A006261636B6C69676854
:1001A0007420696E6372656173653A2025750A0073
:1001B0006261636B6C696768742064697361626C07
:1001C000650A006261636B6C6967687420656E61C3
:1001D000626C650A006261636B6C696768742074A5
:1001E0006F67676C653A2025750A006261636B6C06
:1001F0006967687420737465703A2025750A006217
:1002000061636B6C696768742062726561746869A8
:100210006E672064697361626C650A006261636B7A
:100220006C6967687420627265617468696E6720C2
:10023000656E61626C650A006261636B6C69676818
:100240007420627265617468696E6720746F676795
:100250006C653A2025750A007267626C696768747C
:100260002064697361626C65205B454550524F4D57
:100270005D3A207267626C696768745F636F6E666F
:1002800069672E656E61626C65203D2025750A00E8
:100290007267626C6967687420656E61626C652064
:1002A0005B454550524F4D5D3A207267626C6967FD
:1002B00068745F636F6E6669672E656E61626C65F8
:1002C000203D2025750A007267626C69676874209A
:1002D000746F67676C65205B454550524F4D5D3AC2
:1002E000207267626C696768745F636F6E666967C6
:1002F0002E656E61626C65203D2025750A004445BF
:100300004255473A2064697361626C65642E0A0045
:1003100044454255473A20656E61626C65642E0A19
:1003200000165C1E001F0020002100220023002474
:10033000002500260027002D002E002A002B001487
:10034000001A000800150017001C0018000C00120D
:100350000013002F0030003100394104001600075F
:100360000009000A000B000D000E000F00330034DE
:100370000000002800E1001D001B00060019000518
:10038000001100100036003700380000000000E5C2
:1003900000E000E300E200000000002C000000008C
:1003A000000000E6000151E7000000E40001003A0F
:1003B000003B003C003D003E003F00400041004249
:1003C000004300440045004C0001000100520001C0
:1003D000000100010001000100010001004600478A
:1003E00000480001000100500051004F00010001D1
:1003F0000001000100010049004A004B000000011B
:10040000000100AA00A900A80001000100010001EC
:100410000001004D004E000000000001000100013D
:1004200000010000000000010000000000000001C9
:100430000001000251000001000100010001000163
:1004400000010001000100010001000100010001A4
:10045000000100005CC05CBF5CBE5CC15C010001CF
:100460000001000100010001000100010001000184
:1004700000C35CC45CC65CC85CCA5CCC5CCE5CCFB0
:100480005CD05CD15C01000100000001000100C5EE
:100490005CC75CC95CCB5CCD5CD25CD35CD45CD506
:1004A0005C010000000000010001000100010000EB
:1004B0000000000100000000000000010001000138
:1004C00000000001000A002575002E6C6576656C41
:1004D0003A20000A002575002E656E61626C653A4F
:1004E00020000A0025303258006261636B6C696736
:1004F00068745F636F6E6669672E7261773A200079
:100500000A002575002E6E6B726F3A20000A0025D6
:1005100075002E737761705F6261636B736C6173DA
:10052000685F6261636B73706163653A20000A0003
:100530002575002E737761705F67726176655F6500
:1005400073633A20000A002575002E6E6F5F677591
:10055000693A20000A002575002E737761705F727A
:10056000616C745F726775693A20000A0025750036
:100570002E737761705F6C616C745F6C6775693A3C
:1005800020000A002575002E737761705F72637416
:100590006C5F726775693A20000A002575002E733A
:1005A0007761705F6C63746C5F6C6775693A20008B
:1005B0000A002575002E636170736C6F636B5F7446
:1005C0006F5F636F6E74726F6C3A20000A0025755E
:1005D000002E737761705F636F6E74726F6C5F6310
:1005E0006170736C6F636B3A20000A0025303258DB
:1005F000006B65796D61705F636F6E6669672E72FF
:1006000061773A20000A002575002E6D6F757365BD
:100610003A20000A002575002E6B6579626F6172C1
:10062000643A20000A002575002E6D6174726978A5
:100630003A20000A002575002E656E61626C653AED
:1006400020000A00253032580064656275675F63D8
:100650006F6E6669672E7261773A20000A00257511
:100660000064656661756C745F6C617965723A20CF
:10067000000A092D204D61676963202D0A443A095B
:100680004465627567204D65737361676520546FBB
:1006900067676C650A583A094D617472697820443D
:1006A00065627567204D6F646520546F67676C6580
:1006B000202D2053686F77206B6579707265737396
:1006C000657320696E206D61747269782067726944
:1006D000640A4B3A094B6579626F61726420446524
:1006E00062756720546F67676C65202D2053686FB3
:1006F00077206B65797072657373207265706F72A5
:10070000740A4D3A094465627567204D6F757365CB
:1007100020546F67676C650A563A095665727369AB
:100720006F6E0A533A095374617475730A433A0938
:10073000416374697661746520436F6E736F6C6595
:10074000204D6F64650A46312D4631303A095377A2
:100750006974636820746F204C6179657220302D54
:10076000392028463130203D204C30290A302D399F
:100770003A0953776974636820746F204C61796516
:100780007220302D390A47524156453A095377694C
:1007900074636820746F204C617965722030202862
:1007A000616C7465726E617465290A423A094A7512
:1007B0006D7020746F20426F6F746C6F616465722E
:1007C0000A4553433A094A756D7020746F20426F91
:1007D0006F746C6F616465722028616C7465726EF1
:1007E000617465290A453A095072696E742045455D
:1007F00050524F4D2053657474696E67730A4253AB
:10080000504143453A09436C656172204545505259
:100810004F4D0A4E3A094E4B524F20546F67676C4A
:10082000650A004743433A20352E342E3020415686
:10083000522D4C4942433A20322E302E3020415620
:10084000525F415243483A20617672350A004F5058
:1008500054494F4E533A204C554641204558545226
:10086000414B455920434F4E534F4C4520434F4D2C
:100870004D414E44204E4B524F20343039360A0001
:100880004255494C443A2020284A756E2020392090
:1008900032303231290A005649443A2030783646FF
:1008A0003735283175706B6579626F6172647329B1
:1008B000205049443A203078363837332831757023
:1008C000363068736529205645523A2030783030EA
:1008D00030310A000A092D2056657273696F6E2047
:1008E0002D0A0074696D65725F7265616433322828
:1008F000293A202530346C580A006B65796D617097
:100900005F636F6E6669672E6E6B726F3A20255853
:100910000A006B6579626F6172645F69646C653A45
:100920002025580A006B6579626F6172645F70728E
:100930006F746F636F6C3A2025580A00686F737488
:100940005F6B6579626F6172645F6C65647328299F
:100950003A2025580A000A092D20537461747573D2
:10096000202D0A003F004E4B524F3A206F66660A18
:10097000004E4B524F3A206F6E0A000A6D6F75732E
:10098000653A206F66660A000A6D6F7573653A20D6
:100990006F6E0A000A6B6579626F6172643A206F4C
:1009A00066660A000A6B6579626F6172643A206F4D
:1009B0006E0A000A6D61747269783A206F66660A81
:1009C000000A6D61747269783A206F6E0A000A64D9
:1009D000656275673A206F66660A000A646562752B
:1009E000673A206F6E0A000A0A4A756D70696E6771
:1009F00020746F20626F6F746C6F616465722E2E4D
:100A00002E2000433E2000436C656172696E6720B2
:100A1000454550524F4D0A006565636F6E666967C4
:100A20003A0A004C25640A0000010101010101019C
:100A30000101020202020202020202030303030393
:100A40000303030404040404040405050505050662
:100A50000606060607070707070808080809090920
:100A6000090A0A0A0B0B0B0C0C0C0D0D0D0E0E0EC9
:100A70000F0F0F101011111112121313141415155A
:100A800016161717181819191A1A1B1B1C1D1D1ECC
:100A90001E1F202021222223242425262627282920
:100AA000292A2B2C2D2D2E2F30313232333435364E
:100AB0003738393A3B3C3D3E3F404142434445464E
:100AC0004748494A4C4D4E4F50515354555658592A
:100AD0005A5B5D5E5F616264656668696B6C6D6FD1
:100AE0007072737577787A7B7D7E80828385878844
:100AF0008A8C8E8F91939596989A9C9EA0A2A3A57E
:100B0000A7A9ABADAFB1B3B5B7BABCBEC0C2C4C67E
:100B1000C9CBCDCFD1D4D6D8DBDDDFE2E4E7E9EB3A
:100B2000EEF0F3F5F8FAFDFF7267626C69676874BE
:100B3000206D6F6465205B4E4F454550524F4D5DB3
:100B40003A2025750A007267626C69676874206DC7
:100B50006F6465205B454550524F4D5D3A202575C9
:100B60000A007267626C6967687420736574206834
:100B70007376205B4E4F454550524F4D5D3A2025D0
:100B8000752C25752C25750A007267626C6967687B
:100B9000742073657420687376205B454550524F0E
:100BA0004D5D3A2025752C25752C25750A00726738
:100BB000626C69676874207261696E626F77207316
:100BC0006574206873763A2025642C25642C25648E
:100BD0002C25750A00FFAA7F55407267626C696711
:100BE00068745F636F6E6669672E737065656420F5
:100BF0003D2025640A007267626C696768745F63F0
:100C00006F6E6669672E76616C203D2025640A0050
:100C10007267626C696768745F636F6E6669672E7E
:100C2000736174203D2025640A007267626C6967F5
:100C300068745F636F6E6669672E687565203D2016
:100C400025640A007267686C696768745F636F6E19
:100C50006669672E6D6F6465203D2025640A007209
:100C600067626C696768745F636F6E6669672E653B
:100C70006E61626C65203D2025640A007267626CBB
:100C8000696768745F636F6E666967204545505297
:100C90004F4D3A0A007267626C696768745F696EEB
:100CA0006974207267626C696768745F636F6E66EF
:100CB00069672E6D6F6465203D20302E2057726964
:100CC00074652064656661756C742076616C756509
:100CD0007320746F20454550524F4D2E0A007267A5
:100CE000626C696768745F696E6974206565636FBB
:100CF0006E666967206973206E6F7420656E61622D
:100D00006C65642E0A007267626C696768745F695B
:100D10006E6974207374617274210A007267626C68
:100D2000696768745F696E69742063616C6C65647F
:100D30002E0A007267626C69676874206469736167
:100D4000626C65205B4E4F454550524F4D5D3A20D9
:100D50007267626C696768745F636F6E6669672E3D
:100D6000656E61626C65203D2025750A00726762C0
:100D70006C6967687420656E61626C65205B4E4FBC
:100D8000454550524F4D5D3A207267626C69676805
:100D9000745F636F6E6669672E656E61626C652055
:100DA0003D2025750A000A002530313662003A20C0
:100DB0000025303258000A722F632030313233342C
:100DC00035363738394142434445460A001E0F053F
:100DD00000047F3F1F643214643214783C1E1E14DA
:100DE0000A050A0025303258006B6579626F61721E
:100DF000645F7365745F6C65643A20005B735D00CB
:100E00004B6579626F6172642073746172742E0A2B
:100E1000007267626C696768742074696D6572201E
:100E2000656E61626C65642E0A007267626C696748
:100E300068742074696D65722064697361626C65A1
:100E40002E0A002223252628292A2C2D2F30323342
:100E50003536383A3B3D3E4042434547494A4C4E81
:100E60005051535557595A5C5E6062646668696BAD
:100E70006D6F71737577797B7D7F81838587898AB3
:100E80008C8E90929496989A9C9E9FA1A3A5A7A8B9
:100E9000AAACAEAFB1B3B4B6B8B9BBBCBEBFC1C2E9
:100EA000C3C5C6C7C9CACBCCCDCED0D1D2D2D3D47C
:100EB000D5D6D7D7D8D9D9DADADBDBDBDCDCDCDC9A
:100EC000DCDDDDDDDDDCDCDCDCDCDBDBDBDADAD968
:100ED000D9D8D7D7D6D5D4D3D2D2D1D0CECDCCCBEA
:100EE000CAC9C7C6C5C3C2C1BFBEBCBBB9B8B6B408
:100EF000B3B1AFAEACAAA8A7A5A3A19F9E9C9A9898
:100F0000969492908E8C8A89878583817F7D7B7968
:100F1000777573716F6D6B6968666462605E5C5A49
:100F20005957555351504E4C4A4947454342403E0C
:100F30003D3B3A3836353332302F2D2C2A2928269E
:100F40002523220000000000000000000000010135
:100F50000203040506080A0C0F1114181C2024298A
:100F60002E33393F464C535B626A7179818A929A7B
:100F7000A2AAB2B9C1C8CFD5DCE1E7EBF0F4F7FA29
:100F8000FCFDFEFFFEFDFCFAF7F4F0EBE7E1DCD53B
:100F9000CFC8C1B9B2AAA29A928A8179716A625BFA
:100FA000534C463F39332E2924201C1814110F0CA2
:100FB0000A08060504030201010000000000000009
:100FC0000000000631FF0974A1010975150026FF14
:100FD000009520750881020976150026FF009520EE
:100FE00075089102C005010980A101850319012A34
:100FF000B700150126B700950175108100C0050CDA
:101000000901A101850419012AA002150126A002E7
:10101000950175108100C005010906A1018505052E
:101020000719E029E71500250195087501810205DA
:1010300007190029EF1500250195F07501810205BA
:10104000081901290595057501910295017503910E
:1010500001C005010906A101050719E029E71500EE
:101060002501950875018102950175088101050723
:10107000190029FF150026FF009506750881000557
:1010800008190129059505750191029501750391CE
:1010900001C05B435D005B445D005B535D005B57DB
:1010A0005D005B525D0009025B00030100A0FA09CC
:1010B0000400000103010100092111010001224087
:1010C000000705810308000A09040100010300006C
:1010D00000092111010001226D0007058203200093
:1010E0000A090402000203000000092111010001A5
:1010F00022220007058303200001070503032000C7
:10110000011201100100000008756F7368010001F1
:1011100002000112033100750070003600300068D3
:10112000007300650000001A033100750070006B49
:10113000006500790062006F006100720064007356
:10114000000000040309040A092D20436F6E736F29
:101150006C65202D0A4553432F713A0971756974E6
:101160000A003F00433E20004F6E6573686F743A7B
:10117000206163746976653A2025640A000A0025B7
:1011800030325820006B6579626F6172645F7265FE
:10119000706F72743A20006164645F6B65795F629E
:1011A00069743A2063616E2774206164643A202573
:1011B0003032580A0064656C5F6B65795F626974F0
:1011C0003A2063616E27742064656C3A20253032C2
:1011D000580A000011241FBECFEFDAE0DEBFCDBFFA
:1011E00004B603FE27C080911E0390911F03A091B7
:1011F0002003B09121038730904BA740B04BD1F42E
:1012000010921E0310921F031092200310922103CC
:1012100014BE84B7877F84BF0FB6F894A8958091D9
:101220006000886180936000109260000FBEE0E073
:10123000F8E3099511E0A0E0B1E0E4EFF5E602C0C3
:1012400005900D92AC39B107D9F723E0ACE9B1E0D4
:1012500001C01D92AE31B207E1F70E945A1B0C94F7
:10126000F8320C940000FF93EF93E0919C01F09111
:101270009D01309709F00995EF91FF910895FC01C8
:101280008591803011F0EFDFFBCF0895FF27E0E27A
:1012900030E247FF0CC0419597FF09C0EDE2609531
:1012A000709580959095611D711D811D911D27FF81
:1012B00002C0219530E350E2AA27660F771F881FEE
:1012C000991FAA1FA41710F0A41B63955A95A9F79C
:1012D000AA3008F0A95FA05DAF93F3956115710581
:1012E0008105910541F7ED3211F4EF93F395F21773
:1012F00018F43F93F395FBCF8F91B5DFFA95E1F7A3
:101300000895E991F9918591803021F0853219F0A5
:10131000AADFF9CF089520E0E89455915532C1F342
:10132000503311F4689455915A3348F4505390F364
:10133000220F022E220F220F200D250FF4CF0EF4C4
:10134000219589919991533619F3533729F15335E2
:1013500059F1BC0188279927E8945C3621F48991DA
:10136000999168945591543639F446EF7EF077FFA1
:101370000DC08FEF9FEF0AC055374AE039F058355E
:1013800040E121F0523642E009F00895FF93EF93D7
:101390007DDFEF91FF91B7CFFF93EF93FC01819138
:1013A0008030B9F360DFFBCFFF93EF9368DFF1CFBD
:1013B000DF93CF93CDB7DEB72596A3DFCF91DF9133
:1013C00008958F929F92AF92BF92CF92DF92EF9249
:1013D000FF920F931F93CF93DF93CDB7DEB72A977A
:1013E0000FB6F894DEBF0FBECDBFFC010081D180E7
:1013F00083819481892B39F01FEFD11206C091E0CF
:101400000F3F19F403C091E001C090E090FD73C755
:101410007F0185E0DE01169601900D928A95E1F735
:10142000F70122818E819F81222349F00E94EC2FB7
:10143000182F682F8E819F810E94653003C00E9403
:101440003930182F26E4129FF00111243EE0D39E7C
:10145000E00DF11D1124E00FF11DEE0FFF1FEF5DF8
:10146000FC4F05911491F7018281882309F454C13E
:10147000F801EC5BFC45E730F10508F04DC1EA5A94
:10148000FF4F0C94D6328091AA01877088628093B6
:10149000AA01887F91E009F490E08091AA0190FB75
:1014A00080F98093AA0185E007C08091AA01877026
:1014B0008E7F8093AA0180E00E94D9218091AA01A9
:1014C0000E9405223AC48091AA01982F969596957C
:1014D0009695A1F0915E990F990F990F8770892BBE
:1014E0008093AA01887F91E009F490E08091AA019D
:1014F00090FB80F98093AA010E9405228091DA0175
:1015000080FFE5C08091AA018695869586951F92F9
:101510008F9380E891E029C02091AA01822F8695BF
:1015200086958695482F50E04530510554F48F5FDD
:10153000982F990F990F990F822F8770892B80937D
:10154000AA018091AA0181608093AA010E940522CC
:101550008091DA0180FFBBC08091AA0186958695B3
:1015600086951F928F9388E991E09F938F930E94B5
:10157000D8090F900F900F900F90A9C01091AA0159
:1015800011708091DA0180FF0CC01F921F9385EDCE
:1015900091E09F938F930E94D8090F900F900F9026
:1015A0000F908091AA011123B9F080FFC6C38E7FEE
:1015B0008093AA010E9405228091DA0180FF08C071
:1015C00080EB91E09F938F930E94D8090F900F902A
:1015D00080E00E94D921B1C380FDAFC381608093B8
:1015E000AA01813019F489E08093AA018091AA01AF
:1015F0000E9405228091DA0180FF69C083EC91E0AE
:101600009F938F930E94D8090F900F9060C0909184
:10161000AA01892F8695869586958F5F8F71977021
:10162000863038F4880F880F880F892B8093AA01A1
:1016300002C09093AA018091AA01887F91E009F4E9
:1016400090E08091AA0190FB80F98093AA010E940A
:1016500005228091DA0180FF3AC08091AA01869527
:10166000869586951F928F938BEE91E07ECF109199
:10167000AA01169511708091DA0180FF0CC01F92AB
:101680001F9388E392E09F938F930E94D8090F9055
:101690000F900F900F908091AA011123F1F081FF1C
:1016A0004CC38D7F8093AA010E9405228091DA01AC
:1016B00080FF08C08FEF91E09F938F930E94D8091D
:1016C0000F900F9080916F008E7F80936F008091BC
:1016D000AA018695869586957CCF81FD2EC3826072
:1016E0008093AA010E9405228091DA0180FF08C040
:1016F0008CE192E09F938F930E94D8090F900F90F6
:101700001092AD011092AC011092AB0180916F006C
:10171000816080936F0011C3043F2CE5120799F498
:1017200006E221EE40EE64EF7CE509C0083DFCE5F1
:101730001F0711F506E221EE41EE68ED7CE5C701D9
:101740000E94DE20FAC2053F3CE5130708F03FC1C6
:10175000093D9CE5190731F407E225EE45EE69EDF8
:101760007CE5EDCF0A3DECE51E0701F708E221E03C
:1017700045EE6AED7CE5E3CF882309F45DC1109264
:101780009E010230FCE51F0708F440C106312CE53C
:10179000120730F0C8018B5F9C45099708F036C1ED
:1017A0000E94BA2E9093A9018093A80100313CE5D4
:1017B000130709F4C3C008F041C008309CE51907BD
:1017C00009F49AC0F0F40430FCE51F0709F487C05F
:1017D00068F402303CE5130709F477C003301C4578
:1017E00009F0E5C08091A801826076C006309CE5D2
:1017F000190709F46EC008F07BC08091A8018860C9
:101800006BC00C30FCE51F0709F485C068F40A3092
:101810003CE5130709F474C008F079C00E94CA2B94
:101820008091A801806858C00E309CE5190709F422
:1018300076C008F07FC08091A8018BC00C3FFCE50A
:101840001F0709F44FC018F503313CE5130709F4ED
:101850007DC078F401319CE5190709F473C00231A9
:101860001C4509F0A4C00E94CA2B8091A8018F7763
:1018700033C00531FCE51F0709F472C008F486C0C7
:101880000B3F1C4509F093C08091A9013EC0011592
:101890008DE5180709F45FC058F40E3FECE51E070C
:1018A00009F444C008F43FC08091A90182602DC0B2
:1018B00002302DE5120709F475C008F45DC003304D
:1018C0001D4509F074C060E06EC08091A801816080
:1018D00003C08091A80180618093A80168C08091B5
:1018E000A80111C08091A90182608093A9015FC005
:1018F0008091A8018062F0CF8091A8018064ECCF34
:101900008091A80188608460E7CF8160EECF8091EC
:10191000A8018E7FE1CF8091A8018D7FDDCF8091DE
:10192000A801877FD9CF8091A90118C08091A90112
:101930008D7FDBCF8091A8018F7ECECF8091A801D3
:101940008F7DCACF8091A8018F7BC6CF8091A801DF
:10195000877F8B7FC1CF8091A9018D7F8E7FC5CF7F
:101960008091A80182FB222720F991E0922790FB29
:1019700082F990FB83F9B0CF8091A901982F9095BF
:1019800091708E7F892B90FB81F9AFCF0E94CA2B7B
:101990008091A80187FB222720F991E0922790FBF4
:1019A00087F99ACF61E08EE090E00E94ED3160917E
:1019B000A8011091A90184E090E00E94ED31612F0F
:1019C00082E290E00E94ED310E94CA2BB6C1063F30
:1019D0002CE5120731F406E221EE42EE66EF7CE5DB
:1019E000AECE063F3CE5130730F407E225EE44EEA9
:1019F00065EF7CE5A4CE073F9CE5190709F0BCCE56
:101A000007E225EE46EE67EF7CE599CE809118035C
:101A10000631ECE51E0709F58A7A91E009F490E0B9
:101A200090939F01882311F065E301C069E280E98A
:101A300092E00E94742E0EC006311C4509F09CC134
:101A400080919F01882309F454C465E380E992E002
:101A50000E943B2E0E943C2F70C182720D3C9CE57F
:101A6000190709F4FEC008F045C0073CFCE51F0754
:101A700009F4E3C0D8F4043C3CE5130709F4D3C0EF
:101A800030F4033CECE51E0709F46EC00BC1053CC5
:101A9000FCE51F0709F4CCC0063C2CE5120709F051
:101AA00001C141E254E16AE274E1DFC00A3C3CE575
:101AB000130709F4CCC078F4083CECE51E0709F4E0
:101AC000C1C0093CFCE51F0709F0ECC045E154E149
:101AD00069E074E1CAC00B3C2CE5120709F4BCC0F4
:101AE0000C3C3CE5130709F0DDC047E252E168E336
:101AF00072E1BBC0023D8CE5180709F4C2C0A0F436
:101B00000F3CECE51E0709F4B6C008F4B1C0003D77
:101B10002CE5120709F4B2C0013D3CE5130709F0BA
:101B2000C1C06EE089E0BBC0053D8CE5180709F433
:101B3000AEC068F4033DECE51E0709F4A5C0043D02
:101B4000FCE51F0709F0AEC061E088E1A5C0063DD5
:101B50002CE5120709F49EC00E353DE5130709F088
:101B6000A1C06AE285E29BC08091DA0180FF10C0CB
:101B70008091D201809581701F928F9387EC92E0C3
:101B80009F938F930E94D8090F900F900F900F9002
:101B90008091D20180FF2EC08E7F8093D201609110
:101BA000D2017091D3018091D4019091D5010E940E
:101BB00015128091DA0180FF0FC08091D2018170EF
:101BC0001F928F9388E592E09F938F930E94D8098C
:101BD0000F900F900F900F900E9450228FEF90E780
:101BE000E2E081509040E040E1F700C000000E9438
:101BF0008122A3C081608093D2018091DA0180FFAD
:101C00000DC01F9281E08F9380E992E09F938F93A4
:101C10000E94D8090F900F900F900F908091D201E1
:101C200061E0869539C04DE854E166E974E11DC074
:101C300046E954E16DE874E118C04AE254E161E21A
:101C400074E113C049E054E165E174E10EC041EF75
:101C500053E16DEF73E109C04DEF53E161EF73E1C3
:101C600004C048E352E167E272E10E944A2265C083
:101C700061E081E011C065E082E011C068E086E0CB
:101C80000EC064E18FE00BC067E185E108C062E24D
:101C900089E105C061E083E20E9433144EC00E94D6
:101CA00038224BC00F3DFCE51F07C1F140F4011580
:101CB0003CE5130791F001301C45E9F05DC00C359F
:101CC0009DE51907B1F10D35EDE51E0751F10B3515
:101CD0001D4509F051C081E02DC00E94CA2B0FEFB5
:101CE00014E32CE0015010402040E1F700C0000058
:101CF0000E94BC2D22C08091DA01982F909591709E
:101D000090FB80F98093DA01992319F080E193E048
:101D100002C08EEF92E00E943F090FC00E94CB2EBE
:101D20000CC08091A90182FB882780F991E0892766
:101D300001C080E00E94C02F1FC0809115038770F2
:101D400009F4D9C2F7018281882309F4D4C282E060
:101D50002A960FB6F894DEBF0FBECDBFDF91CF91AC
:101D60001F910F91FF90EF90DF90CF90BF90AF90B9
:101D70009F908F900C94BF30F70182810081118178
:101D8000882349F0C8010E94EC2FD82E682FC80183
:101D90000E94653004C0C8010E943930D82EB801B5
:101DA0008D2D0E943F188C01982EF701B280A580DE
:101DB000A2942FE0A22280911503877099F0BB2096
:101DC00089F0812F807F803421F080E2800F88307D
:101DD00048F082E00E94BF30809115038770DD24B7
:101DE000D3948111D12CC12EC2949FE0C9228C2D95
:101DF00090E08C30910508F03FC2FC01E35AFF4FA0
:101E00000C94D632812F807F1F70882311F0129599
:101E1000107FBB20B9F0112309F419C280E2800FB2
:101E2000883010F0911006C080911803182B109381
:101E3000180305C080911703182B109317030E94F5
:101E40003C2F05C2802F0E94F42B112309F414C2E9
:101E5000005E1095083010F0911006C080911803B4
:101E600018231093180305C08091170318231093AB
:101E700017030E943C2F00C2812F807F1F70803289
:101E800011F01295107F992021F0F1E09F1611F1C9
:101E900030C0BB20B1F0AA2081F001E0A0120DC03B
:101EA0008091A90182FDE8C180911903182B1817B0
:101EB00009F4E2C110931903DFC180911903812B4A
:101EC00010C0AA2021F021E0A21609F4D5C10E9479
:101ED000362F27C0BB2041F035E03A1508F4CCC1BD
:101EE000812F0E94EA2BC8C184E08A1508F4C4C17E
:101EF00018C0BB2049F0AA2099F3F701858180FF23
:101F0000A6C18F708583ECCFAA2059F0093309F060
:101F1000B0C1FFEF17EE23E0F15010402040E1F791
:101F2000A6C1812F0E94DF2BA7C1812F86958695A0
:101F3000837019F0813059F09FC1BB2019F0C8019E
:101F4000937002C080E090E00E94BC209BC1BB2047
:101F500019F0C801937002C080E090E00E94A620B2
:101F600091C1812F837009F069C0B11089C1902F90
:101F7000929596959770990F990F802F8F70882E54
:101F8000912CA12CB12C092E04C0880C991CAA1CE0
:101F9000BB1C0A94D2F704FF12C04FE050E060E08F
:101FA00070E004C0440F551F661F771F9A95D2F743
:101FB000DB01CA0180959095A095B09503C080E0A3
:101FC00090E0DC0116951695412F4370423019F1CF
:101FD000C8F400911A0310911B0320911C03309147
:101FE0001D03413059F088299929AA29BB29BC0130
:101FF000CD0160237123822393230AC0802A912A72
:10200000A22AB32ABC01CD01682979298A299B29F2
:102010000E94FD3035C188299929AA29BB29009140
:102020001A0310911B0320911C0330911D03BC0166
:10203000CD016027712782279327EACFBB2019F0B3
:10204000812F817001C08695882309F419C1902FD2
:10205000929596959770990F990F802F8F70882E73
:10206000912CA12CB12C092E04C0880C991CAA1CFF
:10207000BB1C0A94D2F704FF12C04FE050E060E0AE
:1020800070E004C0440F551F661F771F9A95D2F762
:10209000DB01CA0180959095A095B09503C080E0C2
:1020A00090E0DC0116951695412F43704230D9F02F
:1020B00068F50091A4011091A5012091A60130912D
:1020C000A701413059F088299929AA29BB29BC01C7
:1020D000CD0160237123822393231EC0802A912A7D
:1020E000A22AB32A13C088299929AA29BB290091B9
:1020F000A4011091A5012091A6013091A701BC0176
:10210000CD01602771278227932706C0BC01CD012E
:10211000682979298A299B290E949030B1C01F70B3
:10212000BB2039F0812F0E94DC30802F0E94EA2BE7
:10213000A7C0802F0E94DF2B812F0E949A30A0C061
:10214000802F32EF931609F440C0391538F090EF24
:10215000991661F0E1EF9E1699F174C0F3EF9F16A6
:10216000D9F124EF921609F44EC06CC0BB2019F1CE
:1021700034E03A1508F480C01F7181E090E0A0E0DF
:10218000B0E0AC01BD0104C0440F551F661F771FAE
:102190001A95D2F78091A4019091A501A091A60172
:1021A000B091A7018A019B01082719272A273B27FD
:1021B000C901B80125C025E02A1508F45DC0DCCFAF
:1021C000BB2029F0812F8F7130C0BB20D9F3812F24
:1021D0008F710E949A3050C0BB2079F01F7181E04E
:1021E00090E0A0E0B0E0BC01CD0104C0660F771F15
:1021F000881F991F1A95D2F703C060E070E0CB01E9
:102200000E94903039C0BB2099F01F71812F0E942D
:10221000DC308091A90182FD07C038E0139FC00126
:102220001124836080931503812F0E94DC3024C029
:1022300081E00E94BF3081E08A15F0F482E00E94C4
:10224000BF301AC0BB2039F0AA2009F4BBCF802FC1
:102250000E94502C11C0AA2009F4B9CF893349F447
:102260009FEFE7EEF3E09150E040F040E1F700C06F
:102270000000802F0E94F42B88EF8C0D843010F426
:102280000E94D220DD20A9F08091150380FD11C0AD
:10229000F70112828595859585950E94DC30C701EE
:1022A0000E94E109809115038595859585950E9489
:1022B0009A3085E0F701DE01119601900D928A9522
:1022C000E1F789819A810E9439309A8106E4809FE2
:1022D000F00111241EE0919FE00DF11D1124898170
:1022E000E80FF11DEE0FFF1FEF5DFC4F85919491FC
:1022F00002C069E2ABCB2A960FB6F894DEBF0FBEE0
:10230000CDBFDF91CF911F910F91FF90EF90DF90A4
:10231000CF90BF90AF909F908F9008959091A8011B
:1023200092FF0DC0282F2871283019F4877F846010
:1023300006C0282F2471243011F48B7F886093FF0E
:102340000DC0282F2871283119F4877E846106C0BA
:10235000282F2471243111F48B7E88612091A901EA
:1023600020FF0DC0382F3871383019F4877F816015
:1023700006C0382F3171313011F48E7F886021FF13
:102380000DC0282F2871283119F4877E816106C07D
:10239000282F2171213111F48E7E886194FD877E72
:1023A0000895CF93C82F1F928F9383E29AE09F9353
:1023B0008F930E94D80981E090E0A0E0B0E0BC01DA
:1023C000CD0104C0660F771F881F991FCA95D2F7E9
:1023D0000E94FD300F900F900F900F90CF910C94B2
:1023E000CA2B9091D20190FF0CC0E8EEF1E08183FE
:1023F00060834283339692E0E231F907C1F70C948F
:10240000812208958091D201282F269530E0211550
:10241000310519F48170826005C02B32310524F03A
:10242000817084658093D2010895CF92DF92EF92FC
:10243000FF926B017C010E940212B701A60188E0A5
:1024400090E0FF90EF90DF90CF900C94FF3180915F
:10245000D601882319F081508093D6016091D20172
:102460007091D3018091D4019091D5010C941512F3
:102470008091D601833018F48F5F8093D6016091EC
:10248000D2017091D3018091D4019091D5010C9427
:102490001512E2EDF1E083E0808311828FEF8283F9
:1024A0008383148260817181828193810C941512DF
:1024B000AF92BF92CF92DF92EF92FF920F931F9352
:1024C000CF93DF93E82EF62EE901E42FF0E06111BF
:1024D00006C0E85DF54FE4914E2F2E2F71C0062FF8
:1024E00010E0E85DF54F4491F42FC42ED12C26E086
:1024F000829FC00111242FEF30E0B9010E94AE325B
:102500005BEA5603C001579F900D11248E0D911D5B
:102510008E0D911D582F550F580FD901A01BB10BCF
:10252000AC9DC001AD9D900DBC9D900D1124E92F77
:10253000F59ED0011124AB2FBB277901EA1AFB0AC3
:10254000EC9CD001ED9CB00DFC9CB00D1124590108
:10255000A51AB108A09E7001A19EF00CB09EF00CCF
:102560001124EF2CFF242E193F092C9D80012D9D55
:10257000100D3C9D100D1124212F6230710591F03A
:1025800048F461157105E1F061307105B9F4242F4B
:102590004B2F16C06430710569F040F0663071054C
:1025A00079F00CC0242F492FE12F0AC0492FEF2FBB
:1025B0002B2F06C0292FE42F412F02C0292FEB2FEC
:1025C00049832883EA83DF91CF911F910F91FF9078
:1025D000EF90DF90CF90BF90AF900895CF93DF93AF
:1025E00000D01F92CDB7DEB79091D20190FF0AC004
:1025F0009E012F5F3F4F0E9458124B8169818A8153
:102600000E94F1110F900F900F90DF91CF910895DC
:102610002F923F924F925F926F927F928F929F92F2
:10262000AF92BF92CF92DF92EF92FF920F931F93E0
:10263000CF93DF9300D000D0CDB7DEB7182F462E52
:10264000542E222E9091D20190FFB4C0E92FE6952E
:10265000AE2FB0E0A35EBE4F8C918093D7019E7FDA
:10266000923061F49E012F5F3F4F812F0E945812DC
:102670004B8169818A810E94F11162C0823019F414
:102680005090D5015DC0863019F41091D30158C027
:102690008930D9F3893109F053C0E9518E2F817007
:1026A000382E81E083258C83E695F0E0EB52F44FE1
:1026B000C590D49088EEA82E81E0B82EE12CF12CA4
:1026C000DD249EE0692E712C2EEA822E2BE0922EC4
:1026D000EC9CC001ED9C900DFC9C900D1124B3016D
:1026E0000E94AE32012F311002C0060F01C0061B3E
:1026F0008091DA0180FF12C0DF92CF921F929C81FD
:102700009F931F920F93FF92EF929F928F920E943E
:10271000D8090FB6F894DEBF0FBECDBF9501452D89
:10272000642D802F0E9458129FEFE91AF90A83E066
:10273000A80EB11C9EE0E916F10451F60E94812218
:102740001093D3014092D4015092D5012220E9F098
:102750006091D2017091D3018091D4019091D50103
:102760000E9415128091DA0180FF24C08091D5016A
:102770001F928F938091D4011F928F938091D301E8
:102780001F928F9389E89BE00CC08091DA0180FF53
:1027900011C01F925F921F924F921F921F9382E669
:1027A0009BE09F938F930E94D8090FB6F894DEBFE9
:1027B0000FBECDBF0F900F900F900F90DF91CF9174
:1027C0001F910F91FF90EF90DF90CF90BF90AF904F
:1027D0009F908F907F906F905F904F903F902F9041
:1027E0000895E2EDF1E0438128E0421B08F440E067
:1027F00021E0628181810C940813E2EDF1E04381D4
:1028000028E0420F08F44FEF21E0628181810C94AF
:102810000813E2EDF1E0628128E0621B08F460E059
:1028200021E0438181810C940813E2EDF1E06281A3
:1028300028E0620F08F46FEF21E0438181810C945E
:102840000813E2EDF1E0818121E04381628188504B
:102850000C940813E2EDF1E0818121E04381628173
:10286000885F0C9408139091D20190FF55C091702D
:10287000811102C0926006C08B3210F0946502C0D4
:10288000880F982B9093D2016623B1F06091D2010A
:102890007091D3018091D4019091D5010E941512BD
:1028A0008091DA0180FF1BC08091D20186951F9232
:1028B0008F9386E49BE00BC08091DA0180FF0FC00C
:1028C0008091D20186951F928F9388E29BE09F931F
:1028D0008F930E94D8090F900F900F900F906091E6
:1028E000D201669570E04BE050E08EE091E00E94EE
:1028F000EB32892B19F00E94502202C00E945F2205
:1029000081E08093CF0120E04091D5016091D40116
:102910008091D3010C94081308958091D20186957B
:10292000815009F48AE261E00C9433148091D20161
:1029300086958F5F8B3208F081E061E00C94331450
:10294000CF93DF93482F50E0FA013597EF33F1052D
:1029500008F0AAC2E759FF4F0C94D63288E19AE0FA
:102960000E943F0981E696E00E943F0983E090E0E3
:102970000E94D9311F928F938EE596E09F938F939B
:102980000E94D8098CE596E00E943F0982E090E021
:102990000E94D931C82F89E496E00E943F091F9216
:1029A000CF9384E496E09F938F930E94D80982E4AA
:1029B00096E00E943F0988E396E00E943F098C2F31
:1029C00081701F928F9385E396E09F938F930E946F
:1029D000D80983E396E00E943F0989E296E00E94CD
:1029E0003F09C1FB882780F91F928F9386E296E00A
:1029F0009F938F930E94D80984E296E00E943F093A
:102A000088E196E00E943F09C2FB882780F91F9267
:102A10008F9385E196E09F938F930E94D80983E17D
:102A200096E00E943F098AE096E00E943F09C3FBBE
:102A3000CC27C0F91F92CF9387E096E09F938F93A6
:102A40000E94D80985E096E00E943F090E94BA2EB4
:102A5000EC0181EF95E00E943F09DF93CF938CEE6C
:102A600095E09F938F930E94D8098AEE95E00E948B
:102A70003F0981ED95E00E943F098C2F81701F92E4
:102A80008F938EEC95E09F938F930E94D8098DB71A
:102A90009EB780960FB6F8949EBF0FBE8DBF8CEC8C
:102AA00095E00E943F0985EB95E00E943F09C1FB3C
:102AB000882780F91F928F9382EB95E09F938F93E5
:102AC0000E94D80980EB95E00E943F098EE995E0CD
:102AD0000E943F098D2F81701F928F938BE995E0A3
:102AE0009F938F930E94D80989E995E00E943F093E
:102AF00087E895E00E943F09D695D1701F92DF9339
:102B000084E895E09F938F930E94D80982E895E02E
:102B10000E943F0980E795E00E943F09C2FB882799
:102B200080F91F928F938DE695E09F938F930E947B
:102B3000D8098BE695E00E943F0989E595E00E945F
:102B40003F09C3FB882780F91F928F9386E595E0A4
:102B50009F938F930E94D80984E595E00E943F09D6
:102B60008AE495E00E943F09C4FB882780F91F9200
:102B70008F9387E495E09F938F930E94D80985E413
:102B800095E00E943F0983E395E00E943F09C5FB61
:102B9000882780F91F928F9380E395E09F938F930E
:102BA0000E94D8098EE295E00E943F0982E195E0FB
:102BB0000E943F09C6FB882780F91F928F938FE000
:102BC00095E09F938F930E94D8098DB79EB780960A
:102BD0000FB6F8949EBF0FBE8DBF8DE095E00E94AA
:102BE0003F0985E095E00E943F09C7FBCC27C0F96B
:102BF0001F92CF9382E095E09F938F930E94D80914
:102C000080E095E00E943F0986E090E00E94D93183
:102C1000C82F89EE94E00E943F091F92CF9384EE63
:102C200094E09F938F930E94D80982EE94E00E94D3
:102C30003F0988ED94E00E943F098C2F81701F921C
:102C40008F9385ED94E09F938F930E94D80983ED35
:102C500094E00E943F098AEC94E00E943F09C695E7
:102C6000C695C6951F92CF9387EC94E09F938F9360
:102C70000E94D80985EC94E00E943F098DB79EB769
:102C800040960FB6F8949EBF0FBE8DBF06C087E07A
:102C90009AE00E943F090E94CB2EC1E00AC181E761
:102CA00096E0F7C08091DA01817F8E7F8093DA0110
:102CB00087E491E10E943F0983E09AE00E943F0986
:102CC00081E080938F02E9CF87EE99E00E943F096F
:102CD0000E94CA2B9FEF24E38CE09150204080405B
:102CE000E1F700C000000E94BC2DD7CF8091DA012F
:102CF000C82FC095C170C0FB80F98093DA01CC2346
:102D000019F08BED99E0C0C08EEC99E00E943F096C
:102D10008091DA01897F877F8093DA01BECF90911D
:102D2000DA0191FBCC27C0F981E0C827892FC0FBCD
:102D300081F98093DA01CC2319F081EC99E027C066
:102D400083EB99E0A6C09091DA0192FBCC27C0F901
:102D500081E0C827892FC0FB82F98093DA01CC2358
:102D600019F084EA99E013C084E999E092C0909147
:102D7000DA0193FBCC27C0F981E0C827892FC0FB7B
:102D800083F98093DA01CC2351F088E899E00E941E
:102D90003F098091DA0181608093DA018AC08BE774
:102DA00099E077C084ED98E00E943F0987E998E0B8
:102DB0000E943F0980E898E00E943F098EE498E075
:102DC0000E943F0983E298E064C086E599E00E9492
:102DD0003F090E94D2201F928F938CE399E09F932A
:102DE0008F930E94D80980911C011F928F9385E2D6
:102DF00099E09F938F930E94D809809161021F925E
:102E00008F9382E199E09F938F930E94D8098091DC
:102E1000A80187FB882780F91F928F938AEF98E09B
:102E20009F938F930E94D8092FB7F8948091BE0189
:102E30009091BF01A091C001B091C1012FBFBF937C
:102E4000AF939F938F9383EE98E09F938F930E940D
:102E5000D8098DB79EB746960FB6F8949EBF0FBEA1
:102E60008DBF1BCF0E94CA2B9091A80197FBCC2746
:102E7000C0F981E0C827892FC0FB87F98093A8019A
:102E8000CC2329F081E799E00E943F0912C086E631
:102E900099E00E943F0901CF895303C08D5101C0C1
:102EA00080E00E94D111F9CE84E699E00E943F09AA
:102EB000C0E08C2FDF91CF910895F894E82FE29530
:102EC000EF70F0E031A1282F2F7081E090E001C079
:102ED000880F2A95EAF7982F9095932391A392A1B2
:102EE000892B82A3789408959F92AF92BF92CF923C
:102EF000DF92EF92FF920F931F93CF93DF9308E43B
:102F000011E0CEEAD1E088EBE82E81E0F82E912C9A
:102F1000CC24C394D12CB801D8018C91F894E82F1B
:102F2000E295EF70F0E021A18F70A60102C0440F7E
:102F3000551F8A95E2F7CA01922F982B91A392A16F
:102F40008095892382A3789400C0EDE4F1E020E02D
:102F500030E0A12CB12C4191842F82958F7090E0AC
:102F6000DC0190968C9190E04F7002C0959587950A
:102F70004A95E2F780FD08C0C601022E02C0880F04
:102F8000991F0A94E2F702C080E090E0A82AB92ACB
:102F90002F5F3F4F2E303105F1F60F5F1F4FFB01C2
:102FA00080810E945D17F0EAFA95F1F78881998196
:102FB000A816B90621F0B982A88281E001C080E09C
:102FC000982A2296EC16FD0609F0A5CF992049F023
:102FD00081E08093A2010E94062E9093A10180932C
:102FE000A0018091A2018823E9F12091A0013091F4
:102FF000A1014FB7F8948091BE019091BF01A091BB
:10300000C001B091C1014FBF821B930B069750F1D5
:103010008091AE019091AF019093C3018093C20162
:103020008091B0019091B1019093C5018093C4014A
:103030008091B2019091B3019093C7018093C60132
:103040008091B4019091B5019093C9018093C8011A
:103050008091B6019091B7019093CB018093CA0102
:103060001092A201892DDF91CF911F910F91FF90B6
:10307000EF90DF90CF90BF90AF909F900895CF9347
:10308000DF9326E4829FC0011124FC013EE0739F80
:10309000E00DF11D1124E60FF11DEE0FFF1FEF5D96
:1030A000FC4FC591D491CE01C238D10569F1B0F47D
:1030B000C133D10509F475C048F4C932D10509F40A
:1030C00069C0CA32D10509F473C085C0C533D105C2
:1030D00009F459C0C933D105B9F07DC0C33ED1054B
:1030E00071F138F4C03ED105B1F0C23ED10511F105
:1030F00072C0C63ED105B9F1C73ED105C9F1C43E83
:10310000D10509F068C024C02091A80120FD5DC050
:1031100021FD5BC060C02091A80120FD50C020911E
:10312000A90120FF62C18091A80184FD5CC183EEEA
:1031300090E05BC12091A80122FF57C1F4CF80919C
:10314000A80182FD3FC08091A90180FD3EC0EBCF68
:103150002091A90121FF49C18091A80184FD43C1AB
:1031600087EE90E042C12091A80123FF3EC1F4CF39
:103170008091A80183FD2CC08091A90181FFECCF33
:1031800084EE90E032C12091A80125FF2EC189E292
:1031900090E02BC12091A80125FF27C185E390E095
:1031A00024C12091A80126FF20C18AE290E01DC120
:1031B0002091A80126FF19C181E390E016C189E39F
:1031C00090E013C182EE90E010C180EE90E00DC15E
:1031D00086EE90E00AC1C11530E5D30708F062C061
:1031E000C11540E4D40720F0CE019F70906AFDC065
:1031F000C03ED10548F4C03CD105C0F0FE01EE0F41
:10320000FF1FEB5BFC4F0FC0C11520E2D207C0F1DE
:10321000C11540E3D40708F03DC0FE01FF70EE0F7A
:10322000FF1FEB53FB4F85919491DFC0C83AD10546
:10323000B8F4C53AD10550F08C2F855AE82FF0E04C
:10324000E659FE4F808190E09064CFC0C130D10537
:1032500009F4CBC008F4C7C0249708F4C4C0C5C0A3
:10326000CF3BD10508F0BFC08C2F885AE82FF0E083
:10327000EE0FFF1FE359FE4F808191819464B5C02A
:10328000C11531E0D30708F0B0C0C83ED10508F041
:10329000AAC0ABC0CE019927D3FF02C0986CA5C0CD
:1032A000906CA3C0C11585E5D80708F05BC0C115B7
:1032B00024E5D20728F09C2F8827846F906A95C058
:1032C000C11532E5D30738F5C11541E5D407F0F44F
:1032D000CE0174E0969587957A95E1F7282F2370B3
:1032E0003C2F337081E090E002C0880F991F3A951F
:1032F000E2F79C68922BEC2FEF70E695E69540E2A2
:10330000E49FF00111248E2B9F2B6FC09C2F8827E8
:10331000816F906A6AC0AE01437055272C2F2695A5
:103320002695C115D34578F481E090E002C0880F5E
:10333000991F4A95E2F740E2249F90011124822BC5
:10334000932B9C6852C081E090E002C0880F991FC7
:103350004A95E2F740E2249F90011124822B932B9F
:103360009A6843C0C11529E5D207B0F4C11538E504
:10337000D30728F09C2F8827806F906A36C0C1152C
:1033800046E5D40780F58C2F0E948E118F7190E056
:10339000982F8827906229C0C1158AE5D80790F434
:1033A0008C2F8F700E948E11FE0194E0F695E795A8
:1033B0009A95E1F7EF70F0E0FE2FEE27F0699F019C
:1033C000282B0FC0CE0190568115904260F48D2FAE
:1033D0008F710E948E11FE01FF27F0628F719F0195
:1033E000382BC90102C080E090E0DF91CF910895B1
:1033F0008295982F937344E0949F900111248C7CC4
:1034000086958695282B822F8575880F2A7A269592
:10341000822B08959FB7F89410925E029FBF9091FF
:103420008502943009F057C09091E9009F70309167
:10343000EC00232F217030FD20E8922B23E0209315
:10344000E9002091EB0020FF43C02091EE0027FF10
:103450003FC02091A301222321F02091E80025FF05
:1034600037C01092A30126E03091E80035FD15C069
:1034700030918502343061F53091EB0035FD28C084
:10348000215021F481E08093A30122C0EFE9FFE005
:103490003197F1F700C00000E7CF8093F1008091F1
:1034A000E80085FD0AC08091E80080FFFCCF809194
:1034B000E8008E778093E80006C08FB7F89421E08B
:1034C00020935E028FBF9F709093E90080E0089583
:1034D0009F709093E9008FEF0895BC0184E00C94F5
:1034E000892DBC0183E00C94892D2091E40030915A
:1034F000E50095E64091EC00842F817040FF23C0E9
:103500008091E80080FD1DC080918502882399F09C
:10351000853099F08091EB0085FD11C04091E40069
:103520005091E5002417350729F3915011F09A01C5
:10353000E1CF84E0089582E0089583E0089581E07A
:10354000089580E008954091E80042FFDDCF08959E
:103550008091870287FF11C08091E80082FD05C03D
:10356000809185028111F8CF11C08091E8008B779E
:103570000BC080918502882349F08091E80080FF8C
:10358000F8CF8091E8008E778093E8000895982F17
:10359000973068F59093E900981739F07091EC0036
:1035A0002091ED005091F00003C0242F762F50E0C1
:1035B00021FD02C09F5FECCF3091EB003E7F309346
:1035C000EB003091ED003D7F3093ED003091EB004A
:1035D00031603093EB007093EC002093ED0050933A
:1035E000F0002091EE0027FDE5CF80E008958F7078
:1035F0008093E90081E0089520918D0230918E0240
:103600002617370748F06115710539F42091E80055
:103610002E772093E80001C0B901FC0120E061157C
:10362000710579F1809185028823F1F18530F1F1FE
:103630008091E80083FD3CC08091E80082FD2EC0AF
:103640008091E80080FFEBCF2091F3008091F200A1
:1036500090E0922B6115710551F08830910538F496
:1036600021912093F100615071090196F3CF21E07F
:10367000089709F020E08091E8008E778093E800B9
:10368000CECF2111CFCF0AC080918502882361F06F
:10369000853061F08091E80083FD0AC08091E800E8
:1036A00082FFF2CF80E0089582E0089583E00895DC
:1036B00081E00895CF93DF93CDB7DEB72B970FB698
:1036C000F894DEBF0FBECDBF84B7877F84BF0FB62F
:1036D000F894A895809160008861809360001092B2
:1036E00060000FBE90E080E80FB6F8948093610010
:1036F000909361000FBE85B7806885BF85B78068ED
:1037000085BF8AE09AE190939D0180939C010E947D
:103710003B280E945A288091E20084608093E20056
:103720007894809185028823A1F01091E9001F70A0
:103730009091EC00892F817090FD80E8182B1092F9
:10374000E9008091E80083FD0E942C251F701093F2
:10375000E90082E084BD93E095BD9AEF97BD809328
:103760006E0083E30E945D1782E30E945D1781E390
:103770000E945D1780E30E945D1784E90E945D1737
:103780000DE411E0F80181918F010E945D17F1E0D5
:103790000B351F07B9F7EEEAF1E088EB91E0A2ECF8
:1037A000B1E0119211921D921D928E179F07C9F7D9
:1037B00080E090E00E94E7318A3E9E4F11F00E9427
:1037C000CB2E82E090E00E94D9318093DA010E94F2
:1037D000BA2E9093A9018093A8010E9474178FE3D9
:1037E0009CE90197F1F700C000000E9474178091D6
:1037F000C20180FF08C06FEF7FEF80E090E00E9481
:103800000B320E94BC2D83E090E00E94D931682FDA
:1038100070E080E090E00E94FD30279A2F988AE0C7
:103820008093800089E1809381008FEF9FEF9093D8
:103830008700809386000E940A228091AA0181FF5E
:103840000BC01092AD011092AC011092AB018091AF
:103850006F00816080936F000E940A228091B801FE
:103860008111E0C08091DA0180FF08C08CE19DE009
:103870009F938F930E94D8090F900F908091DA0147
:1038800080FF08C086E09DE09F938F930E94D80937
:103890000F900F9080E090E00E94E7318A3E9E4FAB
:1038A00081F08091DA0180FF08C08EED9CE09F934B
:1038B0008F930E94D8090F900F900E94CB2E0E94E8
:1038C000491288E090E00E94E1316093D201709348
:1038D000D3018093D4019093D5016E7FD1F4809170
:1038E000DA0180FF08C085E99CE09F938F930E94D6
:1038F000D8090F900F900E94491288E090E00E9432
:10390000E1316093D2017093D3018093D4019093FD
:10391000D5010E9402128091DA0180FF08C08CE775
:103920009CE09F938F930E94D8090F900F908091F5
:10393000DA0180FF0FC08091D20181701F928F93B6
:103940008FE59CE09F938F930E94D8090F900F9072
:103950000F900F908091DA0180FF0FC08091D2010B
:1039600086951F928F9384E49CE09F938F930E948F
:10397000D8090F900F900F900F908091DA0180FF7F
:103980000EC08091D3011F928F938AE29CE09F9397
:103990008F930E94D8090F900F900F900F908091F5
:1039A000DA0180FF0EC08091D4011F928F9380E1D5
:1039B0009CE09F938F930E94D8090F900F900F90D7
:1039C0000F908091DA0180FF0EC08091D5011F9287
:1039D0008F9386EF9BE09F938F930E94D8090F905F
:1039E0000F900F900F908091DA0180FF0EC08091B0
:1039F000D6011F928F938AED9BE09F938F930E9435
:103A0000D8090F900F900F900F901092D8018091CD
:103A1000D20180FF04C060E086950E94331481E0EB
:103A20008093B80184E091E09093BA018093B9014A
:103A300080E09EE00E943F0980918502853009F078
:103A4000A5C08CEF9DE00E943F0960E4F62EEE24B5
:103A5000E39400E112E180918502853009F06CC0A9
:103A600080918502843009F454C080E00E94D921FD
:103A70000E9450228091BD01811128C0E092BD01B9
:103A80008091D201982F91709093BC018E7F80938A
:103A9000D2018091DA0180FF0CC01F921F9243E394
:103AA0005DE05F934F930E94D8090F900F900F90A5
:103AB0000F900E9450229FEFE0E7F2E09150E0402B
:103AC000F040E1F700C000000E9481221092BB018B
:103AD00048E150E00FB6F894A895409360000FBEFF
:103AE000F092600083B7817F846083BF83B7816079
:103AF00083BF7894889583B78E7F83BF0FB6F89481
:103B0000A8958091600088618093600010926000A9
:103B10000FBE80918402882309F49DCF0E94741700
:103B2000E2ECF1E081919191892B09F0BAC151E069
:103B3000EC3CF507B9F78FCF0E94CA2B0E940A22EE
:103B40000E94D2201092BD018091BC018823E1F037
:103B50008091D20181608093D2018091DA0180FF4F
:103B60000DC01F9281E08F938DE69DE09F938F9310
:103B70000E94D8090F900F900F900F908091D20162
:103B800060E086950E9433140E945F220E947417A1
:103B9000882359F08FB7F8944091BE015091BF012E
:103BA0006091C0017091C1018FBF4BED642E41E067
:103BB000742E52EC452E51E0552E00E010E00B879C
:103BC000F201A190B1902F01F301C190D1903F017A
:103BD000CA24DB24C114D104B1F40F5F1F4F053098
:103BE000110569F78FEF8E838F8318860E94062E4A
:103BF0008160782F9A8789874E815F8168858A8561
:103C00000E94082077C08091DA0181FD05C080E024
:103C1000EE24E394F12C48C086EB9DE00E943F091E
:103C200022EC822E21E0922EE12CF12CFF92EF92D9
:103C300041EB5DE05F934F930E94D8098EEA9DE0CF
:103C40000E943F09F40180812180F2E08F0E911CD7
:103C50000E94F819382E822D0E94F819232D30E089
:103C6000322F2227A901482BCA019F938F9388EAFC
:103C70009DE09F938F930E94D80986EA9DE00E9461
:103C80003F09FFEFEF1AFF0A0FB6F894DEBF0FBE31
:103C9000CDBF55E0E516F10449F6B9CF8F5FEE0CC4
:103CA000FF1C8E3009F499CF96012E213F21232B42
:103CB000A9F389838B858A83AE20BF2081E0AB285E
:103CC00009F480E08B830E94062E8160782F9D830B
:103CD0008C8349815A816B818D810E940820000F5D
:103CE000111FF801E552FE4F80819181E826F926E7
:103CF000F182E0828091D801882309F4A5C08091E7
:103D0000D701E091D201E695E81BE093CE01823025
:103D100059F4F0E0E252F24FE4910E2F10E0F4EF8C
:103D2000EF2EFFE1FF2E6BC0863059F4F0E0E55234
:103D3000F24FE4910E2F10E0E4EEEE2EEFE1FE2EB6
:103D40005EC0893061F4E695F0E0E852F24FE4910C
:103D50000E2F10E076EDE72E74E2F72E50C08F3074
:103D600061F4E695F0E0EB52F24FE4910E2F10E093
:103D700069E6E62E64E2F62E42C0853159F4F0E0A1
:103D8000EE52F24FE4910E2F10E05BE1E52E54E28B
:103D9000F52E35C08831F9F0833249F4E0EDFDE0CD
:103DA0000591149144EAE42E4FE1F42E28C08432A8
:103DB000C9F08532F1F48E2F63E00E949432E92F2E
:103DC000F0E0E353F24FE4910E2F10E037EBE32ED7
:103DD00032E2F32E14C008E210E022E9E22E23E2E0
:103DE000F22E0DC004EF11E098E5E92E93E2F92ED2
:103DF00006C000ED17E083EAE82E8FE1F82E8091EF
:103E0000CF01882361F01092CF010E94062E90937B
:103E1000CD018093CC011092D1011092D0010E946B
:103E2000062EE091CC01F091CD018E1B9F0B8F3FB0
:103E30009F4750F40E0F1F1F1093CD010093CC012C
:103E40008CEC91E0F70109950E94D2209091D90164
:103E5000891709F4F1CD0E94D220182F8093D9013F
:103E60008091DA0182FFE8CD80FF04C089EE9DE0F9
:103E70000E943F098091DA0180FF0CC01F921F93BE
:103E800084EE9DE09F938F930E94D8090F900F902E
:103E90000F900F908091DA0180FFCECD82EE9DE0F1
:103EA000C9CD09BD19BD09B400FEFDCF8091D80070
:103EB0008F7D8093D8008091E00082608093E00045
:103EC0008091E00081FDFCCF0E94CA2BC4CDCF922F
:103ED000DF92EF92FF928C3724E1920728F469E099
:103EE00070E00E94AE3229C0A0E0B0E08A50974D49
:103EF000AF4FBF4F6627782F892F9A2F25EF38E2D3
:103F000041E050E00E94533269017A01CA01B901CF
:103F10000E9484329B01AC01C701B6010E94843229
:103F2000BB27A92F982F872F009721E0A207B10563
:103F300011F0BC0102C06FEF7FEFCB01FF90EF905B
:103F4000DF90CF90089508950F931F93CF93DF9341
:103F500000D01F92CDB7DEB78C018091E7018111AF
:103F60000AC09E012F5F3F4F4FEF6FEF0E94581224
:103F70008A818093E701F8018481813051F028F033
:103F8000823061F44091E7010AC08091E70140E08E
:103F900007C06091E70140E080E003C040E080E0BE
:103FA00060E00E94F111F801848190E0019663E0E5
:103FB00070E00E94C23284830F900F900F90DF91C7
:103FC000CF911F910F910895CF93DF93EC01E2ED14
:103FD000F1E0438162818C810E94EE128C818F5FBF
:103FE0008C83DF91CF910895CF93DF93EC01EC8127
:103FF000F0E0ED5BF14F4491E2EDF1E0628181810F
:104000000E94EE128C818F5F8C83DF91CF91089597
:104010001F93CF93DF93CDB7DEB767970FB6F894B2
:10402000DEBF0FBECDBF342F4B8B252F5C8B6D8B2E
:104030007E8B8F8B4E895F8961111092170386E00A
:10404000FE013D96DF01982F1D929A95E9F73D8775
:104050002E876F87598B488BDE01179601900D9242
:104060008A95E1F7CE0107960E940D2A81113EC084
:1040700086E0FE013796DE01119601900D928A9539
:10408000E1F7FF81E8856A857B856115710531F06F
:10409000EF3F31F481E0FF3F19F403C081E001C03C
:1040A00080E080FD23C02091B60230E0C901019676
:1040B000877099274091E70250E08417950779F1BE
:1040C000F983EA837D836C8396E0929FD001939F6E
:1040D000B00D1124A954BD4FFE01319601900D92EF
:1040E0009A95E1F78093B6020E94073116E080911D
:1040F000E7029091B6028917F9F0189FC0011124C8
:1041000089549D4F0E940D2A8823B1F08091E702C7
:1041100090E00196877099278093E702E8CF0E948C
:10412000CA2B1092B6021092E702E0EBF2E086E0B2
:10413000DF011D928A95E9F767960FB6F894DEBF06
:104140000FBECDBFDF91CF911F91089520915C02EA
:1041500030915D022817390771F090935D028093CA
:104160005C02E091B901F091BA01309721F000842E
:10417000F185E02D0994089520915A0230915B0257
:104180002817390771F090935B0280935A02E091EF
:10419000B901F091BA01309721F00680F781E02D46
:1041A00009940895E091B901F091BA01309721F096
:1041B0000190F081E02D099480E00895EF92FF9244
:1041C0000F93CF93DF93C42FD22FFC0182818823DA
:1041D000D1F040939E010E94062E90935902809345
:1041E000580280E28C0F883008F078C0C77081E0F8
:1041F00001C0880FCA95EAF7DF91CF910F91FF9028
:10420000EF900C94EA2B80919E01481356C02091A8
:104210005802309159024FB7F8948091BE019091A5
:10422000BF01A091C001B091C1014FBF821B930B90
:10423000883C910508F041C0CD17C9F080E28C0F91
:10424000883040F4C77081E001C0880FCA95EAF752
:104250000E94DF2B80E28D0F883048F481E09D2F93
:10426000977001C0880F9A95EAF70E94EA2B0933EC
:1042700019F0E12CF12C03C080E5E82EF12C802F01
:104280000E94502CE114F10451F08FE99FE0019756
:10429000F1F700C0000091E0E91AF108F3CF802F98
:1042A0000E94F42B80E28D0F8830C0F4D77081E03B
:1042B00001C0880FDA95EAF70AC080E28C0F8830D7
:1042C00068F4C77081E001C0880FCA95EAF7DF91F2
:1042D000CF910F91FF90EF900C94DF2BDF91CF9156
:1042E0000F91FF90EF9008951F920F920FB60F92CB
:1042F00011242F933F934F935F936F937F938F93EB
:104300009F93AF93BF93EF93FF938091AC019091F4
:10431000AD01019668EB75E00E94AE329093AD015D
:104320008093AC016BE070E00E94AE326F778091B9
:10433000AB01823019F4603451F404C0813039F497
:104340006F3729F480916F008E7F80936F00E62F86
:10435000F0E0ED5BF04FE49121E031E0E29FC0013D
:10436000E39F900D112465E070E00E94AE328091D1
:10437000AA01869586958695282F269FC001279F9E
:10438000900D11240E94671F90938D0080938C00E4
:10439000FF91EF91BF91AF919F918F917F916F911D
:1043A0005F914F913F912F910F900FBE0F901F90F3
:1043B0001895863048F4811108C090918000977F4D
:1043C000909380002F9806C085E0909180009860BF
:1043D00090938000282F30E0AFEFBFEF0E9475323E
:1043E00025E030E040E050E00E945332B42FA32F8C
:1043F000922F8827892F9A2FAB2FBB270E94671FE8
:1044000090938D0080938C000895682F86E090E053
:104410000C94ED3180E090E00E94E7318A3E9E4F9F
:1044200051F00E94CB2E8091AA0184708962809302
:10443000AA010E94052286E090E00E94D931809373
:10444000AA01282F26952695269530E0263031059D
:1044500024F0877088628093AA018091AA0180FF6E
:1044600004C086958695869501C080E00C94D9217C
:104470009091D20190FF04C09695981740F003C028
:10448000811105C090E0961710F40C94961461E029
:104490000C943314882311F0FA0101C0FB01099434
:1044A0001092D8018091DA0180FF08C08AE29EE074
:1044B0009F938F930E94D8090F900F900895609159
:1044C000D201669570E04BE050E08EE091E00E94F2
:1044D000EB32892B19F481E08093D8010E94062EDB
:1044E0009093CD018093CC018091DA0180FF08C0C8
:1044F00081E19EE09F938F930E94D8090F900F90C7
:1045000008958091D20180FF0AC0809A81B38E7F86
:1045100091B391602FB7F894E8EEF1E00BC0E8EEAC
:10452000F1E0118210821282339632E0E231F30719
:10453000C1F7EBCF32E0E231F30789F0319148E087
:1045400091BB000000C037FF81BB330F000000C0EB
:1045500000C000C081BB00C04A9591F7EBCF2FBFD0
:104560008FE594E00197F1F700C0000008959F9255
:10457000AF92BF92CF92DF92EF92FF920F931F9371
:10458000CF93DF93FC01A280948081E08483E3E4F5
:10459000FEE0B490E2ECFEE0E491C2E1D2E0F8EE9D
:1045A000EF2EF1E0FF2ECC24CA94D12CEB190E2F64
:1045B00010E022E02A1530F08091D30188838091A9
:1045C000D4018983911003C01B821A8255C08B814C
:1045D0008823F9F081508B832FEF829FC001112433
:1045E0006C8170E00E94AE32FB01FF27ED5BF14F62
:1045F0008491E82FEB192FEFE29FC0011124B8013D
:104600000E94AE328091D501689FB00111247A8357
:1046100033C00E94C9312091D5012695215830E040
:10462000A901440F551F322F2227240F351F232F96
:1046300033278217930704F582E08A1588F40E94D5
:10464000C931B6010E94C23288830E94C9312091CB
:10465000D4012695622F70E00E94C232280F298370
:104660001A828091D501843120F0893C18F088ECC1
:1046700001C084E18C838B8397014A8169818881A1
:104680000E945812259623E0E20EF11C82E0C83504
:10469000D80709F08ECFDF91CF911F910F91FF9036
:1046A000EF90DF90CF90BF90AF909F900C948122BD
:1046B000EF92FF920F931F93CF93DF938C01C8EE7D
:1046C000D1E0E12CF12CF8018481F7E0EF16F10440
:1046D0001CF4882339F002C0811104C09E0140916E
:1046E000D50102C09E0140E06091D4018091D301C8
:1046F0000E9458128FEFE81AF80A23969EE0E916F6
:10470000F10409F70E948122F801848190E001966A
:10471000817099278483DF91CF911F910F91FF9032
:10472000EF9008958F929F92AF92BF92CF92DF92B7
:10473000EF92FF920F931F93CF93DF93EC014C8185
:10474000042F10E09801D8010E9475329B01AC0142
:104750000E9440326B017C01E0E2F0E0E01BF10BD3
:10476000A5E5B0E09B01AC010E9440324B015C0129
:104770009F01DF010E94DC329B01AC010E944B32A1
:104780009B01AC012C0D3D1D4E1D5F1DC501B401EB
:104790000E945332822FF22E99E2921728F093E072
:1047A000299F900111240DC025E530E0281B310917
:1047B000C901880F991F280F391F37FF02C02F5FCB
:1047C0003F4F35952795122F109598EEC92E91E001
:1047D000D92E00E085E5E82EEF1801FD02C08E2DF0
:1047E00001C08F2D9601412F6091D4010E94581273
:1047F0000F5F83E0C80ED11C0E3079F70E94812232
:104800008C81811102C091E003C0803219F49FEFC6
:1048100090931B0190911B01890F8C83DF91CF91A5
:104820001F910F91FF90EF90DF90CF90BF90AF90CE
:104830009F908F9008950F931F93CF93DF93C8EEAF
:10484000D1E0FE01118210821282339682E0E231C1
:10485000F807C1F700E010E08091E601082E000C97
:10486000990B0817190794F080911A01082E000C73
:10487000990B8017910754F09E014091D5016091EA
:10488000D4018091D3010E94581203C0198218826A
:104890001A820F5F1F4F23960E301105E9F60E9412
:1048A0008122809119019091E601980F9093E60181
:1048B00020911A01280F20931A01121614F49D302A
:1048C0001CF0819580931901DF91CF911F910F9179
:1048D0000895BF92CF92DF92EF92FF920F931F93B2
:1048E000CF93DF93FC01828180FF03C0DD24DA9443
:1048F00002C0DD24D39408EE11E0C0E0D0E02EE049
:10490000B22EF80111821082128294E0E92EF12C6D
:10491000C12C8091E5018C0D8F302CF06B2D0E9405
:10492000A032892F02C087FD825F082E000C990BF0
:10493000C817D90791F48091D5018E9DA0018F9D54
:10494000500D1124559547955595479598016091BF
:10495000D4018091D3010E945812CD0CF1E0EF1ADE
:10496000F108B9F621960D5F1F4FCE30D10549F6FB
:104970000E9481228091E50191E0D91206C0811147
:1049800002C08DE007C0815005C090E00196BE01D5
:104990000E94C2328093E501DF91CF911F910F9168
:1049A000FF90EF90DF90CF90BF900895EF92FF922D
:1049B0001F93CF93DF93EC0188EEE82E81E0F82E71
:1049C00010E08C8197014091D5016091D401810F55
:1049D0000E9458121E5E83E0E80EF11C1C3F89F70E
:1049E0000E9481229A818C8190FF02C08F5F01C05A
:1049F00081508C83DF91CF911F91FF90EF900895AC
:104A0000EF92FF920F931F93CF93DF937C018B0163
:104A10000E94751A811119C0E70101151105A1F055
:104A20008091E80085FD0AC08091E8008E77809330
:104A3000E8000E94751A882381F307C0899180934A
:104A4000F10001501109E9CF80E0DF91CF911F9172
:104A50000F91FF90EF9008951F93CF93DF93CDB701
:104A6000DEB7AA970FB6F894DEBF0FBECDBFE7E85A
:104A7000F2E08FE892E02091F10021938E179F07DA
:104A8000D1F780918802833009F460C030F481301E
:104A900071F0823009F49AC0B1C08A3009F486C03E
:104AA0008B3009F46BC0893009F0A8C020C0809118
:104AB0008702813A09F0A2C08091E800877F809345
:104AC000E80080918B0290918C02892B21F460E2A6
:104AD00083E692E003C060E080E090E070E00E9436
:104AE000FC1A8091E8008B778093E80087C0809162
:104AF0008702813209F082C080918B0290918C02F2
:104B0000029708F07BC08091E800877F8093E800DF
:104B10008091E80082FD05C0809185028111F8CF67
:104B20006DC02091F3008091F20090E0922B0297EB
:104B300029F48091F1008B7F813021F48091F10084
:104B4000809362028091E8008B7754C08091870245
:104B5000813A09F053C080918B0290918C02892B8D
:104B600009F04CC08091E800877F8093E800809135
:104B7000E80080FFFCCF80911C0137C08091870244
:104B80008132E1F580918B0290918C02892BB1F5F5
:104B90008091E800877F8093E8000E94A81A8091A6
:104BA000890280931C010E94CA2B28C08091870231
:104BB000813221F58091E800877F8093E8000E9490
:104BC000A81A80918A028093610218C0809187029E
:104BD000813AA1F48091E800877F8093E80080917A
:104BE000E80080FFFCCF809161028093F10080910A
:104BF000E8008E778093E8000E94A81A8091E80070
:104C000083FFD7C18091870290918802492F50E09D
:104C10004A30510508F0CDC1FA01E855FF4F0C9418
:104C2000D632803821F0823809F0C3C108C08091A3
:104C3000830290918402992389F082600FC0809151
:104C40008B028F70873008F0B4C18093E9008091A7
:104C5000EB0085FB882780F91092E9009091E8002D
:104C6000977F9093E8008093F1001092F1006FC15C
:104C7000282F2D7F09F09DC1882319F0823061F023
:104C800098C180918902813009F093C1933009F075
:104C900080E0809384022EC08091890281112AC015
:104CA00080918B028F702FEF280F263008F081C182
:104CB0008093E9002091EB0020FF1CC0933021F489
:104CC0008091EB00806214C09091EB009061909312
:104CD000EB0021E030E0A90102C0440F551F8A9586
:104CE000E2F74093EA001092EA008091EB008860BE
:104CF0008093EB001092E9008091E800877F809319
:104D0000E8000E94A81A55C1811153C1109189026F
:104D10001F778091E3008078812B8093E30080915E
:104D2000E800877F8093E8000E94A81A8091E8003D
:104D300080FFFCCF8091E30080688093E300111135
:104D400002C082E001C083E08093850232C18058B6
:104D5000823008F02EC12091890230918A022C3DC8
:104D600053E0350779F583E08A838AE289834FB778
:104D7000F894DE01139620E03EE051E2E32FF0E0EC
:104D800050935700E49120FF03C0E295EF703F5F1E
:104D9000EF708E2F90E0EA3010F0C79601C0C096F9
:104DA0008D939D932F5F243149F74FBF8091E80089
:104DB000877F8093E8006AE270E0CE0101960E944E
:104DC000FC1AB4C080918B0290918C02432F55271E
:104DD00043305105A9F068F44130510509F4F8C099
:104DE0004230510509F0E5C08BE590E0E6EAF0E1DC
:104DF0004BC04132510529F14232510589F1D9C0E8
:104E0000C901992781309105A1F058F0029709F066
:104E1000D0C0E3E1F1E1E4918E2F90E0E3E1F1E134
:104E200030C0E3E4F1E1E4918E2F90E0E3E4F1E1BE
:104E300028C0E7E2F1E1E4918E2F90E0E7E2F1E1B2
:104E400020C08330910508F0B4C0880F991FFC0181
:104E5000EC59FE4F0190F081E02D89E090E014C004
:104E60008330910508F0A5C0FC01EE0FFF1FE25A48
:104E7000FE4F0190F081E02DDC01A55ABE4F8C91D0
:104E800090E0009709F495C02091E800277F2093D7
:104E9000E80020918D0230918E022817390708F41E
:104EA000C90140E0009789F120918502222309F48D
:104EB0003DC02530D9F12091E80023FD37C0209175
:104EC000E80022FD2FC02091E80020FFEBCF4091A9
:104ED000F3002091F20030E0342B009759F0283095
:104EE000310540F444914093F100319601972F5FD2
:104EF0003F4FF3CF41E02830310509F040E02091E9
:104F0000E8002E772093E800CDCF4111CDCF0AC025
:104F100080918502882351F0853041F08091E8002E
:104F200083FD04C08091E80082FFF2CF8091E80009
:104F30008B778093E8003DC08038D9F58091E800F8
:104F4000877F8093E800809186028093F1008091B2
:104F5000E8008E77D4CE81112CC080918902909187
:104F60008A02992702972CF58091E800877F809329
:104F7000E80010918902109386020E94A81A11116C
:104F800006C08091E30087FD02C081E001C084E09B
:104F90008093850242E061EC81E00E94C71A42E200
:104FA00061EC82E00E94C71A42E261EC83E00E9459
:104FB000C71A8091E80083FF10C08091E800877FC6
:104FC0008093E8008091EB0080628093EB0005C045
:104FD00082E190E0E1E0F1E157CFAA960FB6F894B4
:104FE000DEBF0FBECDBFDF91CF911F9108951F92FD
:104FF0000F920FB60F9211242F933F934F935F930D
:105000006F937F938F939F93AF93BF93CF93DF93D0
:10501000EF93FF93C091E900CF708091EC00D82FFF
:10502000D17080FDD0E81092E9008091F000877F78
:105030008093F00078940E942C251092E9008091D2
:10504000F00088608093F000CD2BCF70C093E90012
:10505000FF91EF91DF91CF91BF91AF919F918F9190
:105060007F916F915F914F913F912F910F900FBE64
:105070000F901F901895E8EDF0E080818E7F80837F
:105080001092E2001092DA001092E100A0EEB0E07F
:105090008C9181608C9380818F77808319BCA7ED80
:1050A000B0E08C918E7F8C9380818F7E8083109274
:1050B00060020895CF92DF92EF92FF920F931F93B9
:1050C000CF93DF93C8EDD0E088818F7E8883E7EDB2
:1050D000F0E080818160808384E082BF81E0809302
:1050E000600288818E7F888302EE10E0F8011082D2
:1050F0001092DA0081EEC82ED12CF6011082888140
:105100008F77888388818068888388818F7D888372
:1051100019BC10928502109286021092840210929D
:10512000830290EEE92EF12CF70180818B7F808342
:1051300088818160888342E060E080E00E94C71A35
:10514000F60180818E7F8083F80180818160808379
:10515000808188608083F70180818E7F8083888151
:1051600080618883DF91CF911F910F91FF90EF9025
:10517000DF90CF9008951F920F920FB60F921124D7
:105180002F933F934F935F936F937F938F939F934F
:10519000AF93BF93EF93FF938091E10082FF49C0EB
:1051A0008091E20082FF45C08091E1008B7F809377
:1051B000E10020915F022F5F822F62E30E94943210
:1051C000992319F020935F0234C010925F028091FE
:1051D0005E02882371F180918502843041F58091CF
:1051E000E9008F702091EC00922F917020FD90E8E3
:1051F000892B93E09093E9009091EB0090FF14C00D
:105200009091EE0097FF10C09091E80095FF03C0C9
:105210001092F100F9CF9091E80090FF05C09091B5
:10522000E8009E779093E8008F708093E9001092D9
:105230005E028091DA0080FF32C08091D80080FF4A
:105240002EC08091DA008E7F8093DA008091D900A1
:1052500080FF1CC080E189BD82E189BD09B400FEE8
:10526000FDCF81E08093850282E990E10E943F09B1
:1052700080916002811113C00E943B280E945A282D
:105280008091E20084608093E20009C019BC109212
:10529000850286E990E10E943F09109260028091A8
:1052A000E10080FF1BC08091E20080FF17C0809169
:1052B000E2008E7F8093E2008091E2008061809323
:1052C000E2008091D80080628093D80019BC85E00C
:1052D000809385028AE990E10E943F098091E10074
:1052E00084FF32C08091E20084FF2EC080E189BD3E
:1052F00082E189BD09B400FEFDCF8091D8008F7D89
:105300008093D8008091E1008F7E8093E1008091AE
:10531000E2008F7E8093E2008091E20081608093C2
:10532000E20080918602882311F084E007C080911A
:10533000E30087FD02C081E001C083E08093850225
:105340008EE990E10E943F098091E10083FF2BC02C
:105350008091E20083FF27C08091E100877F8093E6
:10536000E10082E080938502109286028091E10044
:105370008E7F8093E1008091E2008E7F8093E20037
:105380008091E20080618093E20042E060E080E092
:105390000E94C71A8091F00088608093F00082EA32
:1053A00090E10E943F09FF91EF91BF91AF919F91D2
:1053B0008F917F916F915F914F913F912F910F90BE
:1053C0000FBE0F901F9018950E942E30292F2F701E
:1053D000E92FE295EF704E2F50E0FA013297EE3050
:1053E000F105B8F4EE54FF4F0C94D632803F99F09B
:1053F00018F4883E70F40FC0843F59F40CC0883E06
:1054000050F0813F31F407C0822F869586958695AE
:10541000089580E0089581E008959F92AF92BF9231
:10542000CF92DF92EF92FF920F931F93CF93DF9370
:10543000CDB7DEB761970FB6F894DEBF0FBECDBF14
:105440008C0185E0F801DE011D9601900D928A9590
:10545000E1F7F80190818181E2803091B0026091A2
:10546000B1024091B3025091B4024115510531F09F
:105470006F3F31F421E03F3F19F403C021E001C048
:1054800020E0F22FF1709F2E20FD23C1F801C38090
:10549000D48020EBA22E22E0B22EF090B202F601D0
:1054A000E41BF50BFF2009F4CEC02091B502E83CC7
:1054B000F10508F099C0422F407F09F051C06813F0
:1054C00011C039130FC0FE2CE1100CC02F702061E9
:1054D0002093B502C5010E94E1098091B502F8014F
:1054E000858337C1CD2831F08F3F31F421E09F3FD4
:1054F00019F403C021E001C020E020FD03C021E039
:105500002E2502C020E030E0F22FF170FF2E20FFA8
:105510001DC02091E7024091B60256E0241709F41D
:10552000F6C030E0529FF001539FF00D1124E95472
:10553000FD4F6181861306C06081961303C06281AE
:10554000E61204C02F5F3F4F2770E8CFFE2CEE20FD
:1055500009F4FFC08091B50281608093B50250C00C
:10556000681307C0391305C0E11003C0F801258393
:105570008DC09D878E878D859E850E94E429882316
:1055800069F1EE2059F12091B502822F82958F703A
:1055900090E0029774F08091B0029091B1029887E8
:1055A0008F831986DB86CA862C87CE0107960E94D8
:1055B000E10986E0F801A0EBB2E001900D928A9536
:1055C000E1F70E9411310DC06817E1F09D878E87C9
:1055D0008D859E850E94E42981111EC0C8010E940C
:1055E000E109FF24F394B5C0422F407F69F780EBB7
:1055F00092E00E94E10986E0F50111928A95E9F7AF
:10560000F12CA7C03913E2CFE110E0CFF8012583D8
:10561000C8010E94E10957C0EE2001F32091B502B4
:10562000822F82958F7090E002971CF28091B002D9
:105630009091B1029A8389831B82DD82CC822E8372
:10564000CE010196B4CFE83CF105E8F5FE2CEE2042
:1056500029F2681327C0391325C02091B50220FD17
:1056600018C0822F82958F70482F50E04115510548
:1056700081F0F80125834F30510541F08F5F982F5D
:105680009295907F822F8F70892B8583C8010E940D
:10569000E10986E0F801A0EBB2E001900D928A9555
:1056A000E1F757C09D878E878D859E850E94E429EE
:1056B00081117FCF8091B50281608093B502C801CE
:1056C0000E94E10946C086E0F50111928A95E9F74A
:1056D00040C0EE2009F482CF9D878E878D859E8500
:1056E0000E94E429F82E882309F478CF86E0F80197
:1056F000A0EBB2E001900D928A95E1F78091B002A3
:105700009091B1020E942E300E94113122C09D87DB
:105710008E878D859E850E942E30292F22952F7091
:10572000223028F49F7039F0811105C00BC024305D
:1057300028F49F7049F4805E883020F0C8010E94F0
:10574000E1099F2CF92C05C0F8019581907F99F70C
:10575000F9CF8F2D61960FB6F894DEBF0FBECDBF87
:10576000DF91CF911F910F91FF90EF90DF90CF903D
:10577000BF90AF909F90089580E090E00E94BC2081
:1057800080E090E00E94A62010921703109216036A
:105790000C943C2F1092180380911C01882331F047
:1057A0008091A80187FF02C08EE101C086E0E2E996
:1057B000F2E0DF011D928A95E9F70C94BC2B882357
:1057C00041F08095909118038923809318030C94DD
:1057D0003C2F0895882339F090911803892B8093EA
:1057E00018030C943C2F0895882309F458C0682F9F
:1057F000823869F40E94D22081FF51C069E380E9B8
:1058000092E00E94742E0E943C2F69E30EC0833800
:1058100091F40E94D22080FF42C063E580E992E0CB
:105820000E94742E0E943C2F63E580E992E00E9462
:105830003B2E0C943C2F843869F40E94D22082FFC6
:105840002EC067E480E992E00E94742E0E943C2FF3
:1058500067E4EBCF8CEF860F813A38F380E2860F56
:10586000883070F4677081E090E001C0880F6A951D
:10587000EAF7809590911803892380931803D9CF74
:105880008BE5860F833020F480E090E00C94BC2000
:10589000685A673120F480E090E00C94A6200895C7
:1058A000CF93882309F4EEC0C82F8238B1F40E9448
:1058B000D22081FDE7C069E380E992E00E94742E66
:1058C0000E943C2F2FEF81EE94E0215080409040C9
:1058D000E1F700C0000069E317C08338E1F40E94DB
:1058E000D22080FDCFC063E580E992E00E94742E53
:1058F0000E943C2F2FEF81EE94E021508040904099
:10590000E1F700C0000063E580E992E00E943B2ED1
:10591000CF910C943C2F8438B1F40E94D22082FDA8
:10592000B1C067E480E992E00E94742E0E943C2F8F
:105930002FEF81EE94E0215080409040E1F700C0CD
:10594000000067E4E1CF8CEF8C0F813AA8F58091DD
:105950008F02882319F0813051F02BC080911803F9
:10596000823209F057C08C2F0E94A01451C0809140
:1059700018038232C1F3C43191F018F4CB3029F00E
:1059800011C0C93261F0C83369F487E491E10E9423
:105990003F0984E691E10E943F0981E008C010922E
:1059A0008F0204C082E691E10E943F0980E081708D
:1059B0002FC010928F022EC080E28C0F883068F4C6
:1059C000C77081E090E001C0880FCA95EAF7909116
:1059D0001803892B809318039BCFEBE5EC0FE33082
:1059E00040F4F0E0E659FE4F808190E0CF910C94B6
:1059F000BC20C85AC73108F045C0EC2FF0E0EE0FCC
:105A0000FF1FE359FE4F80819181CF910C94A62016
:105A1000811138C080911C018823E1F08091A80198
:105A200087FF18C0EC2FE695E695E695F0E0E05785
:105A3000FD4F8281282F30E04C2F477081E090E0AD
:105A400002C0880F991F4A95E2F782239323892B7E
:105A500061F412C0E2E9F2E088E992E02191C21714
:105A600021F08E179F07D1F707C06C2F80E992E0D5
:105A70000E943B2E0E943C2F6C2F80E992E00E94F6
:105A8000742E46CFCF9108950895809162020895B3
:105A9000CF93DF9320911C01222339F02091A8019C
:105AA00027FF03C060E222E002C068E021E020930B
:105AB000E9002FEF3091E800215035FD06C035EDAB
:105AC0003A95F1F700002111F5CF2091E80025FF6C
:105AD0001DC0EC0180911C01811105C040E050E027
