:100000000C9477020C94AF020C94AF020C94AF02E4
:100010000C94AF020C94AF020C94AF020C94AF029C
:100020000C94AF020C94AF020C94AF020C94992084
:100030000C944A210C940B1B0C94AF020C94AF024D
:100040000C94AF020C94AF020C94AF020C94911B71
:100050000C94AF020C94AF020C94AF020C94AF025C
:100060000C94AF020C94AF020C94AF020C94AF024C
:100070000C94AF0229001E001F0020002100220066
:10008000230024002500260027002D002E00350027
:100090002A002B0014001A000800150017001C008D
:1000A00018000C00120013002F0030000000310077
:1000B000390004001600070009000A000B000D00BB
:1000C0000E000F0033003400000028000000E100A3
:1000D00000001D001B0006001900050011001000A3
:1000E0003600370038000000E5000151E000E30071
:1000F000E20000000000000000002C0000000000F2
:10010000E600E70000006500E400005C3A003B0008
:100110003C003D003E003F004000410042004300E3
:100120004400450001000100010001000100010040
:1001300001000100010001000100010001000100B7
:1001400001000000010001000100010001000100A8
:100150000100010001000100010001000100000098
:100160000100000001000000010001000100010089
:100170000100010001000100010001000000010078
:10018000010001000100010000000000000000006B
:10019000010000000000010001000000010001005A
:1001A0000100010001000100010001000100010047
:1001B0000100010001000100010001000100010037
:1001C0000100010001000100010001000100010027
:1001D0000100010001000100000001000100010018
:1001E0000100010001000100010001000100010007
:1001F00001000100000001000000010000000100FA
:1002000001000100010001000100010001000100E6
:1002100001000000010001000100010001000000D8
:1002200000000000000001000000000001000100CB
:1002300000000100010001000100010001000100B7
:1002400001000100010001000100010001000100A6
:100250000100010001000100010001000100010096
:100260000100010001000100010001000100000087
:100270000100010001000100010001000100010076
:100280000100010001000100010000000100000068
:100290000100000001000100010001000100010057
:1002A0000100010001000100000001000100010047
:1002B000010001000000000000000000010000003B
:1002C000000001000100000001000100000000002A
:1002D000000000002A2B28000000000000000000A1
:1002E0000000000000000029000000002C1E342047
:1002F000212224342627252E362D3738271E1F206D
:100300002122232425263333362E37381F040506B1
:100310000708090A0B0C0D0E0F10111213141516F5
:100320001718191A1B1C1D2F3130232D35040506F3
:100330000708090A0B0C0D0E0F10111213141516D5
:100340001718191A1B1C1D2F3130354C00000000E6
:10035000000000000000000000000000000000009D
:10036000000000000000000000000000000000008D
:100370007E0F00D4FFFFFFC7000000780A03430090
:10038000690065006C000000160343006800690006
:1003900063006B0065006E004D0061006E000000A0
:1003A0000403090409025B00030100A0FA09040028
:1003B0000001030101000921110100012240000791
:1003C000058103080001090401000203000000097F
:1003D00021110100012222000705820320000107EC
:1003E00005030320000109040200010300000009C5
:1003F0002111010001227B00070584032000011266
:10040000010002000000081CC401000100010200FC
:10041000010660FF0961A1010962150026FF009530
:1004200020750881020963150026FF0095207508D4
:100430009102C005010902A10185020901A100057F
:100440000919012908150025019508750181020582
:1004500001093009311581257F950275088106094A
:10046000381581257F950175088106050C0A38022B
:100470001581257F950175088106C0C00501098099
:10048000A101850319012AB700150126B7009501BE
:1004900075108100C0050C0901A101850419012A0C
:1004A000A002150126A002950175108100C005016A
:1004B0000906A101050719E029E71500250195089E
:1004C000750181029501750881010507190029FF51
:1004D000150026FF009506750881000508190129F9
:1004E00005950575019102950175039101C01124CF
:1004F0001FBECFEFD4E0DEBFCDBF04B603FE18C0F1
:100500008091710290917202A0917302B091740275
:100510008730904BA740B04B59F410927102109263
:1005200072021092730210927402E0E0F8E30995EF
:1005300011E0A0E0B1E0EAE8F7E402C005900D9216
:10054000AE39B107D9F722E0AEE9B1E001C01D92A2
:10055000A137B207E1F70E9475120C949A230C940C
:10056000000081E0089581E008950C94B30208959D
:100570000C94B7021F93CF93DF9300D000D00F925B
:10058000CDB7DEB749835A836B833091A10189814E
:100590009A8131111DC06623B9F02223A9F00E946F
:1005A0004409182F682F89819A810E94E108698186
:1005B0007A81812F0F900F900F900F900F90DF9105
:1005C000CF911F910C9472180E941809182FEFCF29
:1005D0000E94440969817A81EDCFFC01262F408178
:1005E00051816281738184810C94BA0281E0089503
:1005F000CF93DF93EC0160E00E94ED02BE01DF913A
:10060000CF910C94B802E1E0F0E0DF0102C0AA0F44
:10061000BB1F6A95E2F7BD01DF0102C0AA0FBB1F35
:100620004A95E2F76A2B01C0EE0F2A95EAF7962F5A
:100630009823961302C08E2B0895E0958E2308957B
:10064000242F462F682F8091C0010E9403030C9431
:100650009E080C9416110C94191108950E943A08E2
:100660000E942D032FEF84E39CE0215080409040B6
:10067000E1F700C000000C94B51B0F931F93CF93BC
:10068000DF938C0161E00E94ED02EC01B8010E9451
:1006900076158823D9F1B801CE010E94B5028823CE
:1006A000A9F1B801CE010E94D319882379F1B801CC
:1006B000CE010E946616882349F1B801CE010E943E
:1006C0003D19882319F1F8018281882361F0CA3528
:1006D000FDE5DF0721F170F4C115ECE5DE07A1F0BF
:1006E000CE3DDC45C9F0C801DF91CF911F910F913C
:1006F0000C94B102CB358DE5D807A1F0CC35DD45A2
:1007000091F70E946E0DEFCF0E942E0380E0DF91E3
:10071000CF911F910F9108950E94270EF7CF0E944D
:10072000770DE1CF0E947A0DDECF0E94EF1A0C9474
:1007300078040E947B040C94F31ADF92EF92FF92EC
:100740000F931F93CF93DF93E82FF0E0E453FD4F17
:10075000D490282F26952695269530E0F901E45966
:10076000FC4F0491877010E0082E02C01595079584
:100770000A94E2F701701127F901E45AFC4FE49062
:10078000F12C082E02C0F594E7940A94E2F791E068
:10079000E922FF24F901E45BFC4FC491D0E002C0E0
:1007A000D595C7958A95E2F7C170DD27011511052A
:1007B00019F081EE0E94CD04E114F10419F086EEE7
:1007C0000E94CD048D2D0E94CC05EF2819F086EEF5
:1007D0000E945F05012B19F081EE0E945F05CD2B71
:1007E00051F08CE2DF91CF911F910F91FF90EF902C
:1007F000DF900C94CC05DF91CF911F910F91FF906A
:10080000EF90DF900895EF92FF921F93CF93DF93C5
:10081000EC01162F8881882309F451C0813009F03A
:100820004BC08981813099F47E0122E0E20EF11CF7
:100830008A810E94CC05E7012196812F815050F3D7
:10084000EFE9FFE03197F1F700C00000F7CF823009
:1008500041F47E0182E0E80EF11C8A810E94CD0401
:10086000EACF833041F47E01E2E0EE0EF11C8A8192
:100870000E945F05E0CF843011F02196DDCF2A8100
:10088000229690E080E0FE0131962053330B2A300F
:10089000310548F0019780F2EFE9FFE03197F1F779
:1008A00000C00000F7CF6AE070E00E940523820FCD
:1008B000931F2981EF01E7CF0E949D03BDCFDF91F8
:1008C000CF911F91FF90EF90089560E00C94030486
:1008D00008950C94680481E008950C946B040895C5
:1008E000CF93C82F0E9469048C2FCF910C946D0474
:1008F00080E00C9470040E942F1A0C9470040E94E3
:100900002F1A9091A001981721F08093A0010C94C8
:1009100070040895CF93DF93CDB7DEB72B970FB652
:10092000F894DEBF0FBECDBF4F83588769877A87A3
:100930008B8761110E94BC0C1E821D8285E0FE0126
:100940003796DE01119601900D928A95E1F78C8120
:100950009D81892B89F449815A816B817C818D81AC
:100960009E810E94D90B2B960FB6F894DEBF0FBE66
:10097000CDBFDF91CF91089589819A8189238F3FDF
:1009800051F3CE0101960E94F6028111E4CFEBCF24
:10099000FC01808191810C947109CF93C82F882329
:1009A00009F48BC08238C1F40E942F1A81FD85C0E2
:1009B00089E30E94770C0E94DC0C2FEF81EE94E01B
:1009C000215080409040E1F700C0000089E30E9480
:1009D0007E0CCF910C94DC0C8338A1F40E942F1A6A
:1009E00080FD6BC083E50E94770C0E94DC0C2FEF2A
:1009F00081EE94E0215080409040E1F700C000007B
:100A000083E5E5CF8438A1F40E942F1A82FD55C0FA
:100A100087E40E94770C0E94DC0C2FEF81EE94E0BB
:100A2000215080409040E1F700C0000087E4CFCF24
:100A30008CEF8C0F813A90F46C2F80910201909191
:100A400003010E94921A882329F08C2F0E947E0CA9
:100A50000E94DC0C8C2F0E94770CBBCF80E28C0FA5
:100A6000883048F4C77081E001C0880FCA95EAF762
:100A70000E949F0CAECFEBE5EC0FE33040F4F0E0CA
:100A8000E95BFE4F808190E0CF910C94541AE8E529
:100A9000EC0FE73150F4F0E0EE0FFF1FE75EFE4F82
:100AA00080819181CF910C946A1AC03F30F08C2FD5
:100AB0000E940213CF910C94D513CF9108958823EF
:100AC00009F452C0823871F40E942F1A81FF4CC081
:100AD00089E30E94770C0E94DC0C89E30E947E0C63
:100AE0000C94DC0C833859F40E942F1A80FF3CC010
:100AF00083E50E94770C0E94DC0C83E5EFCF8438FD
:100B000059F40E942F1A82FF2FC087E40E94770CAD
:100B10000E94DC0C87E4E2CF9CEF980F913AF0F250
:100B200090E2980F983050F4877091E001C0990FCF
:100B30008A95EAF7892F0E94A50CD2CF9BE5980FE2
:100B4000933020F490E080E00C94541A98E5980FCC
:100B5000973120F490E080E00C946A1A803F20F0F6
:100B60000E945C130C94D51308951F93CF93DF93C9
:100B7000182FEB010E94CD04209731F4812FDF91D3
:100B8000CF911F910C945F058FE99FE00197F1F7DA
:100B900000C000002197F0CF70E060E0893311F4CD
:100BA00060E570E00C94B505882321F00E949F0C4D
:100BB0000C94DC0C0895882321F00E94A50C0C9461
:100BC000DC0C0895BF92CF92DF92EF92FF920F93C9
:100BD0001F93CF93DF936C01D62FC72FFC01128197
:100BE000F580F2949FE0F9220E94950CE82E88236C
:100BF000B9F0E12E1123A1F08C2F807F803421F0F9
:100C000080E28D0F8830D0F080914B0282FD16C0BB
:100C100082E00E943D0D0E94950C91E0E82EE926AD
:100C2000BC2EB2948FE0B822FBE0FB1508F468C03C
:100C3000EB2DF0E0E456FC4D0C942A23E12CF0CF90
:100C40000C2F0F70C07F11F00295007F112399F0D7
:100C5000002359F080E28D0F883010F0D11107C0C9
:100C6000802F0E949F0C0E94DC0C8D2F41C0802F92
:100C70000E94AF0CF8CF8D2F0E945F05002309F46E
:100C80003FC080E28D0F883010F0D11104C0802F5A
:100C90000E94A50C03C0802F0E94B50C0E94DC0CA2
:100CA0002FC00C2F0F70C07FC03211F00295007F53
:100CB000DD2381F0D13009F469C0112309F473C038
:100CC000FF2009F469C0F601858180FFCECF8F70C7
:100CD000858362C080914B0282FF38C0112359F096
:100CE000002329F0802F0E949F0C0E94DC0C80E0E2
:100CF0000E94CD0405C080E00E945F050111C7CFAE
:100D0000EB2DE850FF0B349720F40E942F1A0E941D
:100D10007004EE2009F44DC10E94910C80FD49C180
:100D2000F60112820E948B0C0E94AF08C6010E943D
:100D3000FA070E948B0CDF91CF911F910F91FF90CA
:100D4000EF90DF90CF90BF900C94BA08112389F0F8
:100D5000F11006C00E94BF0C802B0E94D405D0CF9A
:100D600021E0F212F7CF0E94BF0C802B0E94C50C2D
:100D7000C7CFF11006C00E94D20C802F0E94DB0565
:100D8000BFCF31E0F31609F4BBCFF5CF112331F01B
:100D900085E08F1508F4B4CF802FDFCF94E09F1546
:100DA00008F4AECFEACFFF2041F3D93349F4FFEF87
:100DB00027EE33E0F15020403040E1F700C0000062
:100DC0008D2F0E945F059CCF8C2F86958695837012
:100DD00069F0813009F094CF8D2F9C2F9370111101
:100DE00002C090E080E00E946A1A8ACF8D2F9C2F6B
:100DF0009370111102C090E080E00E94541A80CFDD
:100E00008D2F112329F00E9402130E94D51378CF51
:100E10000E945C13FACF8C2F837079F5111170CF7B
:100E20004D2F429546954770440F440F8D2F8F707C
:100E3000042E01C0880F0A94EAF72D2F2071D4FFE9
:100E400007C02FE030E001C0220F4A95EAF7209555
:100E5000C695C695C370822BC23049F058F4C13094
:100E600019F00E9490084CCF0E948B0849CF0E9435
:100E7000950846CF0E94890843CF8695112311F02B
:100E80008C2F8170882309F43BCF4D2F42954695D6
:100E90004770440F440F8D2F8F70042E01C0880FB0
:100EA0000A94EAF72D2F2071D4FF07C02FE030E01D
:100EB00001C0220F4A95EAF72095C695C695C370E2
:100EC000822BC23049F058F4C13019F00E94D60884
:100ED00017CF0E94D10814CF0E94DB0811CF0E94C7
:100EE0009E080ECFCF70112329F08C2F0E94AF08DF
:100EF0008D2F33CF8D2F0E94DB058C2F0E94BA08D7
:100F0000FFCED23F51F160F4D03FB9F0D13F81F034
:100F1000112309F449C0F110A8CE8C2F8F7121C084
:100F2000D33F11F1D43FA1F780914B0282FF26C03D
:100F30008C2F8F71112311F314C0112349F084E019
:100F40008F1508F4DDCE8C2F8F710E94C608D8CE85
:100F500095E09F1508F4D4CEF6CF8C2F8F71111128
:100F6000CDCF0E94AF08CCCE112329F08C2F8F71EA
:100F70000E94A708C5CE0E94A408C2CE112349F042
:100F8000CF718C2F0E94AF0863E08C2F0E94220D3E
:100F9000B7CE81E00E943D0DE1E0EF1508F0B0CE44
:100FA00082E00E943D0DACCEF110FFCE8C2F8F71F0
:100FB000A5CFDF91CF911F910F91FF90EF90DF9020
:100FC000CF90BF9008950F931F93CF93DF93EC01C1
:100FD000688179818A810E947B098C010E94E008E6
:100FE0000E948808B801CE01DF91CF911F910F9127
:100FF0000C94E205CF93DF93EC018B819C81892BCC
:1010000029F08881998189238F3F59F4DF91CF910D
:101010000895CE010E94E307CE01DF91CF910C9499
:10102000F802CE010E943D038111F3CF0E94950C7E
:10103000882361F38A81882349F380914B0282FDE2
:10104000E5CF82E0DF91CF910C943D0D90E080E000
:101050000E94541A90E080E00E946A1A0E94BC0C20
:101060000E94DC0C0E9406150C94D5130E94850C7E
:101070000C9426080E94AC0C0C94360892959F7034
:10108000963091F058F4925F9F70923058F4803F00
:1010900019F030F4883E30F481E008959A5FF4CF7F
:1010A000843FD1F380E00895883EB0F3813FD1F7CB
:1010B000F3CFFC01808191810E9471090C943E085C
:1010C000CF93DF9300D000D00F92CDB7DEB70F9053
:1010D0000F900F900F900F90DF91CF910895CF93C5
:1010E000DF9300D000D000D0CDB7DEB726960FB684
:1010F000F894DEBF0FBECDBFDF91CF910895089564
:101100000C947F080E9480088093C1010C942608EB
:1011100008950C9482089091C101892B0C94820847
:101120009091C10189230C9482089091C101892773
:101130000C9482080C947F080C949A080E949C08D6
:101140008093C0010C94260880E00C949E0891E0E6
:1011500001C0990F8A95EAF7892F0C949E0821E027
:1011600030E001C0220F8A95EAF78091C001822BFE
:101170000C949E0821E030E001C0220F8A95EAF726
:1011800020958091C00182230C949E0821E030E0DC
:1011900001C0220F8A95EAF78091C00182270C9442
:1011A0009E089091C001892B0C949E089091C001DB
:1011B00089230C949E089091C00189270C949E0865
:1011C0000895CF93DF93282F362F892F6FE00E9449
:1011D000FC22820F982F9770E1E001C0EE0F9A95E4
:1011E000EAF786958695869590E063E070E00E9428
:1011F0000523DC01AE55BE4F50E040E0632F70E0A8
:101200008D91ED0121979B01042E02C03695279503
:101210000A94E2F72170219528272E232827288376
:101220004F5F5F4F4330510559F7DF91CF910895DC
:10123000282F892F6FE00E94FC22820FA82FA77011
:1012400086958695869590E063E070E00E94052380
:10125000FC01EE55FE4F50E040E080E0219130E08F
:101260000A2E02C0369527950A94E2F7217033279B
:10127000042E01C0220F0A94EAF7822B4F5F5F4FC2
:101280004330510559F70895CF92DF92FF920F93A3
:101290001F93CF93DF936C010091C0018091C10136
:1012A000082BC7E0D0E010E0FC2EC8010C2E02C0D5
:1012B000959587950A94E2F780FD0CC02197A0F7D9
:1012C000F12C8F2DDF91CF911F910F91FF90DF9027
:1012D000CF900895B6018C2F0E940310019771F3EF
:1012E000F0CFCF93DF93EC010E944409BE01DF9160
:1012F000CF910C9403101F93CF93DF93EB01909148
:10130000A101992331F0CB01DF91CF911F910C9472
:101310007109882379F0CB010E944409182F682FA6
:10132000CE010E94E108BE01812FDF91CF911F9174
:101330000C940310CB010E941809182FF4CFCF93FF
:10134000DF93C091C2018091C3018C1303C0DF9170
:10135000CF910895D0E0CE0166E070E00E940523B1
:10136000FC01EC53FE4F4081518162817381848185
:1013700095810E946F082196C770E5CF4091F401D6
:101380005091F5016091F6017091F7018091F8019B
:101390009091F9010C946F08FF920F931F93CF93D4
:1013A000DF938091F901807FC1F48091F601882359
:1013B000A1F02091C2010091C3014091F40110916C
:1013C000F501A091F701B091F801F42EF122C0913E
:1013D0000001D0910101021306C0DF91CF911F914E
:1013E0000F91FF90089530E0109719F08FEFF812E9
:1013F00004C02F5F3F4F2770EECFC90166E070E059
:101400000E940523FC01EC53FE4F81818113F1CF33
:1014100080818413EECF82818111EBCF838194810F
:101420008A1B9B0B8C179D0720F78091F9018F7009
:1014300080618093F901C90166E070E00E94052394
:10144000FC01E753FE4F90819F709061908384EF81
:1014500091E00E94FA07DF91CF911F910F91FF90C9
:101460000C949F09AF92BF92CF92DF92EF92FF92BE
:101470000F931F93CF93DF93CDB7DEB761970FB66E
:10148000F894DEBF0FBECDBF8C0185E0F801DE0110
:101490001D9601900D928A95E1F7F801E28084EFA4
:1014A000C82E81E0D82E6091F7017091F801611586
:1014B000710509F462C19091F4013091F501892F11
:1014C00083238F3F09F459C140812181A380B480D7
:1014D000F090F601F501E61BF70BBF01E09100016A
:1014E000F0910101FF2009F4F8C08091F901582F13
:1014F000507F6E177F0708F0B0C051117AC0FE2CE4
:10150000321323C0941321C0E1101FC08F7080617B
:101510008093F9010E94BE09C6010E94FA078091DA
:10152000F901F80185838F2D61960FB6F894DEBF1F
:101530000FBECDBFDF91CF911F910F91FF90EF9024
:10154000DF90CF90BF90AF900895AB2829F0842F03
:1015500082238F3F09F02AC180E0F82FF170DF2E3F
:10156000E091C2013091C30180FD20C0EE20D9F28C
:101570008091F90181608093F901F12CD4CFF0E0E2
:10158000CF0166E070E00E940523DC01AC53BE4F42
:1015900011968C911197821307C08C91841304C00B
:1015A00012968C918E11E2CF3196E770E313E7CF5C
:1015B0004D872E878D859E850E947109292F229542
:1015C0002F70223050F0243078F49F7051F0F801E1
:1015D0009581907F31F4D12C0AC09F7011F088233F
:1015E000D1F3805E8830B8F3C8010E94FA07FD2C61
:1015F0009ACF321306C0941304C0F801EE2009F408
:1016000088C0C8010E945908882319F1EE2009F109
:101610008091F901803270F02091F4013091F50150
:1016200038872F831986BB86AA868C87CE010796BA
:101630000E94FA0786E0F801A4EFB1E001900D9254
:101640008A95E1F70E94CC090E94BE09FF24F39419
:101650006ACFC8010E94FA07F9CF511114C07A2D40
:10166000B98AA88A522F6E2D89890E94600884EF5A
:1016700091E00E94FA0786E0F60111928A95E9F757
:101680000E94BE097ACF32130FC094130DC0E1102F
:101690000BC0F8018583C8010E94FA0786E0F601B5
:1016A00011928A95E9F73FCFC8010E945908882313
:1016B00081F2EE2071F28091F901803208F4BACF04
:1016C0002091F4013091F5013A8329831B82BD8278
:1016D000AC828E83CE010196ABCF6E177F0708F0E8
:1016E0003EC0FE2CEE2009F4B4CF32132AC094136E
:1016F00028C08091F90180FD1BC0982F907FC1F018
:10170000F8018583903F31F0982F907F905F8F7024
:10171000892B8583C8010E94FA0786E0F801A4EFAF
:10172000B1E001900D928A95E1F70E94BE09FBCECF
:1017300086E0F801A4EFB1E001900D928A95E1F7FF
:10174000F2CEC8010E945908811174CF8091F9012D
:1017500081608093F901C8010E94FA07E4CE7A2DD6
:10176000B98AA88A522F6E2D89890E94600886E066
:10177000F60111928A95E9F7D8CFEE2009F469CFE6
:10178000C8010E945908F82E882309F462CF86E028
:10179000F801A4EFB1E001900D928A95E1F784EF92
:1017A00091E00E94C8040E94CC09BFCF81E08E2541
:1017B000D4CECF93DF93CDB7DEB72C970FB6F89486
:1017C000DEBF0FBECDBF4F83588769877A878B876F
:1017D0009C87CE0107960E94320A8823D1F08A8521
:1017E0009B85892B39F04F815885842F85238F3F26
:1017F00009F076C08091C2019091C301891349C05C
:101800002C960FB6F894DEBF0FBECDBFDF91CF91FF
:10181000089586E0FE013796DE01119601900D9243
:101820008A95E1F78A859B85892B21F38F8198859D
:1018300089238F3FF9F28091C30190E09C012F5FD3
:101840003F4F277033274091C2014217130671F4AE
:101850000E943A081092C3011092C20186E0E4EFA0
:10186000F1E0DF011D928A95E9F7C4CF66E070E0F0
:101870000E940523DC01AC53BE4F96E0FE01319679
:1018800001900D929A95E1F72093C3010E949F0960
:10189000B1CF90E066E070E00E9405238C539E4F2C
:1018A0000E94320A882309F4ABCF8091C20190E0F4
:1018B00066E070E00E940523FC01EC53FE4F40817E
:1018C000518162817381848195810E946F0880912A
:1018D000C20190E00196877099278093C2018ACF58
:1018E00069857A858B859C850E946F0883CF682FD8
:1018F00080910201909103010C94C81A682F809185
:101900000201909103010C94CA1A809102019091F6
:1019100003010C94CC1A80910202859585958595DA
:101920000895809102028770089590910202977045
:1019300081E009F480E0089580910D02089590916E
:101940000D02892B80930D020895809590910D02D0
:10195000982390930D02089510920D02089590918E
:101960000C02892B80930C020895809590910C02B3
:10197000982390930C02089510920C020895809180
:101980000302089508950C94C20C90914B0292FDAD
:1019900008C090910302981721F0809303020C94E1
:1019A000C30C089580910302882329F0109203024A
:1019B00080E00C94C30C0895CF93DF93E091020173
:1019C000F091030180910D028083E0910201F0917A
:1019D0000301808190910C02892B808390910302F6
:1019E000992381F0E0910201F09103018081892B1C
:1019F000808380910201909103010E94801A8111DD
:101A00000E94D20CC0910201D091030148E050E045
:101A10006AEF71E0CE010E944B23892B69F088E0C8
:101A2000FE01AAEFB1E001900D928A95E1F7CE0197
:101A3000DF91CF910C943B1ADF91CF9108950895D7
:101A40000C941F0D90914B0292FD10C0982F990F8E
:101A5000990F990F962B909302020E94AF088091E4
:101A600002028595859585950C94200D0C94AF0800
:101A70001092020280E00C94200D90910202809559
:101A8000892380930202282F277091F4282F082E93
:101A9000000C330B9217130659F090914B0292FDF4
:101AA00007C08595859585950E94BA080C94380DD8
:101AB000089590914B0292FB222720F9281769F094
:101AC00080FB92F990934B0280914A0290914B02D5
:101AD0000E94A40D82E00C943D0D089580914B026C
:101AE00082FB882780F991E089270C94590D81E0C9
:101AF0000C94590D80E00C94590D6FEF7FEF90E03E
:101B000080E00C94842390E080E00E946023893E72
:101B10009E4F11F40C94141580E0089582E090E03B
:101B20000C94582383E090E00C945823CF9384E0E6
:101B300090E00E945823C82F82E290E00E94582330
:101B4000982F8C2FCF910895CF93C92F682F84E0C1
:101B500090E00E9466236C2F82E290E0CF910C947B
:101B60006623AB01BC018FE090E00C947823AB01BD
:101B7000BC0183E190E00C94782360E070E0CB013D
:101B80000C94B70D60E070E0CB010E94B10D0C9495
:101B9000BD0D69EE7EEF90E080E00E94842360E05E
:101BA00082E090E00E94662360E083E090E00E9483
:101BB00066231092C10160E084E090E00E946623F9
:101BC00060E082E290E00E94662360E085E090E0C1
:101BD0000E94662360E086E090E00E9466236FEF3B
:101BE00087E090E00E94662340E050E0BA0188E080
:101BF00090E00E94782360E08DE090E00E946623F0
:101C000040E050E0BA0188E190E00E94782360E073
:101C100087E190E00E94662340E050E0BA018CE149
:101C200090E00E94782370E060E080E290E00E9403
:101C3000842340E050E0BA0188E190E00E947823DC
:101C400080E00E942D150E945A150C94C20D0C9430
:101C5000C90D682F8EE090E00C9466230E94761BDD
:101C600060931C0270931D0280931E0290931F02CA
:101C7000609318027093190280931A0290931B02CA
:101C80000895089508950C94420E08950C94450EFD
:101C900081EE90E10E94251A0E94410E0C94430EA1
:101CA00081E008950C94500E089508950E94540EFA
:101CB0000C94550E0E94FB100C946F040E94611B43
:101CC0000E9469150E94CF110E945A0E0C94460E74
:101CD0007F928F929F92AF92BF92CF92DF92EF92BC
:101CE000FF920F931F93CF93DF93CDB7DEB72A9761
:101CF0000FB6F894DEBF0FBECDBF0E94E411A82E30
:101D000081110E942E0E5EE0852E52E0952E10E08D
:101D100000E0702E802F0E941B116C01F401E190F5
:101D2000F1904F01E816F90609F453C080912002A2
:101D300081FD0E942411C7018C259D25B12CEE2424
:101D4000E394F12C9C012E213F21232BE1F10E94F1
:101D5000520E8823A9F0BE827F82CE20DF2081E050
:101D6000CD2809F480E088870E946A1B8160782F63
:101D70009A8789874E815F8168858A850E948A0457
:101D8000000F111FF801E25FFD4F80819181E8266D
:101D9000F926F182E08281E0A11001C080E02A965C
:101DA0000FB6F894DEBF0FBECDBFDF91CF911F916C
:101DB0000F91FF90EF90DF90CF90BF90AF909F90EA
:101DC0008F907F900895B394EE0CFF1CFFE0BF123C
:101DD000B9CF0F5F1F4F0530110509F09ACF8FEF74
:101DE00089838A831B820E946A1B8160782F9D836E
:101DF0008C8349815A816B818D810E948A04CBCF6B
:101E00000E94680E0E94F0130C947F04CF93DF931E
:101E10000E940710EC01811521E5920708F042C0ED
:101E2000811530E5930708F09EC0883E910530F596
:101E3000803E910508F093C0883A910588F4853A70
:101E4000910508F085C08130910509F488C000979C
:101E500009F485C0049708F082C0D0E0C0E07FC0DC
:101E60008F3B9105D0F7C85AD0E0CC0FDD1FC65B81
:101E7000DE4F0990D881C02DD46471C0811540E235
:101E8000940750F4C11581E0D80708F068C0C03F3E
:101E9000D10518F3D06563C081159044F0F2DF706E
:101EA000D06A5DC0811535E5930710F5811544E5CD
:101EB000940708F091C0C11583E5D80708F076C0F3
:101EC000C11522E5D20708F46CC0CE0183709927B2
:101ED00021E030E002C0220F331F8A95E2F7C69559
:101EE000C695D0E0E5E0CC0FDD1FEA95E1F755C0DF
:101EF000811539E59307A8F4811548E5940708F0A2
:101F000070C0C11586E5D80708F0A7CF8C2F0E94B6
:101F10009E10C82FD0E0DC2FCC27CC27DF71D062F9
:101F20001EC081152AE5920708F460C090568115FD
:101F3000904208F092CF8D2F8F710E949E1090E0FA
:101F4000982F882788279F719C012C2BE901E7CFC8
:101F5000C55AD0E0C858DE4FC881D0E0D064CE0169
:101F6000DF91CF910895A4E096958795AA95E1F722
:101F700083702C2F26952695237030E0B5E0220F34
:101F8000331FBA95E1F7382B8C2F8370C1E0D0E076
:101F900002C0CC0FDD1F8A95E2F7C22BD32BDC6881
:101FA000DECFDC2FCC27C16FD06AD9CFCE018370B2
:101FB000992721E030E002C0220F331F8A95E2F713
:101FC000C695C695D0E075E0CC0FDD1F7A95E1F798
:101FD000C22BD32BDA68C3CFD82FCC27C46FD06ADB
:101FE000BECFD82FCC27C06FD06AB9CF8F700E94D8
:101FF0009E1034E0D695C7953A95E1F7CF709C2FA7
:10200000EC01D069ACCF0E9472180C94060F823894
:102010009105B1F1B0F48133910509F475C048F42C
:102020008932910509F469C08A32910509F473C0B7
:1020300008958533910509F459C08933910501F15B
:102040000895833E9105A9F138F4803E9105F9F099
:10205000823E910549F10895863E9105A9F1873E9A
:102060009105C9F1843E910519F520914B0221FF9C
:102070001FC080914A0284FD14C087EE90E008954D
:1020800020914A022370A1F080EE90E00895209103
:102090004A0220FD47C030914B0230FF09C024FFA7
:1020A00044C090E080E004C020914A0222FDF7CFB6
:1020B000089520914A0222FD3BC030914B0230FD31
:1020C000E3CF24FFF5CFEDCF20914A0223FFF0CFDD
:1020D00024FDE7CFD2CF20914A0223FD2CC03091BE
:1020E0004B0231FFEECF84EE90E0089520914A023A
:1020F00025FFDECF89E290E0089520914A0225FF76
:10210000D7CF85E390E0089520914A0226FFD0CFF3
:102110008AE290E0089520914A0226FFC9CF81E328
:1021200090E0089589E390E0089583EE90E00895AB
:1021300082EE90E0089586EE90E0089590914A0234
:1021400092FF06C0282F28712830F9F4877F846019
:1021500093FF06C0282F28712831F1F4877E84610F
:1021600020914B0220FF06C0382F38713830D9F447
:10217000877F816021FF06C0282F28712831D1F484
:10218000877E816194FD877E0895282F24712430F5
:10219000F9F68B7F8860DCCF282F2471243101F77A
:1021A0008B7E8861DDCF382F3171313019F78E7F0A
:1021B0008860E0CF282F2171213121F78E7E886140
:1021C000E1CF80E008950C947D0D0E94E4118FE32F
:1021D0009CE90197F1F700C000000E94E41180E043
:1021E0000E941B1180FF04C00E94E3100C94B51BD9
:1021F00008950C94E5100E94830D811102C00E9485
:10220000270E0E948E0D809320020E94960D9093BF
:102210004B0280934A020E94F9100E94920D0E9484
:1022200089088091C0010C949C0808950C941511A4
:1022300008950C941811E82FF0E0EE0FFF1FEA5AF2
:10224000FD4F808191810895089580EA8A95F1F784
:10225000089500C008950C942511F894E82FE29594
:10226000EF70F0E031A1282F2F7081E090E001C0E5
:10227000880F2A95EAF7982F9095932391A392A11E
:10228000892B82A378940895CF93DF93CAE8D1E095
:1022900089918F3F11F00E942D1181E0CF38D8072E
:1022A000B9F7CBE7D1E089918F3F11F00E942D1152
:1022B00081E0CA38D807B9F7DF91CF910895AF927E
:1022C000BF92DF92EF92FF920F931F93CF93DF9312
:1022D0008C01D62EC62FD0E0CE0186579E4F7C01B2
:1022E000FC0120812F3F09F44DC0F894E22FE295C4
:1022F000EF70F0E031A12F7081E090E001C0880F15
:102300002A95EAF7932F982B91A392A18095892380
:1023100082A378940E942911EBE7F1E04AE851E0AA
:1023200021E030E0B12CA12C61916F3FA9F1A62FE3
:10233000A295AF70B0E090968C9190E06F7002C063
:10234000959587956A95E2F780FD26C0C901A82A70
:10235000B92A220F331F4E175F0731F7F70180812B
:102360008F3F11F00E942D1161E0A114B10409F416
:1023700060E08D2D0E942B11CC0FDD1FC00FD11FEF
:10238000B982A882DF91CF911F910F91FF90EF90BA
:10239000DF90BF90AF90089590E080E0D8CF0E948A
:1023A00044118AE0E6E5F2E0DF01982F1D929A954C
:1023B000E9F7ECE4F2E0DF011D928A95E9F785E0A8
:1023C0000E942F120C942903FF920F931F93CF9317
:1023D000DF93CDB7DEB72A970FB6F894DEBF0FBEF6
:1023E000CDBF8E010F5F1F4F8AE0F80111928A95D1
:1023F000E9F7F12C6F2DC8010E945F11F394F5E00D
:10240000FF12F8CF4AE050E0B8018CE492E00E945D
:102410004B23FF24F394009709F4F12C892B41F00E
:102420008AE0F801ACE4B2E001900D928A95E1F700
:102430002F2D45E066E572E08CE492E00E943012B8
:102440000E942B038F2D2A960FB6F894DEBF0FBE85
:10245000CDBFDF91CF911F910F91FF900895089507
:10246000FF920F931F93CF93DF93F82E092F162F10
:10247000D72FC42F222349F081E0809323020E94AA
:102480006A1B909322028093210280912302882369
:10249000A1F080912102909122020E94821B059757
:1024A00060F0EF2DF02FA12FBD2F90E080E0D0E065
:1024B0008C179D0744F010922302DF91CF911F915A
:1024C0000F91FF900895219131912D933D930196A5
:1024D000EFCF0E948A1D0E945E0E0C94961D0E94F2
:1024E0009A1D0E94000F0C94B41D0E940A1B0E94AA
:1024F000711D0E94480E0E9469120E946F120E9474
:10250000560EFBCF80912A0280FF0DC06091090119
:1025100070E0660F771F60387105A8F561157105C9
:10252000A1F1862F089581FF08C06091090170E034
:10253000660F771F660F771FEECF6091090170E07D
:1025400082FD0BC0809129028823D1F020910801DF
:102550006091090170E0821730F043E0660F771F49
:102560004A95E1F7D8CF90E00E94052333E0880F29
:10257000991F3A95E1F7622F70E00E941623CBCFA6
:1025800068E070E0CECF8FE7089581E008958091F4
:102590002A0280FF0CC06091050170E07595679577
:1025A000759567956115710559F1862F089581FF1D
:1025B00006C06091050170E075956795F3CF609155
:1025C000050170E082FD0CC0609128026623A9F02D
:1025D000209104018091050190E0621730F0BC0168
:1025E00060387105F8F28FE7089570E00E940523C6
:1025F000622F70E00E941623F3CF61E070E0D5CF28
:1026000081E00895803F31F40E9482128195809389
:102610002E020895813F19F40E948212F8CF823F62
:1026200031F40E948212819580932D020895833F98
:1026300019F40E948212F8CF893F29F40E94C71230
:1026400080932F0208958A3F21F40E94C71281953A
:10265000F7CF8B3F31F40E94C712819580933002EF
:1026600008958C3F19F40E94C712F8CF9CE0980F90
:10267000953070F4845F990B21E030E001C0220FA7
:102680008A95EAF780912C02822B80932C02089580
:102690008D3F31F480912A02816080932A0208954F
:1026A0008E3F21F480912A028260F7CF8F3FB9F7E5
:1026B00080912A028460F1CF40912D02803F59F42D
:1026C00080912E0287FF0DC010922E0241110BC087
:1026D0001092290208C0813F81F480912E021816C1
:1026E0009CF3442381F080912F0290913002892B3A
:1026F00009F05AC0109228020895823F49F447FF1A
:10270000F0CF10922D0280912E028111ECCFE0CFFC
:10271000833F19F41416ACF3E4CF90912F02893F54
:1027200029F41916F4F610922F02DBCF8A3F19F420
:1027300097FFD7CFF8CF909130028B3F29F497FFC6
:10274000D0CF10923002CDCF8C3F19F41916CCF3B4
:10275000C8CF9CE0980F953090F4845F990B21E0EE
:1027600030E0B90102C0660F771F8A95E2F7CB010E
:10277000809590912C02892380932C02B2CF8D3FBB
:1027800031F480912A028E7F80932A02AACF8E3F55
:1027900021F480912A028D7FF7CF8F3F09F0A1CFDE
:1027A00080912A028B7FF0CF08950E946A1B9C01C2
:1027B00090912D0280912E02982B21F030932702C8
:1027C0002093260290912F0280913002982B21F0C5
:1027D00030932502209324028BE292E00C94461A57
:1027E000EF92FF920F931F93CF93DF9300D000D00F
:1027F00000D0CDB7DEB786E0EBE2F2E0DE01119665
:1028000001900D928A95E1F7E0902D02F0902E0252
:1028100000912F021091300210922D0210922E0280
:1028200010922F02109230028E2D8F2991F08091FC
:102830002602909127020E94821BFC01209129020E
:10284000222309F43FC080910A018E171F0608F465
:1028500048C0802F812B91F0809124029091250215
:102860000E94821BFC0120912802222309F47CC0D3
:10287000809106018E171F0608F485C080912D02F5
:1028800090912E02892B90912F02892B90913002EA
:10289000892B11F00E94D51386E0FE013196ABE240
:1028A000B2E001900D928A95E1F726960FB6F89462
:1028B000DEBF0FBECDBFDF91CF911F910F91FF9073
:1028C000EF90089580910B0190E06AE070E00E9423
:1028D00005238E179F0708F0BCCF2F5F2093290296
:1028E00002C02F3FD1F7EE2051F00E9482126FEF0D
:1028F0001E140CF461E00E94FC2280932D02FF2044
:1029000051F00E9482126FEF1F140CF461E00E94DC
:10291000FC2280932E0280912D02882309F499CF06
:1029200020912E02222309F494CF082E000C990B3B
:1029300065EB70E00E940523992371F090932D02BE
:10294000822F220F990B65EB70E00E9405239923DB
:1029500039F090932E027DCF81E080932D02F0CF4D
:1029600081E080932E0275CF8091070190E06AE0AC
:1029700070E00E9405238E179F0708F07FCF2F5F1E
:102980002093280202C02F3FD1F7002351F00E946C
:10299000C7126FEF10160CF461E00E94FC228093C6
:1029A0002F02112351F00E94C7126FEF11160CF481
:1029B00061E00E94FC228093300280912F028823E4
:1029C00009F45CCF20913002222309F457CF082E5E
:1029D000000C990B65EB70E00E940523992371F0C0
:1029E00090932F02822F220F990B65EB70E00E94CB
:1029F0000523992339F09093300240CF81E08093F2
:102A00002F02F0CF81E08093300238CF86E0EBE2F6
:102A1000F2E0DF011D928A95E9F7109229021092E7
:102A2000280210922A02089583E290E00E9458231F
:102A3000823289F484E290E00E945823823059F473
:102A400085E290E00E94582391E0863109F090E001
:102A5000892F8170089580E0FCCFCF93C82F6FEF4E
:102A6000811162E283E290E00E9466236FEFC11160
:102A700062E084E290E00E9466236FEFC11166E19C
:102A800085E290E0CF910C946623089586E290E071
:102A90000E945823682F70E090E080E00895089528
:102AA000CF93C62F0E944F156C2F86E290E0CF91F6
:102AB0000C94662380E00E942D1560E070E0CB014D
:102AC0000E9450150E94EA170E94D61881E00C94CB
:102AD0002D150E9445150E9446150E944F150E9413
:102AE0001415811102C00C945A150895CF93FB015F
:102AF000C281CC2309F19C0122513F45203131058F
:102B000020F582510E94E618C0E08C2FCF910895E5
:102B100081E00E94AF0843E062E081E00E94200370
:102B2000F3CF81E00E94BA0843E062E081E00E94B6
:102B30002003EBCF82E0F6CF8031FFE59F0789F3DA
:102B400081319F45B9F3C1E0E0CF8031EFE59E07C9
:102B5000F9F281319F45C9F682E0DBCF2FEFFC010E
:102B600020830895EF92FF920F931F93CF93DF93EB
:102B7000EC01062FE881E150E33108F05EC0F0E09F
:102B8000E855FC4D0C942A23198289E08A83602F32
:102B9000CE01DF91CF911F910F91FF90EF900C9498
:102BA0005D1C8981823069F0833071F08130D9F405
:102BB0000E94761B0E9430236A837B838C839D83D3
:102BC000E6CF0E944615F6CF7E0110E0812F0E94CD
:102BD0001B11F701928383831F5FF2E0EF0EF11C5C
:102BE0001530A1F7D4CF602FCE010E94AE15CFCF04
:102BF00089818230C1F76A817B818C819D810E94AD
:102C000030230E945015C3CF4B816A8189810E9475
:102C1000BC179827892798279D838C83B8CF2C8150
:102C20003D813227232732274B816A8189810E9487
:102C3000D517ADCF0E94EA17AACF8FEF8883A7CF11
:102C40000E947F188983A3CF0E9481189827892723
:102C500098279A8389839BCF6B8170E089819A81C1
:102C6000AE014C5F5F4F9827892798270E948418F0
:102C70008ECF6B8170E089819A81AE014C5F5F4F8E
:102C80009827892798270E94AB1881CF0E94D618D1
:102C90007ECF0E94A317D6CF6B8170E089819A8185
:102CA000AE014C5F5F4F9827892798270E94221812
:102CB0006ECF6B8170E089819A81AE014C5F5F4F6E
:102CC0009827892798270E94481861CFCF93DF93D0
:102CD000EC01FB018281882309F433C1C330FDE597
:102CE000DF07C0F5CA3F9CE5D90730F49E012250AA
:102CF0003C4524313105B0F50E94960D90934B026E
:102D000080934A02C1318CE5D80709F4EEC008F07F
:102D100069C0C930ECE5DE0709F4D5C0C8F5C53097
:102D20008CE5D80709F4C7C000F5C330ECE5DE0731
:102D300009F4B9C008F0BBC0C230DC4509F4ADC02D
:102D400080914A0290914B020E94A40D0E943A0881
:102D500080E008C0C136EDE5DE0771F2C53AFDE559
:102D6000DF0751F2DF91CF91089580914A0280628E
:102D7000C7309CE5D90709F493C080914A0280616D
:102D8000C830DC4508F48CC080914A02806488C059
:102D900080914A028B7FCD30FCE5DF0709F480C0CB
:102DA00098F480914A028E7FCB309CE5D90709F4D4
:102DB00077C080914A028C60CC30DC4508F470C04A
:102DC00080914A028D7F6CC080914A028F7ECF3005
:102DD000FCE5DF0709F464C008F47BC080914A0277
:102DE0008F7D5EC0CD3F9CE5D90709F47AC050F5D0
:102DF000C531FCE5DF0709F486C098F480914A02EA
:102E0000837FC3319CE5D90709F44AC008F471C037
:102E10000E943A0890914A02892F97FB87F98058BF
:102E20003FC0CB3FFCE5DF0709F449C008F055C0BF
:102E300080914B028160CA3FDC4509F081CF8093CD
:102E40004B027ECFC130EDE5DE0709F468C0A8F47F
:102E5000CF3F8CE5D80709F452C080914B028360C4
:102E6000C115DD4560F380914B02982F90959170CC
:102E70008E7F892B90FB81F9E2CFC136EDE5DE072D
:102E800009F451C0C53AFDE5DF0709F453C0C2306B
:102E9000DD4509F055CF80E043C080914A02816052
:102EA00080934A024DCF80914A028260F9CF80918F
:102EB0004A028460F5CF80914A028860F1CF809108
:102EC0004B028260BCCF0E943A0880914A0280681F
:102ED000E7CF80914A02877FE3CF80914B028E7FBC
:102EE000AECF80914B028D7FAACF80914A028F7B1B
:102EF000D7CF0E943A0880914A028F77D1CF809134
:102F00004B028C7F9CCF80914A0282FB992790F9DB
:102F100021E0922790FB82F990FB83F9C1CF81E0F9
:102F20000E94290E0DCF90914A02892F8F7E94FF27
:102F30008061B6CF90914A02892F8E7F90FF816089
:102F4000AFCF81E00FCF84E00895E82F862F90E087
:102F50006EE170E00E940523242F30E0220F331F22
:102F6000280F391F8E2F90E066E970E00E9405233C
:102F7000820F931F879608950F931F93CF93DF932C
:102F80000E94A5178C010E945823C82FD0E0DC2F87
:102F9000CC27C80101960E9458239E01282BC90105
:102FA000DF91CF911F910F9108950F931F93CF93AE
:102FB000DF93122F032F0E94A517EC01602F0E94B0
:102FC0006623612FCE010196DF91CF911F910F9162
:102FD0000C946623AF92BF92CF92DF92EF92FF9252
:102FE0001F93CF93DF9384E7C82E80E0D82ED0E0E4
:102FF0007601C0E014C0F50125913491412F6C2F6A
:103000008D2F0E94D51782E0A80EB11C1F5F1F30C4
:1030100091F78EE1E80EF11CCF5FC53019F0570132
:1030200010E0E9CFDF5F86E9C80ED11CD43001F78C
:10303000DF91CF911F91FF90EF90DF90CF90BF90E5
:10304000AF900895EF92FF920F931F93CF93DF936A
:10305000EC018A017C01E60EF71ECE018796CE15A3
:10306000DF0539F4DF91CF911F910F91FF90EF9021
:103070000895C83522E0D20740F40E945823F80191
:1030800080830F5F1F4F2196E8CFF8011082F9CFA0
:10309000CF92DF92EF92FF920F931F93CF93DF9324
:1030A0007C016A018C01060F171FEC01CE01879687
:1030B000C017D10749F4DF91CF911F910F91FF9075
:1030C000EF90DF90CF900895C83522E0D20740F40A
:1030D000FE01EE19FF09EC0DFD1D60810E946623C3
:1030E0002196E4CF462F843038F4753028F46F30C1
:1030F00018F4672F0C94BC1790E080E0089580E1ED
:10310000089581E891E00895EF92FF920F931F9345
:10311000CF93DF93EC018A017C01E60EF71ECE010E
:1031200081589D4FCE15DF0539F4DF91CF911F9166
:103130000F91FF90EF900895C13821E0D20740F43D
:103140000E945823F80180830F5F1F4F2196E7CF1D
:10315000F8011082F9CFCF92DF92EF92FF920F9396
:103160001F93CF93DF937C016A018C01060F171F19
:10317000EC01CE0181589D4FC017D10749F4DF9172
:10318000CF911F910F91FF90EF90DF90CF90089516
:10319000C13821E0D20740F4FE01EE19FF09EC0D21
:1031A000FD1D60810E9466232196E3CFCF93DF93BC
:1031B000CFE7D2E060E0CE010E9466232196C115E0
:1031C00084E0D807B9F7DF91CF910895DF92EF92AD
:1031D000FF920F931F93CF93DF9300D000D0CDB712
:1031E000DEB7F82E8FE08F1540F08FEF93E00E944E
:1031F00058230FE712E08823C1F00F900F900F9033
:103200000F90DF91CF911F910F91FF90EF90DF9082
:103210000895011584E0180781F3C8010E9458231E
:10322000811101C0FA940F5F1F4FF110F2CF198284
:103230001A821B821C82DD24D39478018FEFE81A56
:10324000F80AC8010E94582389831A828823A9F2A8
:103250009FEF980F933078F48A83D9820E5F1F4FC7
:10326000C7010E9458238B83882339F2CE0101962F
:103270000E946504E2CF8701F9CFCF93DF93EB0182
:1032800086319C4511F50E949C0C9A81992399F0F6
:103290008A7A91E009F490E090933102811109C09B
:1032A00089E20E94770C0E94DC0C80E0DF91CF91D4
:1032B000089585E3F6CF80913102811104C089E23F
:1032C0000E947E0CF0CF85E3FBCF81E0EFCF0F9320
:1032D0001F93CF93DF93C42FD22FFC0182818823C9
:1032E000C9F0409334020E946A1B9093330280938A
:1032F000320280E28C0F883008F050C0C77081E045
:1033000001C0880FCA95EAF7DF91CF911F910F9105
:103310000C94D40510913402141335C080913202FC
:10332000909133020E94821B883C910560F5C0E2B7
:10333000CD0F1D17B9F080E2810F883040F417706F
:1033400081E001C0880F1A95EAF70E94DB05C830BA
:1033500048F481E09D2F977001C0880F9A95EAF795
:103360000E94D405802F0E94CC05C830B8F4D770D5
:1033700081E001C0880FDA95EAF7DF91CF911F91C4
:103380000F910C94DB0580E28C0F883038F4C77005
:1033900081E001C0880FCA95EAF7EFCFDF91CF91A6
:1033A0001F910F9108950F939C01CB01233F4CE592
:1033B000340759F1A8F4283DFCE53F0701F1293D08
:1033C0004CE53407D1F1273D3C4591F406E221EE6E
:1033D00041EE67ED7CE50E94671980E00F9108954A
:1033E000253FFCE53F07E9F0B0F0263F3C45F9F00A
:1033F000FC018281882339F110923402EFCF07E279
:1034000025EE45EE68ED7CE5E6CF06E221EE40EEE6
:1034100063EF7CE5E0CF07E225EE44EE64EF7CE568
:10342000DACF06E221EE42EE65EF7CE5D4CF07E28B
:1034300025EE46EE66EF7CE5CECF08E221E045EED4
:1034400069ED7CE5C8CF81E0C9CF90939F0180935F
:103450009E01089590933A02809339020895E09175
:103460003902F0913A02309721F00190F081E02D7D
:10347000099480E00895E0913902F0913A02309782
:1034800021F00280F381E02D09940895E091390242
:10349000F0913A02309739F022E0DC012C9304805D
:1034A000F581E02D0994089520913702309138027A
:1034B0002817390771F09093380280933702E09112
:1034C0003902F0913A02309721F00680F781E02D21
:1034D0000994089520913502309136022817390752
:1034E00071F09093360280933502E0913902F091A9
:1034F0003A02309721F00084F185E02D0994089577
:103500009C012E5F3F4FAC01485F5F4F80E0241766
:10351000350709F40895F90191919F019923B9F3B1
:103520008F5FF5CF662349F0FC0132960896219112
:10353000261729F0E817F907D1F780E0089581E010
:1035400008959C01FC0132969FEF80E0419146175F
:1035500051F09F3F19F4411101C0982F8F5F8630C1
:10356000A9F79F3F09F40895290F311D97FD3A955A
:10357000F90162830895FC01329608962191261381
:1035800003C0DF0111971C92E817F907B9F70895F6
:103590000C94A11A0C94BB1A029626E0FC0111921D
:1035A0002A95E9F7089508950C94D31A811105C05E
:1035B00081E080933B020C94D41A82E0FACF83E03E
:1035C00080933B020C94D41A0C94D61A81E0809319
:1035D0003B020C94D41A0C94E61A089508950C94A6
:1035E000EE1A089508950C94ED1ACF930E94F11AE3
:1035F0000E94E4110E94F21AC0E08C2F0E941B115D
:10360000892B31F4CF5FC530C1F780E0CF910895A9
:1036100081E0FCCF08951F921FB61F9211248F9353
:103620009F93AF93BF9380913C02811113C080910F
:10363000600290916102A0916202B0916302419692
:10364000A11DB11D8093600290936102A09362025C
:10365000B0936302BF91AF919F918F911F901FBE56
:103660001F90189580916802843031F10E94950373
:1036700010923C0288E190E020E40FB6F894A895FF
:10368000809360000FBE2093600083B7817F8460C9
:1036900083BF83B7816083BF7894889583B78E7F1B
:1036A00083BF0FB6F894A8958091600088618093DD
:1036B0006000109260000FBE08950E943A080C94BA
:1036C000990382E084BD93E095BD9AEF97BD809306
:1036D0006E0008952FB7F894809160029091610276
:1036E000A0916202B09163022FBF08952FB7F894A2
:1036F0006091600270916102809162029091630218
:103700002FBF08959C014FB7F8948091600290916B
:103710006102A0916202B09163024FBF821B930BC2
:10372000089578941F921FB61F9211248F939F9330
:10373000AF93BF938091600290916102A091620269
:10374000B09163020196A11DB11D80936002909318
:103750006102A0936202B0936302BF91AF919F9107
:103760008F911F901FBE1F90189581E08093E000FD
:1037700080E28093D8001092C9008FE19EE4019707
:10378000F1F700C0000087E090EBDC01809371024C
:1037900090937202A0937302B093740288E19CE04C
:1037A0000FB6F894A895809360000FBE90936000C8
:1037B000FFCF80914802089508959C0184E0809392
:1037C000E9009FEF8091E800915085FD06C085EDEE
:1037D0008A95F1F700009111F5CF8091E80085FFFF
:1037E0000CC050E040E066E070E0C9010E945B1E42
:1037F0008091E8008E778093E8000895CF93DF935F
:10380000EC0181E08093E9008FEF9091E800815016
:1038100095FD06C095ED9A95F1F700008111F5CF61
:103820008091E80085FF14C050E040E068E070E05F
:10383000CE010E945B1E8091E8008E778093E800A5
:1038400088E0FE01A0E4B2E001900D928A95E1F7D4
:10385000DF91CF91089580933D0270933F02609372
:103860003E02809168028430F9F48093E9008FEF82
:103870009091E800815095FD06C095ED9A95F1F77D
:1038800000008111F5CF8091E80085FF0DC050E068
:1038900040E063E070E08DE392E00E945B1E809167
:1038A000E8008E778093E8000895BC0184E00C94D2
:1038B0002B1CBC0183E00C942B1CCF93FC016032C9
:1038C00021F580916802843001F5C091E900CF7044
:1038D0002091EC00922F917020FD90E8C92B82E09E
:1038E0008093E9008091E80080FF0CC050E040E048
:1038F00060E270E0CF010E945B1E8091E8008E774D
:103900008093E800CF70C093E900CF9108950C94A4
:10391000E61A6091640281E0611101C080E00C94BC
:10392000DF1A9091680281E0943009F080E06091A4
:1039300064020C94E41A42E061EC81E00E94B21F40
:1039400042E261EC84E00E94B21F42E261EC82E05C
:103950000E94B21F42E260EC83E00E94B21F90918D
:10396000680281E0943009F080E0609164020C9478
:10397000D61A80916A02833009F460C030F4813035
:10398000C9F1823009F49CC008958A3009F488C0D6
:103990008B3009F46EC0893009F04FC08091690204
:1039A000813209F04AC080916D0290916E020097B9
:1039B00019F0029709F041C08091E800877F809359
:1039C000E8008091E80082FF34C08091F2008230EC
:1039D00031F48091F100813011F0863021F4809132
:1039E000F100809348028091E8008B778093E80093
:1039F0000C94E61F80916902813AF9F48091E80005
:103A0000877F8093E80080916D0290916E02892BF0
:103A100061F468E080E492E070E00E94F91E809119
:103A2000E8008B778093E800089560E090E080E004
:103A3000F3CF809168028111C4CF0895809169020B
:103A4000813AD9F780916D0290916E02892BA9F786
:103A50008091E800877F8093E8008091E80080FFF4
:103A6000FCCF809118018093F1008091E8008E775F
:103A7000BDCF80916902813201F780916D029091F2
:103A80006E02892BD1F68091E800877F8093E80051
:103A90000E94E61F80916B02809318010C943A08F3
:103AA00080916902813249F68091E800877F809396
:103AB000E8000E94E61F80916C02809349020895FD
:103AC00080916902813A09F0B8CF8091E800877F40
:103AD0008093E8008091E80080FFFCCF809149024C
:103AE000C2CF84B7877F84BF0FB6F894A895809122
:103AF0006000886180936000109260000FBE80E8D3
:103B000090E00FB6F89480936100909361000FBE2F
:103B10000C94EB1A0E9436200E948920E2EEF0E01D
:103B200080818460808378940C94E1228CE091E021
:103B30000C942A1A809168028530A9F48091680259
:103B4000853011F00C945D1B0E94321B809166023F
:103B50008823A1F30E94F51A882381F30E94451E51
:103B60000E943A08EBCF0895CF93DF93CDB7DEB72D
:103B7000A0970FB6F894DEBF0FBECDBF809168024C
:103B8000843009F583E08093E9008091E80082FFAA
:103B90001AC08091E80090E085FF09C050E040E045
:103BA00060E270E0CE0101960E94AA1E91E0809131
:103BB000E8008B778093E800992329F060E2CE013A
:103BC00001960E94B215A0960FB6F894DEBF0FBE04
:103BD000CDBFDF91CF9108950C94EE1D292F33278F
:103BE0002330310521F168F42130310509F443C057
:103BF0002230310509F444C090E080E030E020E05C
:103C000026C02132310551F122323105A9F7633046
:103C1000710590F7FB01EE0FFF1FEE56FE4F20815E
:103C2000318161577E4FFB01808190E010C0992760
:103C30008130910581F0009729F00297E9F6ECE7D1
:103C4000F3E002C0E0EAF3E0849190E09F01FA0122
:103C5000318320830895E8E8F3E0F6CF63307105FF
:103C600058F6660F771FFB01E856FE4F2081318121
:103C700089E090E0ECCF82E190E02FEF33E0E7CFF6
:103C80008BE590E024EA33E0E2CF84E089BD86E072
:103C900089BD09B400FEFDCF8091D8008F7D80934F
:103CA000D8008091E00082608093E0008091E00085
:103CB00081FDFCCF0895AF92BF92CF92DF92FF9229
:103CC0000F931F93CF93DF936C01EB018A010E9446
:103CD0000520F82E811123C00115110539F0F801D6
:103CE00080819181C81BD90BC80ED91EB12CA12C83
:103CF0002097A9F08091E80085FD22C08091E8001E
:103D00008E778093E80001151105A1F0F8018081FC
:103D10009181A80EB91EB182A08285E0F82E8F2D68
:103D2000DF91CF911F910F91FF90DF90CF90BF90C7
:103D3000AF9008950E9405208823D1F2F82EEFCF8E
:103D4000F60181916F018093F1002197FFEFAF1A87
:103D5000BF0ACECFAF92BF92CF92DF92FF920F9366
:103D60001F93CF93DF936C01EB018A010E94052022
:103D7000F82E811123C00115110539F0F801808159
:103D80009181C81BD90BC80ED91EB12CA12C20972C
:103D9000A9F08091E80085FD22C08091E8008B7732
:103DA0008093E80001151105A1F0F801808191814F
:103DB000A80EB91EB182A08285E0F82E8F2DDF916A
:103DC000CF911F910F91FF90DF90CF90BF90AF9058
:103DD00008950E9405208823D1F2F82EEFCF80911C
:103DE000F100F60181936F012197FFEFAF1ABF0A2F
:103DF000CECFFC0180916F029091700286179707D9
:103E0000A0F06115710529F49091E8009E779093D8
:103E1000E80090E06115710551F4911108C080919E
:103E2000E80082FF32C080E00895BC01F2CF8091AB
:103E300068028823B1F18530B1F18091E80083FDFB
:103E40002EC08091E80082FDEACF8091E80080FFDB
:103E5000E1CF2091F20030E06115710519F02830B2
:103E6000310558F091E02830310509F090E02091BB
:103E7000E8002E772093E800CDCF81918093F10068
:103E8000615071092F5F3F4FE7CF8091680288230F
:103E900041F0853041F08091E80083FFC0CF81E0A0
:103EA000089582E0089583E00895FC0180916F02F7
:103EB0009091700286179707A0F06115710529F49B
:103EC0008091E8008E778093E80090E0611571059D
:103ED00051F4911108C08091E80082FF33C080E066
:103EE0000895BC01F2CF809168028823B9F1853032
:103EF000B9F18091E80083FD2FC08091E80082FD38
:103F0000EACF8091E80080FFE1CF2091F20030E01D
:103F10006115710519F02830310558F091E028300D
:103F2000310509F090E08091E8008E778093E800F9
:103F3000CDCF84918093F1003196615071092F5F4C
:103F40003F4FE6CF80916802882341F0853041F0F1
:103F50008091E80083FFBFCF81E0089582E008955B
:103F600083E00895982F953028F08F708093E900B2
:103F700081E008959093E900242F762F50E0981760
:103F800031F07091EC002091ED005091F00021FD96
:103F900002C09F5FE8CF3091EB003E7F3093EB0093
:103FA0003091ED003D7F3093ED003091EB003160BA
:103FB0003093EB007093EC002093ED005093F000F1
:103FC0002091EE0027FDE5CF80E008958091690201
:103FD00087FF13C08091E80082FF06C08091E8004F
:103FE0008B778093E80004C0809168028111F2CF42
:103FF0000895809168028823D9F38091E80080FFBA
:10400000F8CF8091E8008E77ECCF2091E4003091DA
:10401000E50095E6A9012091EC00822F817020FF38
:1040200006C08091E80080FF06C080E008952091DE
:10403000E80022FD1AC080916802882389F085304B
:1040400089F08091EB0085FD0FC02091E400309154
:10405000E50042175307F9F29150E1F684E0089524
:1040600082E0089583E0089581E008950E949320FE
:104070000E949620E0EEF0E0808181608083E8ED90
:10408000F0E080818F77808319BCE3E6F0E08081E7
:10409000816080831092670208950E9493200E949D
:1040A00096208091D8008F778093D8008091D80097
:1040B00080688093D8008091D8008F7D8093D8004D
:1040C00084E089BD86E089BD09B400FEFDCF109271
:1040D000680210926402109266021092650242E039
:1040E00060E080E00E94B21F8091E1008E7F8093AB
:1040F000E1008091E20081608093E2008091E20023
:1041000088608093E2008091E0008E7F8093E000E1
:104110000895E3E6F0E080818E7F808381E08093E4
:1041200067020C944D201092E20008951092E10075
:1041300008951F920F920FB60F9211242F933F9361
:104140004F935F936F937F938F939F93AF93BF939F
:10415000EF93FF938091E10082FF0BC08091E2001A
:1041600082FF07C08091E1008B7F8093E1000E9475
:10417000E0228091E10080FF19C08091E20080FF81
:1041800015C08091E2008E7F8093E2008091E20072
:1041900080618093E2008091D80080628093D80093
:1041A00019BC85E0809368020E94891C8091E1001F
:1041B00084FF2BC08091E20084FF27C084E089BD8A
:1041C00086E089BD89B5982F917080FFFBCF8091E3
:1041D000D8008F7D8093D8008091E1008F7E8093FE
:1041E000E1008091E2008F7E8093E2008091E20006
:1041F00081608093E20080916402882309F443C0C7
:1042000084E0809368020E94911C8091E10083FF0A
:1042100029C08091E20083FF25C08091E100877F63
:104220008093E10082E080936802109264028091A2
:10423000E1008E7F8093E1008091E2008E7F809389
:10424000E2008091E20080618093E20042E060E061
:1042500080E00E94B21F8091F00088608093F0009F
:104260000E94871CFF91EF91BF91AF919F918F9119
:104270007F916F915F914F913F912F910F900FBE62
:104280000F901F9018958091E30087FD93E0909325
:104290006802B9CF1F920F920FB60F9211242F937D
:1042A0003F934F935F936F937F938F939F93AF93BE
:1042B000BF93CF93DF93EF93FF93D091E900DF702B
:1042C0008091EC00C82FC17080FDC0E81092E90019
:1042D0008091F000877F8093F00078940E948E2177
:1042E0001092E9008091F00088608093F000CD2B5F
:1042F000CF70C093E900FF91EF91DF91CF91BF9113
:10430000AF919F918F917F916F915F914F913F916D
:104310002F910F900FBE0F901F9018951F93CF9362
:10432000DF93CDB7DEB7AA970FB6F894DEBF0FBE06
:10433000CDBF89E692E02091F100FC012193CF01ED
:10434000F2E081379F07B9F70E94B91C8091E8001D
:1043500083FF1EC18091690290916A029A3008F031
:1043600017C1E92FF0E0E554FC4D0C942A23803866
:1043700099F0823809F00CC180916D028F70853000
:1043800008F006C18093E9008091EB0085FB882747
:1043900080F91092E90006C0809165029091660252
:1043A000911182609091E800977F9093E80080934C
:1043B000F1001092F1008091E8008E77E5C088232B
:1043C00009F4D3C0823009F0E3C080916B028111FF
:1043D000D6C080916D028F702FEF280F243008F027
:1043E000D7C08093E9002091EB0020FFC8C0933034
:1043F00031F48091EB0080628093EB00C0C090911B
:10440000EB0090619093EB0021E030E001C0220FBF
:104410008A95EAF72093EA001092EA008091EB0077
:104420008860EACF8111B4C010916B021F77809130
:10443000E3008078812B8093E3008091E800877F00
:104440008093E8000E94E61F8091E80080FFFCCF87
:104450008091E30080688093E30082E0111183E0A3
:104460008093680295C08058823008F091C0809196
:104470006B0290916C028C3D23E09207A1F583E0E2
:104480008A838AE289834FB7F894DE01139620E08D
:104490003EE051E2E32FF0E050935700E49120FF1B
:1044A00003C0E295EF703F5FEF708E2F90E0EA302F
:1044B000C0F0C7968D939D932F5F243159F74FBF5E
:1044C0008091E800877F8093E8006AE270E0CE0187
:1044D00001960E94F91E8091E8008B778093E80096
:1044E00057C0C096E7CF60916D0270916E02AE0129
:1044F0004F5F5F4F0E94EC1DBC01892B09F448C03F
:104500009091E800977F9093E80089819A810E94BA
:10451000551FE1CF8038E1F58091E800877F8093D7
:10452000E800809164028093F10045CF811130C092
:1045300090916B02923060F58091E800877F8093C4
:10454000E800909364020E94E61F80916402882331
:1045500011F084E005C08091E30087FDFACF81E08F
:10456000809368020E949B1C13C080916B02813073
:1045700079F481E0933009F080E080936602109234
:10458000E9008091E800877F8093E8000E94E61FA1
:104590008091E80083FF0AC08091E800877F8093C4
:1045A000E8008091EB0080628093EB00AA960FB642
:1045B000F894DEBF0FBECDBFDF91CF911F9108955C
:1045C0000895CF93809168028823A1F0C091E900FB
:1045D000CF709091EC00892F817090FD80E8C82BFE
:1045E0001092E9008091E80083FD0E948E21CF7037
:1045F000C093E900CF910895002480FD060E660F58
:1046000011F08695D1F7802D08950024552704C018
:10461000080E591F880F991F009729F07695679506
:10462000B8F37105B9F7802D952F089597FB072EE4
:1046300016F4009407D077FD09D00E94372307FCB9
:1046400005D03EF4909581959F4F089570956195A2
:104650007F4F0895EE0FFF1F0590F491E02D099410
:104660006927962769277827872778270895AA1B1F
:10467000BB1B51E107C0AA1FBB1FA617B70710F04D
:10468000A61BB70B881F991F5A95A9F7809590957F
:10469000BC01CD010895FB01DC0104C08D910190A6
:1046A000801921F441505040C8F7881B990B089598
:1046B000F999FECF92BD81BDF89A992780B50895EA
:1046C000A8E1B0E042E050E00C948C23262FF99949
:1046D000FECF92BD81BDF89A019700B4021639F061
:1046E0001FBA20BD0FB6F894FA9AF99A0FBE089532
:1046F0000396272F0E9467230E946623252F0E947E
:104700006723242F0C9467230196272F0E94672389
:104710000C946623DC01CB01FC01F999FECF06C0A5
:10472000F2BDE1BDF89A319600B40D92415050406F
:10473000B8F70895F894FFCF2006200651065106D9
:10474000E4060007800680060B07720781078107D1
:10475000C415D115F81504160F161A161D161D16B8
:104760001D161D161D16201624162C163916461653
:1047700049164C165916B721DF21C822DF21C8225D
:0A47800012223322C8228A22962258
:10478A00C8000402280850011E0A1401D91BFE1B86
:10479A00DD1B591C551CDC1B01E200E900EA00B5CF
:1047AA0000B600B700CD008301CC008A01920194C3
:1047BA00012102230224022502260227022A02B329
:1047CA0000B4006F007000818283E200E900EA0011
:1047DA00B500B600B700CD008301CC008A01920172
:1047EA0094012102230224022502260227022A0218
:1047FA00B300B4006F0070008182836636353433AB
:10480A0032319695949392919062656430673740FD
:0E481A00227BAE0411043304B603CF03EF0378
:00000001FF
