:100000000C94B3010C94EB010C94EB010C94EB01F8
:100010000C94EB010C94EB010C94EB010C94EB01B0
:100020000C94EB010C94EB010C94EB010C942E1B43
:100030000C94DF1B0C947F160C94EB010C94EB01D9
:100040000C94EB010C94EB010C94EB010C9406174F
:100050000C94EB010C94EB010C94EB010C94EB0170
:100060000C94EB010C94EB010C94EB010C94EB0160
:100070000C94EB01167C1E001F00200021002200C2
:10008000230024002500260027002D002E002A0032
:100090002A002B0014001A000800150017001C008D
:1000A00018000C00120013002F0030000000310077
:1000B000394104001600070009000A000B000D007A
:1000C0000E000F0033003400000028000000E100A3
:1000D00000001D001B0006001900050011001000A3
:1000E000360037003800000052320000E000E30024
:1000F000E20000000000000000002C0000000000F2
:1001000000005034000051384F31167C3A003B005B
:100110003C003D003E003F004000410042004300E3
:10012000440045002A002A002B0014005200080059
:10013000150017001C0018000C00120013002F00FF
:100140003000000031000100500051004F00090054
:100150000A000B000D000E000F00330034000000F9
:100160002800000022520000AA00A900A8001900DF
:100170000500110010003600370038000000523230
:100180000000E000E700E6000000000000000000C2
:100190002C000000000000005034000051384F31A6
:1001A0000100010001000100010001000100000048
:1001B000000000000000000000000000000000003F
:1001C000000000000000000000000000000000002F
:1001D00000000000000000000000007C00000000A3
:1001E000000000000000000000000000000000000F
:1001F00000000000000000000000010000000000FE
:1002000000000000000000000000000000000000EE
:1002100000000000000000000000000000000000DE
:1002200000000000000000000000000000000000CE
:100230000000000000000A034300690065006C0034
:100240000000160343006800690063006B0065004E
:100250006E004D0061006E000000040309040902F5
:100260003B00020100A0FA090400000103010100A3
:100270000921110100012240000705810308000146
:1002800009040100010300000009211101000122FD
:100290007B0007058203200001120100020000001C
:1002A000081CC4010001000102000105010902A1AE
:1002B0000185020901A10005091901290815002578
:1002C0000195087501810205010930093115812563
:1002D0007F95027508810609381581257F9501757E
:1002E000088106050C0A38021581257F95017508DD
:1002F0008106C0C005010980A101850319012AB743
:1003000000150126B700950175108100C0050C0984
:1003100001A101850419012AA002150126A0029558
:100320000175108100C005010906A101050719E04A
:1003300029E71500250195087501810295017508C9
:1003400081010507190029FF150026FF0095067594
:100350000881000508190129059505750191029587
:100360000175039101C011241FBECFEFD4E0DEBFA1
:10037000CDBF04B603FE18C080917402909175023F
:10038000A0917602B09177028730904BA740B04B96
:1003900059F4109274021092750210927602109223
:1003A0007702E0E0F8E3099511E0A0E0B1E0ECE3CA
:1003B000FDE302C005900D92A239B107D9F722E002
:1003C000A2E9B1E001C01D92A437B207E1F70E9493
:1003D00014110C945D1E0C940000282F8330E0F45F
:1003E0006530D0F44F30C0F4862F90E06FE070E0BD
:1003F0000E948F1DFC01E40FF11D822F90E06BE441
:1004000070E00E948F1DE80FF91FEE0FFF1FEC58E0
:10041000FF4F85919491089580E090E008950E94A7
:10042000ED01089581E0089581E008950E9414028D
:10043000089508950E9419020895A5E0B0E0E3E24E
:10044000F2E00C94C91D49835A8330919901898146
:100450009A81311119C0662399F0222389F00E94F4
:100460002B08182F682F89819A810E9402086981C0
:100470007A81812F0E949D0E2596E3E00C94E51D64
:100480000E941708182FF3CF0E942B0869817A81E8
:10049000F1CFFC01262F40815181628173818481DB
:1004A0000E941D02089581E00895CF93DF93EC012F
:1004B00060E00E944902BE010E941A02DF91CF91C2
:1004C00008950E94B50F08950E94B90F08950895E8
:1004D0000E94D1060E9467022FEF84E39CE0215026
:1004E00080409040E1F700C0000008950E9468023B
:1004F0000E942A1708950E9468020E944E170895CC
:100500000F931F93CF93DF938C0161E00E94490208
:10051000EC01B8010E941602811106C080E0DF9153
:10052000CF911F910F910895B801CE010E9422151D
:100530008823A1F3B801CE010E94B813882371F378
:10054000B801CE010E949414882341F3F8018281FE
:10055000882361F0C330FCE7DF07E9F058F4C115E8
:10056000ECE7DE07A9F0C130DC47B9F0C8010E9412
:100570001202D5CFCB358CE7D807A9F0CC35ECE704
:10058000DE0771F0CA35DC4789F70E94390CEECFDF
:100590000E947602C3CF0E94410C0E947B02BECF14
:1005A0000E942F0CE3CF0E943D0CE0CF0E94611609
:1005B0000E94000308950E9404030E946616089595
:1005C00008950E94E002089581E008950895CF9370
:1005D000DF93D82F0E94E402C82F882319F08D2FB3
:1005E0000E94E6028C2FDF91CF9108950895CF935A
:1005F000C82F0E94E1028C2F0E94E702CF9108953C
:1006000080E00E94F70208950E9470150E94F70290
:100610000895CF930E947015C82F809194018C1774
:1006200079F0C09394010E94EB166093950170934A
:10063000960180939701909398018C2F0E94F70266
:10064000CF910895ABE0B0E0E8E2F3E00C94CA1D6E
:100650004F83588769877A878B8761110E947A0B4D
:100660001E821D8285E0FE013796DE011196019003
:100670000D928A95E1F78C819D81892B61F44981E6
:100680005A816B817C818D819E810E949D0A2B966F
:10069000E2E00C94E61D89819A8189238F3F79F3EA
:1006A000CE0101960E9453028111E9CFF0CFFC01E7
:1006B000808191810E945D080895662329F00E943F
:1006C000A1110E94741208950E94FB11FACFCF93DA
:1006D000C82F8823C9F08238C9F40E94701581FDA3
:1006E00013C089E30E94320B0E949B0B2FEF87EE11
:1006F00093E0215080409040E1F700C0000089E382
:100700000E943A0B0E949B0BCF9108958338A1F46D
:100710000E94701580FDF8CF83E50E94320B0E9485
:100720009B0B2FEF81EE94E0215080409040E1F749
:1007300000C0000083E5E4CF8438A1F40E94701566
:1007400082FDE2CF87E40E94320B0E949B0B2FEFC9
:1007500081EE94E0215080409040E1F700C000001D
:1007600087E4CECF8CEF8C0F813A90F46C2F809180
:100770000001909101010E94F215882329F08C2F2D
:100780000E943A0B0E949B0B8C2F0E94320BBACF17
:1007900080E28C0F883048F4C77081E001C0880F78
:1007A000CA95EAF70E945D0BADCFEBE5EC0FE330A5
:1007B00040F4F0E0EB5BFE4F808190E00E949615E4
:1007C000A3CFE8E5EC0FE93150F4F0E0EE0FFF1FA6
:1007D000ED5EFE4F808191810E94BB1595CF83E332
:1007E0008C0F833108F090CF61E08C2F0E945D0365
:1007F0008BCF882309F456C0823879F40E94701593
:1008000081FF50C089E30E94320B0E949B0B89E359
:100810000E943A0B0E949B0B0895833859F40E9462
:10082000701580FF3FC083E50E94320B0E949B0B36
:1008300083E5EECF843859F40E94701582FF32C0F0
:1008400087E40E94320B0E949B0B87E4E1CF9CEF70
:10085000980F913AE8F290E2980F983050F4877030
:1008600091E001C0990F8A95EAF7892F0E94630BE6
:10087000D1CF9BE5980F933028F490E080E00E9460
:100880009615089598E5980F993128F490E080E046
:100890000E94BB15089593E3980F933118F460E01C
:1008A0000E945D0308951F93CF93DF93182FEB01F0
:1008B0000E946703209739F4812F0E94F903DF918A
:1008C000CF911F9108958FE99FE00197F1F700C044
:1008D00000002197EFCF70E060E0893311F460E50C
:1008E00070E00E9453040895882321F00E945D0B5C
:1008F0000E949B0B0895882321F00E94630B0E94A5
:100900009B0B0895B0E0A0E0E8E8F4E00C94C31D70
:100910006C01D62FC72FFC011281F580F2949FE065
:10092000F9220E94530BE82E8823B9F0E12E1123FF
:10093000A1F08C2F807F803421F080E28D0F8830F1
:10094000D0F080914E0282FF16C082E00E94FE0B22
:100950000E94530B91E0E82EE926BC2EB2948FE062
:10096000B822FBE0FB1508F468C0EB2DF0E0E15A7B
:10097000F14E0C94B41DE12CF0CF0C2F0F70C07F02
:1009800011F00295007F112399F0002359F080E2C5
:100990008D0F883010F0D11107C0802F0E945D0BA1
:1009A0000E949B0B8D2F41C0802F0E946D0BF8CFB2
:1009B0008D2F0E94F903002309F43FC080E28D0FC0
:1009C000883010F0D11104C0802F0E94630B03C047
:1009D000802F0E94730B0E949B0B2FC00C2F0F7057
:1009E000C07FC03211F00295007FDD2381F0D1304D
:1009F00009F468C0112309F472C0FF2009F468C02B
:100A0000F601858180FFCECF8F70858361C0809194
:100A10004E0282FD33C0112359F0002329F0802FAC
:100A20000E945D0B0E949B0B80E00E94670305C043
:100A300080E00E94F9030111C7CFEB2DE850FF0BB6
:100A4000349720F40E9470150E94F702EE2089F07E
:100A50000E944F0B80FD0DC0F60112820E94490BCF
:100A60000E946007C6010E9491060E94490B0E94E5
:100A70007007CDB7DEB7E9E00C94DF1D112389F0D4
:100A8000F11006C00E947D0B802B0E947404D5CF0C
:100A900021E0F212F7CF0E947D0B802B0E94840B85
:100AA000CCCFF11006C00E94910B802F0E947B04D6
:100AB000C4CF31E0F31609F2802F0E947B040E941C
:100AC000910BBBCF112331F085E08F1508F4B5CF22
:100AD000802FDBCF94E09F1508F4AFCFE6CFFF2047
:100AE00021F3D93349F4FFEF27EE33E0F1502040F2
:100AF0003040E1F700C000008D2F0E94F9039DCF28
:100B00008C2F86958695837069F0813009F095CF9A
:100B10008D2F9C2F9370111102C080E090E00E94F5
:100B2000BB158BCF8D2F9C2F9370111102C080E0CD
:100B300090E00E94961581CF612F8D2F0E945D035A
:100B40007CCF8C2F8370A1F5111177CF4D2F42955B
:100B500046954770440F440F2D2F2F7030E0042E20
:100B600002C0220F331F0A94E2F790E080E0D4FF26
:100B700009C08FE090E002C0880F991F4A95E2F704
:100B800080959095C695C695C370822B932BC230E5
:100B900049F058F4C13019F00E9430074ECF0E943E
:100BA00027074BCF0E94390748CF0E94240745CF23
:100BB0008695112311F08C2F8170882309F43DCF85
:100BC0004D2F429546954770440F440F2D2F2F709F
:100BD00030E0042E02C0220F331F0A94E2F790E0A7
:100BE00080E0D4FF09C08FE090E002C0880F991F19
:100BF0004A95E2F780959095C695C695C370822B6D
:100C0000932BC23049F058F4C13019F00E949B0771
:100C100014CF0E94920711CF0E94A4070ECF0E940A
:100C200048070BCFCF70112329F08C2F0E9460074B
:100C30008D2F2BCF8D2F0E947B048C2F0E9470074D
:100C4000FCCED23F51F160F4D03FB9F0D13F81F0FA
:100C5000112309F449C0F110A5CE8C2F8F7121C04A
:100C6000D33F11F1D43FA1F780914E0282FD26C0FF
:100C70008C2F8F71112311F314C0112349F084E0DC
:100C80008F1508F4DACE8C2F8F710E948207D5CE93
:100C900095E09F1508F4D1CEF6CF8C2F8F711111EE
:100CA000CDCF0E946007C9CE112329F08C2F8F7100
:100CB0000E945407C2CE0E944F07BFCE112349F0B5
:100CC000CF718C2F0E94600763E08C2F0E94E00B95
:100CD000B4CE81E00E94FE0BE1E0EF1508F0ADCE4E
:100CE00082E00E94FE0BA9CEF110FBCE8C2F8F71FB
:100CF000A5CF0F931F93CF93DF93EC016881798188
:100D00008A810E9468088C010E94AD070E94230717
:100D1000B801CE010E948204DF91CF911F910F9103
:100D20000895CF93DF93EC018B819C81892B29F06F
:100D30008881998189238F3F51F4DF91CF91089564
:100D4000CE010E947906CE010E945502F6CFCE0157
:100D50000E9480028111F4CF0E94530B882369F313
:100D60008A81882351F380914E0282FFE6CF82E090
:100D70000E94FE0BE2CF90E080E00E94961590E08A
:100D800080E00E94BB150E947A0B0E949B0B0E9480
:100D900090120E94741208950E94420B0E94BB069A
:100DA00008950E946A0B0E94CC06089592959F7048
:100DB000963091F058F4925F9F70923058F4803FD3
:100DC00019F030F4883E30F481E008959A5FF4CF52
:100DD000843FD1F380E00895883EB0F3813FD1F79E
:100DE000F3CFFC0183819481892B29F0808191814B
:100DF00089238F3F11F480E00895808191810E94C2
:100E00005D080E94D6060895A5E0B0E0EAE0F7E0AC
:100E10000C94CA1D2596E2E00C94E61DA6E0B0E015
:100E2000E4E1F7E00C94CA1D2696E2E00C94E61D7E
:100E300008950E94180708950E9419079093C5010C
:100E40008093C401089508950E941C07089520917D
:100E5000C4013091C501822B932B0E941C07089579
:100E60002091C4013091C501822393230E941C0765
:100E700008952091C4013091C501822793270E94D3
:100E80001C0708950E94180708950E9442070895BC
:100E90000E9445079093C3018093C201089590E09A
:100EA00080E00E944807089521E030E0A90102C0D7
:100EB000440F551F8A95E2F7CA010E94480708951A
:100EC00021E030E002C0220F331F8A95E2F78091C3
:100ED000C2019091C301822B932B0E944807089571
:100EE00021E030E002C0220F331F8A95E2F72095FF
:100EF00030958091C2019091C301822393230E9477
:100F00004807089521E030E002C0220F331F8A9580
:100F1000E2F78091C2019091C301822793270E943A
:100F2000480708952091C2013091C301822B932B71
:100F30000E94480708952091C2013091C301822385
:100F400093230E94480708952091C2013091C30164
:100F5000822793270E94480708950895262F277017
:100F600091E001C0990F2A95EAF723E076956795FD
:100F70002A95E1F7660F771F660F771FFA01E60FD4
:100F8000F71F50E040E0682F70E08191DF0111977A
:100F90009B01042E02C0369527950A94E2F7217032
:100FA00021952827292328272C934F5F5F4F443012
:100FB000510559F70895A82FA77023E096958795B6
:100FC0002A95E1F7880F991F880F991FFB01E80FF9
:100FD000F91F50E040E080E0219130E00A2E02C08D
:100FE000369527950A94E2F721703327042E01C025
:100FF000220F0A94EAF7822B4F5F5F4F443051056E
:1010000059F70895282F362F953080F48F3070F4DB
:10101000892F90E06FE070E00E948F1DBC01620F8D
:10102000711D4AE951E0832F0E94AE070895282FD1
:10103000953078F48F3068F4892F90E06FE070E09D
:101040000E948F1D6AE971E0820F911D0E94DB07EB
:10105000089580E00895B0E0A0E0E1E3F8E00C94AA
:10106000C31D7C010091C2011091C3018091C40194
:101070009091C501082B192BCFE0D0E0CC24C3946C
:10108000D12CBC2EC6010C2E02C0880F991F0A94C9
:10109000E2F780239123892B49F4219790F7B12C13
:1010A0008B2DCDB7DEB7E9E00C94DF1DB7018C2F97
:1010B0000E94A90E019789F3F3CFCF93DF93EC0140
:1010C0000E942B08BE010E94A90EDF91CF910895C6
:1010D0001F93CF93DF93EB0190919901992339F0FE
:1010E000CB010E945D08DF91CF911F910895882365
:1010F00069F0CB010E942B08182F682FCE010E94A7
:101100000208BE01812F0E94A90EEDCFCB010E94E3
:101110001708182FF6CFCF93DF93C091C6018091A7
:10112000C7018C1303C0DF91CF910895D0E0CE01A9
:1011300066E070E00E948F1DFC01E853FE4F408185
:10114000518162817381848195810E940E0721966D
:10115000C770E5CF4091F8015091F9016091FA0113
:101160007091FB018091FC019091FD010E940E079E
:1011700008951F93CF93DF938091FD01807F09F045
:101180004EC08091FA01882309F449C02091C6011C
:10119000B091C7014091F801A091F901C091FB0104
:1011A000D091FC01142F1A23B217C9F130E0209717
:1011B00011F01F3F21F42F5F3F4F2770F5CFC9017A
:1011C00066E070E00E948F1DFC01E853FE4F8181B4
:1011D0008A13F1CF80818413EECF82818111EBCF0E
:1011E000838194818C1B9D0B883C910520F7809115
:1011F000FD018F7080618093FD01C90166E070E0A0
:101200000E948F1DFC01E353FE4F90819F709061FF
:10121000908388EF91E00E9491060E948B08DF91F5
:10122000CF911F910895A1E1B0E0E9E1F9E00C94BC
:10123000C21D8C0185E0F801DE011D9601900D9222
:101240008A95E1F7F801E28088EFC82E81E0D82E78
:101250006091FB017091FC016115710509F451C1A8
:101260009091F8013091F901892F83238F3F09F480
:1012700048C140812181A380B480F090FA01F5013A
:10128000E61BF70BFF2009F4ECC08091FD01582FFD
:10129000507FE83CF10508F0A4C051116EC0FE2C4F
:1012A000321316C0941314C0E11012C08F70806105
:1012B0008093FD010E94AA08C6010E9491068091B8
:1012C000FD01F80185838F2D6196EAE00C94DE1D07
:1012D000A114B10429F0842F82238F3F09F02AC181
:1012E00080E0F82FF170DF2EE091C6013091C70148
:1012F00080FD20C0EE2039F38091FD018160809354
:10130000FD01F12CE0CFF0E0CF0166E070E00E943B
:101310008F1DDC01A853BE4F11968C91119782133B
:1013200007C08C91841304C012968C91E812E2CF0E
:101330003196E770E313E7CF4D872E878D859E8525
:101340000E945D08292F22952F70223050F0243002
:1013500078F49F7051F0F8019581907F31F4D12C91
:101360000AC09F7011F08823D1F3805E8830B8F3F3
:10137000C8010E949106FD2CA6CF321306C094131B
:1013800004C0F801EE2009F488C0C8010E94F106EB
:10139000882319F1EE2009F18091FD01803270F06F
:1013A0002091F8013091F90138872F831986BB8687
:1013B000AA868C87CE0107960E94910686E0F801E6
:1013C000A8EFB1E001900D928A95E1F70E94B9086B
:1013D0000E94AA08FF24F39476CFC8010E949106C8
:1013E000F9CF511114C07A2DB98AA88A522F6E2DC7
:1013F00089890E94040788EF91E00E94910686E0A7
:10140000F60111928A95E9F70E94AA087ACF321361
:101410000FC094130DC0E1100BC0F8018583C80103
:101420000E94910686E0F60111928A95E9F74BCF6A
:10143000C8010E94F106882381F2EE2071F28091AA
:10144000FD01803208F4BACF2091F8013091F90102
:101450003A8329831B82BD82AC828E83CE010196A2
:10146000ABCFE83CF10508F03EC0FE2CEE2009F4BD
:10147000B4CF32132AC0941328C08091FD0180FD9F
:101480001BC0982F907FC1F0F8018583903F31F009
:10149000982F907F905F8F70892B8583C8010E9461
:1014A000910686E0F801A8EFB1E001900D928A95CF
:1014B000E1F70E94AA0807CF86E0F801A8EFB1E0A3
:1014C00001900D928A95E1F7FECEC8010E94F106C7
:1014D000811174CF8091FD0181608093FD01C8016D
:1014E0000E949106F0CE7A2DB98AA88A522F6E2DCD
:1014F00089890E94040786E0F60111928A95E9F72E
:10150000D8CFEE2009F469CFC8010E94F106F82E69
:10151000882309F462CF86E0F801A8EFB1E00190DA
:101520000D928A95E1F788EF91E00E9457030E949F
:10153000B908BFCF81E08E25D4CEACE0B0E0E3EABD
:10154000FAE00C94CA1D4F83588769877A878B8786
:101550009C87CE0107960E9413098823A9F08A85EB
:101560009B85892B39F04F815885842F85238F3FA8
:1015700009F071C08091C6019091C701891344C0E0
:101580002C96E2E00C94E61D86E0FE013796DE0123
:10159000119601900D928A95E1F78A859B85892B9A
:1015A00049F388859F8189238F3F21F38091C7016B
:1015B00090E09C012F5F3F4F277033274091C60179
:1015C0004217130671F40E94D1061092C7011092BF
:1015D000C60186E0E8EFF1E0DF011D928A95E9F7A8
:1015E000C9CF66E070E00E948F1DDC01A853BE4F9A
:1015F00096E0FE01319601900D929A95E1F72093C5
:10160000C7010E948B08B6CF90E066E070E00E94B0
:101610008F1D88539E4F0E941309882309F4B0CF71
:101620008091C60190E066E070E00E948F1DFC0191
:10163000E853FE4F4081518162817381848195819D
:101640000E940E078091C60190E00196877099274D
:101650008093C6018FCF69857A858B859C850E9492
:101660000E0788CF682F80910001909101010E94A0
:1016700028160895682F80910001909101010E9421
:101680002B16089580910001909101010E942E1661
:101690000895809106028595859585950895809198
:1016A00006028770089590910602977081E009F410
:1016B00080E0089580911102089590911102892B84
:1016C0008093110208958095909111029823909330
:1016D0001102089510921102089590911002892B21
:1016E0008093100208958095909110029823909312
:1016F0001002089510921002089580910702089533
:1017000008950E94800B089590914E0292FF08C0A8
:1017100090910702981721F0809307020E94810B95
:10172000089580910702882329F01092070280E033
:101730000E94810B0895CF93DF93E0910001F09117
:101740000101809111028083E0910001F09101017B
:10175000808190911002892B8083909107029923B8
:1017600081F0E0910001F09101018081892B80835B
:1017700080910001909101010E94E01581110E9469
:10178000910BC0910001D091010148E050E06EEF53
:1017900071E0CE010E94051E892B59F088E0FE0100
:1017A000AEEFB1E001900D928A95E1F7CE010E9473
:1017B0007D15DF91CF91089508950E94DC0B089567
:1017C00090914E0292FF11C0982F990F990F990F87
:1017D000962B909306020E946007809106028595E1
:1017E000859585950E94DD0B08950E9460070895F8
:1017F0001092060280E00E94DD0B0895909106028F
:101800008095892380930602282F277091F4282F32
:10181000082E000C330B9217130659F090914E02CC
:1018200092FF07C08595859585950E9470070E9457
:10183000F80B089590914E0292FB222720F9281769
:1018400069F080FB92F990934E0280914D02909145
:101850004E020E94620C82E00E94FE0B089580916D
:101860004E0282FB882780F991E089270E941A0C9A
:10187000089581E00E941A0C089580E00E941A0CDD
:1018800008956FEF7FEF90E080E00E94471E08957B
:1018900090E080E00E94231E21E0873E9E4F09F0E9
:1018A00020E0822F089582E090E00E941B1E0895A0
:1018B00083E090E00E941B1E089584E090E00E9467
:1018C000231E0895BC0184E090E00E94471E089505
:1018D000AB01BC018FE090E00E943B1E0895AB017C
:1018E000BC0183E190E00E943B1E089560E070E03F
:1018F000CB010E946F0C089560E070E0CB010E9464
:10190000680C0E94760C089567EE7EEF90E080E010
:101910000E94471E60E082E090E00E94291E60E085
:1019200083E090E00E94291E1092C5011092C4012C
:1019300060E074E184E090E00E94471E60E086E091
:1019400090E00E94291E6FEF87E090E00E94291E20
:1019500040E050E0BA0188E090E00E943B1E60E069
:101960008DE090E00E94291E40E050E0BA0188E13D
:1019700090E00E943B1E60E087E190E00E94291EFB
:1019800040E050E0BA018CE190E00E943B1E70E024
:1019900060E080E290E00E94471E40E050E0BA0123
:1019A00088E190E00E943B1E0E947C0C08950E94FA
:1019B000840C0895682F8EE090E00E94291E0895FF
:1019C0000E94EB16609322027093230280932402FC
:1019D0009093250260931E0270931F028093200251
:1019E000909321020895089508950E94F40C08959B
:1019F00008950E94F80C089583E99FE00E946615FF
:101A00000E94F30C0E94F50C089581E008950E9455
:101A1000050D0895089508950E940A0D0E940B0D6A
:101A200008950E94960F0E94F60208950E94D6160D
:101A30000E9475100E94110D0E94F90C0895AAE0F1
:101A4000B0E0E5E2FDE00C94BF1D0E948B1024E1A4
:101A5000822E22E0922E640110E0F601E190F190D6
:101A60006F01812F0E94BC0F1F5F153009F449C020
:101A7000E816F90691F38091260281FD0E94C50FB8
:101A80000E94070D782E10E0812F0E94BC0F7C0170
:101A9000F401A190B1904F018A159B0561F100E01E
:101AA000CC24C394D12CAE24BF24C5018C219D210C
:101AB000892BC1F07720B1F00E831F8321E0C7018D
:101AC0008C219D21892B09F420E028870E94DF16B4
:101AD0008160782F9A8789874E815F8168858A85A2
:101AE0000E9422030F5FCC0CDD1C0F30F1F6F401D5
:101AF0003297F182E0821F5F153031F60E94E00CD0
:101B000022C0E816F90609F0B6CF0E94DF168C0154
:101B1000809112029091130208171907A1F08FEF1C
:101B200089838A831B820E94DF168160782F9D83C0
:101B30008C8349815A816B818D810E94220310938D
:101B40001302009312020E94B2120E9409032A9605
:101B5000EDE00C94DB1DCF93DF930E94AE0EEC0101
:101B6000811520E59207D0F5811530E4930708F040
:101B700088C0803E910518F58D3C910508F07FC026
:101B8000883A910570F4853A910508F070C081306B
:101B9000910501F10097F1F00497E0F4D0E0C0E086
:101BA00019C0813C9105D0F7C85AD0E0CC0FDD1F99
:101BB000C85BDE4F0990D881C02DD4640BC081155D
:101BC000904208F0ADC0C11581E0D80718F4C83EB6
:101BD000D10520F7CE01DF91CF910895803622E51F
:101BE000920720F5803432E5930708F054C0803224
:101BF000924508F049C0C11582E5D80708F482C0B3
:101C00002C2F2695269530E0A5E0220F331FAA95AC
:101C1000E1F78C2F8370C1E0D0E002C0CC0FDD1F54
:101C20008A95E2F7C22BD32BDD68D4CF803A22E528
:101C3000920760F4803832E5930708F442C0CF7110
:101C4000D0E0DC2FCC27C46FD06AC4CF803C42E503
:101C5000940708F44CC0C03E82E5D80708F09ECF38
:101C6000DC2FCC27CC27DF71C06FD06AB3CFC55A29
:101C7000D0E0C658DE4FC881D0E0D064ABCFD0658D
:101C8000A9CFDF70D06AA6CFCF71D0E0DC2FCC27F0
:101C9000C16FD06A9FCF282F26952695277030E0F8
:101CA000E5E0220F331FEA95E1F78370C1E0D0E051
:101CB00002C0CC0FDD1F8A95E2F7C22BD32BDC6864
:101CC00089CF282F26952695277030E075E0220FC2
:101CD000331F7A95E1F78370C1E0D0E002C0CC0FEA
:101CE000DD1F8A95E2F7C22BD32BDA6873CF8F7191
:101CF0000E94500FC82FD0E0DC2FCC27CC27DF71FB
:101D0000D06268CF8C2F8F710E94500F35E0D6952E
:101D1000C7953A95E1F7CF709C2FEC01D0695ACF67
:101D20008D2F8F710E94500F90E0982F8827882761
:101D30009F719C012C2BE901E3CF462F753030F4C5
:101D40006F3020F4672F0E940F02089590E080E02A
:101D500008950E949D0E0E94AB0D08958238910552
:101D6000B9F1B0F48133910509F47DC048F48932AA
:101D7000910509F46DC08A32910509F47BC008957C
:101D80008533910509F45FC08933910509F1089500
:101D9000833E9105D9F138F4803E910529F1823EC8
:101DA000910579F10895863E9105D9F1873E910517
:101DB00009F43EC0843E910541F520914E0221FF79
:101DC00024C080914D0284FD19C087EE90E00895F3
:101DD00020914D02237009F05AC020914E0223FF3A
:101DE00014C089E290E0089520914D0220FD38C092
:101DF00030914E0230FF09C024FF43C090E080E0E4
:101E0000089520914D0222FDF7CF089520914D02B3
:101E100022FD3AC030914E0230FD39C024FFF5CF8B
:101E2000EDCF20914D0223FFF0CF24FDE7CFCDCFA2
:101E300020914D0223FD2EC030914E0231FFEECF96
:101E400084EE90E0089520914D0225FFDECFC9CFAA
:101E500020914D0225FD21C020914E0223FFD5CFB8
:101E600089E390E0D2CF20914D0226FFCECF8AE2C7
:101E700090E0089520914D0226FFC7CF81E390E0C6
:101E8000089583EE90E0089582EE90E0089580EE4C
:101E900090E0089586EE90E0089585E390E008953F
:101EA00090914D0292FF06C0282F28712830F9F436
:101EB000877F846093FF06C0282F28712831F1F4B2
:101EC000877E846120914E0220FF06C0382F387132
:101ED0003830D9F4877F816021FF06C0282F287110
:101EE0002831D1F4877E816194FD877E0895282F63
:101EF00024712430F9F68B7F8860DCCF282F247181
:101F0000243101F78B7E8861DDCF382F317131307C
:101F100019F78E7F8860E0CF282F2171213121F7BA
:101F20008E7E8861E1CF80E0089508950E94480C7C
:101F3000811102C00E94D70C0E94530C809326028C
:101F40000E945D0C90934E0280934D020E94950F6B
:101F50000E94580C90E00E9424078091C201909149
:101F6000C3010E944507089508950E94B40F089583
:101F700008950E94B80F0895E82FF0E0EE0FFF1FBC
:101F8000E75AFD4F808191810895089580EA8A95EE
:101F9000F1F7089500C008950E94C60F0895F894BF
:101FA000E82FE295EF70F0E031A1282F2F7081E04B
:101FB00090E001C0880F2A95EAF7982F9095932317
:101FC00091A392A1892B82A3789408950F931F93D4
:101FD000CF93DF93CCE8D1E089918F3F11F00E943D
:101FE000CF0F81E0C139D807B9F7CDE7D1E00CE8D0
:101FF00011E089918F3F11F00E94CF0F0C171D0740
:10200000C1F7DF91CF911F910F910895AF92BF92C9
:10201000DF92EF92FF920F931F93CF93DF938C0188
:10202000D62EC62FD0E0CE0184579E4F7C01FC01F6
:1020300020812F3F09F44CC0F894E22FE295EF7015
:10204000F0E031A12F7081E090E001C0880F2A9567
:10205000EAF7932F982B91A392A18095892382A3CD
:1020600078940E94CA0FEDE7F1E041E050E0B12C16
:10207000A12C21912F3FB1F1A22FA295AF70B0E01A
:1020800090968C9190E02F7002C0959587952A9537
:10209000E2F780FD27C0CA01A82AB92A440F551FBC
:1020A00081E0EC38F80729F7F70180818F3F11F0C4
:1020B0000E94CF0F61E0A114B10409F460E08D2DFE
:1020C0000E94CC0FCC0FDD1FC00FD11FB982A88298
:1020D000DF91CF911F910F91FF90EF90DF90BF9014
:1020E000AF90089590E080E0D7CF0E94E60F8AE09D
:1020F000E9E5F2E0DF01982F1D929A95E9F7EFE408
:10210000F2E0DF011D928A95E9F785E00E94C61092
:102110000E9461020895AAE0B0E0E1E9F0E10C94C8
:10212000C71D8E010F5F1F4F8AE0F80111928A953B
:10213000E9F7F12C6F2DC8010E940610F394F5E029
:10214000FF12F8CF4AE050E0B8018FE492E00E941D
:10215000051E21E0009709F420E0892B41F08AE078
:10216000F801AFE4B2E001900D928A95E1F745E005
:1021700069E572E08FE492E00E94C710182F0E9478
:102180006402812F2A96E5E00C94E31D0895CF9216
:10219000DF92EF92FF921F93CF93DF936C017B014D
:1021A000C42F222349F081E0809329020E94DF1688
:1021B00090932802809327021091290211110AC0DE
:1021C00010E0812FDF91CF911F91FF90EF90DF9072
:1021D000CF90089580912702909128020E94F716CF
:1021E000059770F3D0E0CC0FDD1FAE01B601C7013B
:1021F0000E94051E892B41F0AE01B601C7010E9465
:10220000121E10922902DDCF10E0FBCF0E94A01811
:102210000E94160D0E94AD1808950E94B2180E94E7
:102220001F0D0E94CC1808950E947E160E948618E9
:102230000E94FC0C0E9406110E940D110E940C0DC0
:10224000FBCF8091300280FF0DC06091070170E0EC
:10225000660F771F60387105A8F561157105A1F14A
:10226000862F089581FF08C06091070170E0660F16
:10227000771F660F771FEECF6091070170E082FD38
:102280000BC080912F028823D1F02091060160912C
:10229000070170E0821730F043E0660F771F4A9520
:1022A000E1F7D8CF90E00E948F1D33E0880F991F8F
:1022B0003A95E1F7622F70E00E94A01DCBCF68E055
:1022C00070E0CECF8FE7089581E0089580913002CD
:1022D00080FF0CC06091030170E07595679575955E
:1022E00067956115710559F1862F089581FF06C024
:1022F0006091030170E075956795F3CF60910301DC
:1023000070E082FD0CC060912E026623A9F020913E
:1023100002018091030190E0621730F0BC01603847
:102320007105F8F28FE7089570E00E948F1D622F0B
:1023300070E00E94A01DF3CF61E070E0D5CF81E096
:1023400008958D3C31F40E942111819580933402CF
:1023500008958E3C19F40E942111F8CF8F3C31F47E
:102360000E9421118195809333020895803D19F4D4
:102370000E942111F8CF893D29F40E9466118093B3
:10238000350208958A3D21F40E9466118195F7CFA8
:102390008B3D31F40E946611819580933602089539
:1023A0008C3D19F40E946611F8CF9FE2980F983087
:1023B00070F4815D990B21E030E001C0220F8A9515
:1023C000EAF780913202822B8093320208958D3D8C
:1023D00031F48091300281608093300208958E3D07
:1023E00021F4809130028260F7CF8F3DB9F7809160
:1023F00030028460F1CF409133028D3C59F48091DA
:10240000340287FF0DC01092340241110BC01092AC
:102410002F0208C08E3C81F48091340218169CF380
:10242000442381F08091350290913602892B09F086
:102430005AC010922E0208958F3C49F447FFF0CF06
:1024400010923302809134028111ECCFE0CF803DB5
:1024500019F41416ACF3E4CF90913502893D29F4B8
:102460001916F4F610923502DBCF8A3D19F497FF66
:10247000D7CFF8CF909136028B3D29F497FFD0CF7C
:1024800010923602CDCF8C3D19F41916CCF3C8CF7B
:102490009FE2980F983090F4815D990B21E030E035
:1024A000B90102C0660F771F8A95E2F7CB018095CC
:1024B00090913202892380933202B2CF8D3D31F464
:1024C000809130028E7F80933002AACF8E3D21F41E
:1024D000809130028D7FF7CF8F3D09F0A1CF8091A1
:1024E00030028B7FF0CF08950E94DF169C019091FF
:1024F000330280913402982B21F030932D022093E7
:102500002C029091350280913602982B21F0309365
:102510002B0220932A0281E392E00E9488150895FD
:1025200086E0E1E3F2E0DF011D928A95E9F710927F
:102530002F0210922E02109230020895FC01828127
:1025400081110EC0838181110BC08481811108C06B
:1025500091E08581811101C090E0892F81700895FB
:1025600081E0FCCFA6E0B0E0E8EBF2E10C94C91DFD
:1025700086E0E1E3F2E0DE01119601900D928A958A
:10258000E1F7109233021092340210923502109249
:1025900036028B819C81892B89F080912C0290914D
:1025A0002D020E94F716FC0120912F022223C9F16F
:1025B000809108018E171F0608F441C08D819E810D
:1025C000892B91F080912A0290912B020E94F7169C
:1025D000FC0120912E02222309F476C0809104018F
:1025E0008E171F0608F47FC0BE016F5F7F4F81E327
:1025F00092E00E943516811105C081E392E00E94AD
:102600009E1281110E94741286E0FE013196A1E3B0
:10261000B2E001900D928A95E1F72696E3E00C94E2
:10262000E51D8091090190E06AE070E00E948F1D35
:102630008E179F0718F62F5F20932F0202C02F3F9F
:10264000D1F71B81112351F00E9421116FEF111658
:102650000CF461E00E94861D809333021C811123DB
:1026600051F00E9421116FEF11160CF461E00E94ED
:10267000861D8093340280913302882309F49ECF13
:1026800020913402222309F499CF082E000C990BD3
:1026900065EB70E00E948F1D992371F090933302D7
:1026A000822F220F990B65EB70E00E948F1D9923FA
:1026B00039F09093340282CF81E080933302F0CFDF
:1026C00081E0809334027ACF8091050190E06AE046
:1026D00070E00E948F1D8E179F0708F085CF2F5F37
:1026E00020932E0202C02F3FD1F71D81112351F0FC
:1026F0000E9466116FEF11160CF461E00E94861DB6
:10270000809335021E81112351F00E9466116FEFF4
:1027100011160CF461E00E94861D809336028091B0
:102720003502882309F460CF20913602222309F470
:102730005BCF082E000C990B65EB70E00E948F1D9B
:10274000992371F090933502822F220F990B65EB3C
:1027500070E00E948F1D992339F09093360244CF88
:1027600081E080933502F0CF81E0809336023CCF48
:10277000CF93DF93EC01FB018281882309F4D2C05F
:102780009E0130572332310508F0B2C00E945D0C23
:1027900090934E0280934D02FE01E150F047E232E9
:1027A000F10520F4E559F14E0C94B41D80914D02D1
:1027B000816080934D0293C080914E028860809327
:1027C0004E028DC080914D028260F3CF80914D0208
:1027D0008460EFCF80914D028860EBCF80914E02F4
:1027E0008160EDCF80914E028260E9CF80914D02F1
:1027F0008061DFCF80914D028062DBCF80914D02FE
:102800008064D7CF0E94D10680914D028068D1CFDD
:1028100080914D028C60CDCF80914E028360CFCFEE
:1028200080914D028E7FC5CF80914E02877FC7CFAA
:1028300080914D028D7FBDCF80914D028B7FB9CFAE
:1028400080914D02877FB5CF80914E028E7FB7CFAA
:1028500080914E028D7FB3CF80914D028F7EA9CFA4
:1028600080914D028F7DA5CF80914D028F7BA1CFAE
:102870000E94D10680914D028F779BCF80914D02AF
:10288000837F97CF80914E028C7F99CF80914D02AC
:1028900082FB992790F921E0922790FB82F990FB27
:1028A00083F987CF80914E02982F909591708E7FFB
:1028B000892B90FB81F983CF90914D02892F8F7BDB
:1028C00096FF806476CF0E94D10690914D02892FA9
:1028D00097FB87F980586DCF81E00E94DA0C8091D8
:1028E0004D0290914E020E94620C0E94D10680E03F
:1028F000DF91CF91089580E0F0CF90914D02892F24
:102900008F7E94FF806155CF90914D02892F8E7FED
:1029100090FF81604ECF90914E02892F877F93FF69
:1029200088604DCF81E0E4CFCF93DF93EB01863118
:102930009C4711F50E945A0B9A81992399F08A7A43
:1029400091E009F490E090933702811109C089E287
:102950000E94320B0E949B0B80E0DF91CF91089583
:1029600085E3F6CF80913702811104C089E20E948D
:102970003A0BF0CF85E3FBCF81E0EFCF0F931F93AE
:10298000CF93DF93C42FD22FFC0182818823C9F01B
:1029900040933A020E94DF169093390280933802E6
:1029A00080E28C0F883040F4C77081E001C0880F4E
:1029B000CA95EAF70E947404DF91CF911F910F919D
:1029C000089510913A02141332C080913802909108
:1029D00039020E94F716883C910548F5C0E2CD0FF8
:1029E0001D17B9F080E2810F883040F4177081E044
:1029F00001C0880F1A95EAF70E947B04C83048F49A
:102A000081E09D2F977001C0880F9A95EAF70E9488
:102A10007404802F0E946B04C83070F6D77081E078
:102A200001C0880FDA95EAF70E947B04C5CF80E2E7
:102A30008C0F883008F6C77081E001C0880FCA95F6
:102A4000EAF7F2CF0F93DB0188519C47873091055D
:102A5000A0F5FC01E357F14E0C94B41D06E221EE03
:102A600041EE6AE17CE7CD010E94BE1480E00F9147
:102A7000089507E225EE45EE6BE17CE7F4CF06E230
:102A800021EE40EE68E17CE7EECF07E225EE44EE72
:102A900069E17CE7E8CF06E221EE42EE6CE17CE7FB
:102AA000E2CF07E225EE46EE6DE17CE7DCCF08E2FF
:102AB00021E045EE6EE17CE7D6CF12968C9188231B
:102AC00019F010923A02D3CF81E0D1CF90939301C5
:102AD0008093920108959093400280933F0208955D
:102AE000E0913F02F0914002309729F00190F0818F
:102AF000E02D0995089580E00895E0913F02F0915E
:102B00004002309721F00280F381E02D099508956D
:102B1000E0913F02F0914002309739F022E0DC0171
:102B20002C930480F581E02D09950895A3E0B0E091
:102B3000ECE9F5E10C94CA1D20913D0230913E0272
:102B400028173907A1F090933E0280933D02E0914F
:102B50003F02F0914002309751F023E029839B839C
:102B60008A830680F781E02DCE0101960995239690
:102B7000E2E00C94E61DA3E0B0E0E1ECF5E10C949A
:102B8000CA1D20913B0230913C0228173907A1F061
:102B900090933C0280933B02E0913F02F09140020F
:102BA000309751F024E029839B838A830680F78144
:102BB000E02DCE01019609952396E2E00C94E61DE6
:102BC0009C012E5F3F4FAC01485F5F4F80E02417B0
:102BD000350709F40895F90191919F019923B9F3FB
:102BE0008F5FF5CF662349F0FC013296089621915C
:102BF000261729F0E817F907D1F780E0089581E05A
:102C000008959C01FC0132969FEF80E041914617A8
:102C100051F09F3F19F4411101C0982F8F5F86300A
:102C2000A9F79F3F09F40895290F311D97FD3A95A3
:102C3000F90162830895FC013296089621912613CA
:102C400003C0DF0111971C92E817F907B9F708953F
:102C50000E94011608950E941B160895029626E010
:102C6000FC0111922A95E9F7089546E050E00E9490
:102C7000051E21E0892B09F420E0822F0895089594
:102C80000E943F160895811106C081E080934102A1
:102C90000E944016089582E0F9CF83E080934102BC
:102CA0000E94401608950E944316089581E0809383
:102CB00041020E94401608950E94561608950895F4
:102CC00008950E9460160895089508950E945F1661
:102CD0000895CF930E9464160E948B100E9465167F
:102CE000C0E08C2F0E94BC0F892B31F4CF5FC53020
:102CF000C1F780E0CF91089581E0FCCF08951F9245
:102D00001FB61F9211248F939F93AF93BF9380910F
:102D10004202811113C08091630290916402A091DC
:102D20006502B09166024196A11DB11D80936302B8
:102D300090936402A0936502B0936602BF91AF9135
:102D40009F918F911F901FBE1F90189580916B02CD
:102D5000843031F10E94D6021092420288E190E064
:102D600020E40FB6F894A895809360000FBE2093DE
:102D7000600083B7817F846083BF83B7816083BF36
:102D80007894889583B78E7F83BF0FB6F894A89503
:102D900080916000886180936000109260000FBE97
:102DA00008950E94D1060E94DB02089582E084BD4E
:102DB00093E095BD9AEF97BD80936E0008952FB76D
:102DC000F8948091630290916402A0916502B091A1
:102DD00066022FBF08952FB7F89460916302709137
:102DE000640280916502909166022FBF08959C0154
:102DF0004FB7F8948091630290916402A0916502AC
:102E0000B09166024FBF821B930B089578941F9276
:102E10001FB61F9211248F939F93AF93BF938091FE
:102E2000630290916402A0916502B09166020196DE
:102E3000A11DB11D8093630290936402A09365026B
:102E4000B0936602BF91AF919F918F911F901FBE6B
:102E50001F90189581E08093E00080E28093D80075
:102E60001092C9008FE19EE40197F1F700C00000C5
:102E700087E090EBDC018093740290937502A0933D
:102E80007602B093770288E19CE00FB6F894A8959B
:102E9000809360000FBE90936000FFCF88E19CE0BC
:102EA0000FB6F894A895809360000FBE90936000D1
:102EB000FFCF80914B0208959B01BA0190916B0264
:102EC0009430E9F48F708093E9009FEF8091E800DF
:102ED000915085FD06C085ED8A95F1F700009111AE
:102EE000F5CF8091E80085FF0AC050E040E0C901BD
:102EF0000E943E198091E8008E778093E800089543
:102F000043E050E0BC0182E00E945C17089546E077
:102F100050E0BC0182E00E945C170895CF93DF93DC
:102F2000EC0148E050E0BC0181E00E945C1788E0C1
:102F3000FE01A3E4B2E001900D928A95E1F7DF91E2
:102F4000CF9108950E94561608956091670281E01E
:102F5000611101C080E00E944D16089590916B02AE
:102F600081E0943009F080E0609167020E9453167E
:102F7000089542E061EC81E00E94461A42E261EC71
:102F800082E00E94461A90916B0281E0943009F031
:102F900080E0609167020E944316089580916D025F
:102FA000833009F45FC030F48130C1F1823009F41C
:102FB0009CC008958A3009F488C08B3009F46DC034
:102FC000893009F04EC080916C02813209F049C00D
:102FD0008091700290917102029708F042C0809136
:102FE000E800877F8093E8008091E80082FF35C089
:102FF0008091F200823031F48091F100813011F043
:10300000863021F48091F10080934B028091E8009A
:103010008B778093E8000E947A1A23C080916C021B
:10302000813AF9F48091E800877F8093E8008091ED
:10303000700290917102892B61F468E083E492E060
:1030400070E00E948D198091E8008B778093E800F2
:10305000089560E090E080E0F3CF80916B028111F1
:10306000C3CF089580916C02813AD9F780917002A4
:1030700090917102892BA9F78091E800877F809356
:10308000E8008091E80080FFFCCF809112018093DE
:10309000F1008091E8008E77BCCF80916C02813284
:1030A00001F78091700290917102892BD1F6809185
:1030B000E800877F8093E8000E947A1A80916E0270
:1030C000809312010E94D106089580916C02813292
:1030D00041F68091E800877F8093E8000E947A1A89
:1030E00080916F0280934C02089580916C02813A26
:1030F00009F0B7CF8091E800877F8093E800809146
:10310000E80080FFFCCF80914C02C1CF84B7877F5D
:1031100084BF0FB6F894A895809160008861809371
:103120006000109260000FBE80E890E00FB6F89447
:1031300080936100909361000FBE0E945C16089519
:103140000E94CA1A0E941D1BE2EEF0E0808184609A
:10315000808378940E946B1D08958AE091E00E941C
:103160006B15089580916B02853031F480916B026C
:10317000853019F00E94D11608950E94A6168091FC
:103180006902882399F30E946916882379F30E94C3
:1031900028190E94D106EACF08950E94D0180895F8
:1031A000292F33272330310519F168F421303105F7
:1031B00009F444C02230310509F445C090E080E0B4
:1031C00030E020E025C02132310549F122323105BD
:1031D000A9F780E490E026E233E061157105C1F0C3
:1031E0008BE790E02BEA32E06130710589F0E6CFA1
:1031F00099278130910581F0009729F00297F1F627
:10320000E6E3F2E002C0EAE5F2E0849190E09F019B
:10321000FA01318320830895E2E4F2E0F6CF89E0F9
:1032200090E020E732E06115710591F389E090E0CC
:1032300029E832E06130710559F3C0CF82E190E0B6
:1032400029E932E0E5CF8BE390E02EE532E0E0CFF4
:1032500084E089BD86E089BD09B400FEFDCF809180
:10326000D8008F7D8093D8008091E00082608093A9
:10327000E0008091E00081FDFCCF0895AF92BF9205
:10328000CF92DF92FF920F931F93CF93DF936C0146
:10329000EB018A010E94991AF82E811123C00115B1
:1032A000110539F0F80180819181C81BD90BC80E36
:1032B000D91EB12CA12C2097A9F08091E80085FDA2
:1032C00022C08091E8008E778093E80001151105F7
:1032D000A1F0F80180819181A80EB91EB182A0826F
:1032E00085E0F82E8F2DDF91CF911F910F91FF90E8
:1032F000DF90CF90BF90AF9008950E94991A8823D5
:10330000D1F2F82EEFCFF60181916F018093F10099
:103310002197FFEFAF1ABF0ACECFFC018091720256
:103320009091730286179707A0F06115710529F433
:103330009091E8009E779093E80090E06115710508
:1033400051F4911108C08091E80082FF32C080E002
:103350000895BC01F2CF80916B028823B1F18530D2
:10336000B1F18091E80083FD2EC08091E80082FDDC
:10337000EACF8091E80080FFE1CF2091F20030E0B9
:103380006115710519F02830310558F091E02830A9
:10339000310509F090E02091E8002E772093E800B5
:1033A000CDCF81918093F100615071092F5F3F4F24
:1033B000E7CF80916B02882341F0853041F0809106
:1033C000E80083FFC0CF81E0089582E0089583E0A4
:1033D0000895FC01809172029091730286179707FD
:1033E000A0F06115710529F48091E8008E77809333
:1033F000E80090E06115710551F4911108C08091C9
:10340000E80082FF33C080E00895BC01F2CF8091D4
:103410006B028823B9F18530B9F18091E80083FD12
:103420002FC08091E80082FDEACF8091E80080FF04
:10343000E1CF2091F20030E06115710519F02830DC
:10344000310558F091E02830310509F090E0809185
:10345000E8008E778093E800CDCF84918093F100CF
:103460003196615071092F5F3F4FE6CF80916B021B
:10347000882341F0853041F08091E80083FFBFCF81
:1034800081E0089582E0089583E00895982F9530B3
:1034900028F08F708093E90081E008959093E9000F
:1034A000242F762F50E0981731F07091EC00209186
:1034B000ED005091F00021FD02C09F5FE8CF3091F8
:1034C000EB003E7F3093EB003091ED003D7F309379
:1034D000ED003091EB0031603093EB007093EC0025
:1034E0002093ED005093F0002091EE0027FDE5CFF2
:1034F00080E0089580916C0287FF13C08091E800FE
:1035000082FF06C08091E8008B778093E80004C0BA
:1035100080916B028111F2CF089580916B02882314
:10352000D9F38091E80080FFF8CF8091E8008E7792
:10353000ECCF2091E4003091E50095E6A9012091BF
:10354000EC00822F817020FF06C08091E80080FF90
:1035500006C080E008952091E80022FD1AC0809105
:103560006B02882389F0853089F08091EB0085FD1E
:103570000FC02091E4003091E50042175307F9F2A3
:103580009150E1F684E0089582E0089583E0089583
:1035900081E008950E94281B0E942B1BE0EEF0E0C2
:1035A000808181608083E8EDF0E080818F77808387
:1035B00019BCE3E6F0E080818160808310926A02AA
:1035C00008950E94281B0E942B1B8091D8008F77A2
:1035D0008093D8008091D80080688093D800809133
:1035E000D8008F7D8093D80084E089BD86E089BDB6
:1035F00009B400FEFDCF10926B0210926702109288
:1036000069021092680242E060E080E00E94461A7F
:103610008091E1008E7F8093E1008091E2008160E3
:103620008093E2008091E20088608093E2008091C4
:10363000E0008E7F8093E0000895E3E6F0E0808173
:103640008E7F808381E080936A020E94E11A089550
:103650001092E20008951092E10008951F920F92D7
:103660000FB60F9211242F933F934F935F936F9355
:103670007F938F939F93AF93BF93EF93FF9380912B
:10368000E10082FF0BC08091E20082FF07C08091C1
:10369000E1008B7F8093E1000E946A1D8091E10030
:1036A00080FF19C08091E20080FF15C08091E20088
:1036B0008E7F8093E2008091E20080618093E2003F
:1036C0008091D80080628093D80019BC85E08093F7
:1036D0006B020E94A5178091E10084FF2BC08091AE
:1036E000E20084FF27C084E089BD86E089BD89B5FA
:1036F000982F917080FFFBCF8091D8008F7D8093B1
:10370000D8008091E1008F7E8093E1008091E200FB
:103710008F7E8093E2008091E20081608093E200DE
:1037200080916702882309F443C084E080936B0290
:103730000E94AE178091E10083FF29C08091E200D2
:1037400083FF25C08091E100877F8093E10082E0C4
:1037500080936B02109267028091E1008E7F8093CC
:10376000E1008091E2008E7F8093E2008091E20090
:1037700080618093E20042E060E080E00E94461AAF
:103780008091F00088608093F0000E94A217FF9162
:10379000EF91BF91AF919F918F917F916F915F91C9
:1037A0004F913F912F910F900FBE0F901F90189542
:1037B0008091E30087FD93E090936B02B9CF1F9255
:1037C0000F920FB60F9211242F933F934F935F9355
:1037D0006F937F938F939F93AF93BF93CF93DF9319
:1037E000EF93FF93D091E900DF708091EC00C82F38
:1037F000C17080FDC0E81092E9008091F000877FE1
:103800008093F00078940E94231C1092E90080912C
:10381000F00088608093F000CD2BCF70C093E9005A
:10382000FF91EF91DF91CF91BF91AF919F918F91D8
:103830007F916F915F914F913F912F910F900FBEAC
:103840000F901F901895AAE2B0E0E9E2FCE10C9419
:10385000C91D8CE692E02091F100FC012193CF017B
:10386000F2E084379F07B9F70E94CE178091E800F5
:1038700083FF1EC180916C0290916D029A3008F016
:1038800017C1E92FF0E0EC56F14E0C94B41D8038CE
:1038900099F0823809F00CC1809170028F708530E8
:1038A00008F006C18093E9008091EB0085FB882732
:1038B00080F91092E90006C0809168029091690237
:1038C000911182609091E800977F9093E800809337
:1038D000F1001092F1008091E8008E77E5C0882316
:1038E00009F4D3C0823009F0E3C080916E028111E7
:1038F000D6C0809170028F702FEF280F243008F00F
:10390000D7C08093E9002091EB0020FFC8C093301E
:1039100031F48091EB0080628093EB00C0C0909105
:10392000EB0090619093EB0021E030E001C0220FAA
:103930008A95EAF72093EA001092EA008091EB0062
:103940008860EACF8111B4C010916E021F77809118
:10395000E3008078812B8093E3008091E800877FEB
:103960008093E8000E947A1A8091E80080FFFCCFE3
:103970008091E30080688093E30082E0111183E08E
:1039800080936B0295C08058823008F091C080917E
:103990006E0290916F028C3D23E09207A1F583E0C7
:1039A0008A838AE289834FB7F894DE01139620E078
:1039B0003EE051E2E32FF0E050935700E49120FF06
:1039C00003C0E295EF703F5FEF708E2F90E0EA301A
:1039D000C0F0C7968D939D932F5F243159F74FBF49
:1039E0008091E800877F8093E8006AE270E0CE0172
:1039F00001960E948D198091E8008B778093E800F2
:103A000057C0C096E7CF6091700270917102AE010D
:103A10004F5F5F4F0E94CD18BC01892B09F448C04D
:103A20009091E800977F9093E80089819A810E94A5
:103A3000E919E1CF8038E1F58091E800877F809334
:103A4000E800809167028093F10045CF811130C07A
:103A500090916E02923060F58091E800877F8093AC
:103A6000E800909367020E947A1A80916702882387
:103A700011F084E005C08091E30087FDFACF81E07A
:103A800080936B020E94B91713C080916E0281303F
:103A900079F481E0933009F080E08093690210921C
:103AA000E9008091E800877F8093E8000E947A1AFD
:103AB0008091E80083FF0AC08091E800877F8093AF
:103AC000E8008091EB0080628093EB00AA96E3E02F
:103AD0000C94E51D0895CF9380916B028823A1F08B
:103AE000C091E900CF709091EC00892F817090FD1A
:103AF00080E8C82B1092E9008091E80083FD0E94C5
:103B0000231CCF70C093E900CF910895002480FD5D
:103B1000060E660F11F08695D1F7802D08950024CA
:103B2000552704C0080E591F880F991F009729F0C8
:103B300076956795B8F37105B9F7802D952F08959F
:103B400097FB072E16F4009407D077FD09D00E944A
:103B5000F11D07FC05D03EF4909581959F4F089587
:103B6000709561957F4F0895EE0FFF1F0590F491BA
:103B7000E02D09942F923F924F925F926F927F9225
:103B80008F929F92AF92BF92CF92DF92EF92FF926D
:103B90000F931F93CF93DF93CDB7DEB7CA1BDB0B19
:103BA0000FB6F894DEBF0FBECDBF09942A883988BE
:103BB00048885F846E847D848C849B84AA84B984C5
:103BC000C884DF80EE80FD800C811B81AA81B981D1
:103BD000CE0FD11D0FB6F894DEBF0FBECDBFED01E5
:103BE0000895AA1BBB1B51E107C0AA1FBB1FA61744
:103BF000B70710F0A61BB70B881F991F5A95A9F796
:103C000080959095BC01CD010895FB01DC0104C0B5
:103C10008D910190801921F441505040C8F7881BC4
:103C2000990B0895FB01DC0102C001900D924150F7
:103C30005040D8F70895F999FECF92BD81BDF89A0A
:103C4000992780B50895A8E1B0E042E050E00C94D7
:103C50004F1E262FF999FECF92BD81BDF89A01978C
:103C600000B4021639F01FBA20BD0FB6F894FA9AC4
:103C7000F99A0FBE08950396272F0E942A1E0E94CC
:103C8000291E252F0E942A1E242F0C942A1E0196DD
:103C9000272F0E942A1E0C94291EDC01CB01FC0157
:103CA000F999FECF06C0F2BDE1BDF89A319600B495
:103CB0000D9241505040B8F70895F894FFCFBD04DD
:103CC000BD04EE04EE0480059C051D051D05A1053F
:103CD000120621062106101484141814E213E613A8
:103CE0001C14EA1320142C14F6137D14FA13301448
:103CF000FE1334145C1402143814631408143E14B4
:103D00004614EE132414F21328140C144214521403
:103D10006C147B14DC1314148B143F1545152E15ED
:103D200039154B1551155715471C6F1C581D6F1C25
:0C3D3000581DA21CC31C581D1A1D261D86
:103D3C000802280850011E0A140159178E178717FC
:103D4C00801701E200E900EA00B500B600B700CD2B
:103D5C00008301CC008A01920194012102230224E8
:103D6C00022502260227022A02B300B4006F00705B
:103D7C00009F01CB01818283E200E900EA00B500DB
:103D8C00B600B700CD008301CC008A0192019401EA
:103D9C002102230224022502260227022A02B30052
:103DAC00B4006F0070009F01CB01818283663635B1
:103DBC003433323196959493929190626564306766
:023DCC003700BE
:00000001FF
