:100000000C942A040C9471040C9471040C947104E3
:100010000C9471040C9471040C9471040C9471048C
:100020000C9471040C9471040C94141C0C94E61C34
:100030000C9460170C9471040C9471040C9471046A
:100040000C9471040C9471040C9471040C9471045C
:100050000C9471040C94B9170C9471040C947104F1
:100060000C9471040C9471040C9471040C9471043C
:100070000C9471040C9471040C9471040C9471042C
:100080000C9471040C9471040C9471040C9471041C
:100090000C9471040C9471040C9471040C9471040C
:1000A0000C9471040C9471040C9471041D0D1D0DBD
:1000B0004F0D4F0D9C0DD00ED00ED00EBA0D4F0E21
:1000C000600E600EC00ED00ED00EC90E6C0F6C0FFD
:1000D0007E0F7E0F750F7E0F7E0F7E0F6C0F6C0FE5
:1000E0007A0F7E0F7E0F7A0F531D7A1D721E7A1DB6
:1000F000721EC61DE91D721E401E4F1E165C1E009C
:100100001F002000210022002300240025002600DB
:1001100027002D002E0000002A002B0014001A00DA
:100120000800150017001C0018000C001200130036
:100130002F00300031000000394104001600070094
:1001400009000A000B000D000E000F003300340000
:10015000000028000000E10000001D001B00060058
:100160001900050011001000360037003800E500C6
:1001700000000000E000E300E200000000000000DA
:100180002C00000000000000E600E700E400015140
:10019000000001003A003B003C003D003E003F00F3
:1001A00040004100420043004400450000004C0074
:1001B00001000100520001000100010001000100E6
:1001C0000100010001000100010001000000010028
:1001D000500051004F00010001000100010001002A
:1001E0004B000100010000000100000001000000C0
:1001F000AA00A900A80001000100010001000100FF
:100200004E0052000100000000000100010001004A
:10021000000000000000010000000000000050008D
:1002200051004F0001000000010001000100010029
:1002300001000100010001000100010001000100B6
:1002400001000000010001000100010001000100A7
:100250000100010001000100010001000100010096
:100260000100000001000100010001000100010087
:100270000100010001000100010001000000010077
:100280000000010000000100010001000100010068
:100290000100010001000100010001000000000058
:1002A000010001000100000000000000010000004A
:1002B0000000000001000100010001000000010039
:1002C0000100010001000100010001000100010026
:1002D0000100010001000100000001000100010017
:1002E0000100010001000100010001000100010006
:1002F00001000100010001000000010001000100F7
:1003000001000100010001000100010001000100E5
:1003100001000000010000000100000001000100D8
:1003200001000100010001000100010001000100C5
:1003300001000000000001000100010000000000B9
:1003400000000100000000000000010001000100A9
:100350000100000001000100010001000100010096
:100360000100010001000100010001000100000086
:100370000100010001000100010001000100010075
:100380000100010001000100010001000100000066
:100390000100010001000100010001000100010055
:1003A0000100010001000100000001000000010047
:1003B0000000010001000100010001000100010036
:1003C0000100010001000100000000000100010027
:1003D000010000000000000001000000000000001B
:1003E0000100010001000100000001000100010006
:1003F00001000100010001000100010001000100F5
:1004000001000100000001000100010001000100E5
:1004100001000100010001000100010001000100D4
:1004200001000100000001000100010001000100C5
:1004300001000100010001000100010001000000B5
:1004400001000000010000000100010001000100A6
:100450000100010001000100010001000100000095
:100460000000010001000100000000000000010088
:100470000000000000000100010001000100000078
:100480000100010001000100010001000100010064
:100490000100010001000100010000000100010055
:1004A0000100010001000100010001000100010044
:1004B0000100010001000100010000000100010035
:1004C0000100010001000100010001000100010024
:1004D0000100010000000100000001000000010017
:1004E0000100010001000100010001000100010004
:1004F00001000100000000000100010001000000F7
:1005000000000000010000000000000001000100E8
:1005100001000100000001000100010001000100D4
:1005200001000100010001000100010001000100C3
:1005300000000100010001000100010001000100B4
:1005400001000100010001000100010001000100A3
:100550000000010001000100010001000100010094
:100560000100010001000100010000000100000085
:100570000100000001000100010001000100010074
:100580000100010001000100010000000000010065
:100590000100010000000000000001000000000058
:1005A0000000010001000100010000000100010045
:1005B0000100010001000100010001000100010033
:1005C0000100010001000000010001000100010024
:1005D0000100010001000100010001000100010013
:1005E0000100010001000000010001000100010004
:1005F00001000100010001000100010001000100F3
:1006000000000100000001000000010001000100E5
:1006100001000100010001000100010001000100D2
:1006200000000000010001000100000000000000C7
:1006300001000000000000000100010001000100B5
:1006400000000100010001000100010001000100A3
:100650000100010001000100010001000000010093
:100660000100010001000100010001000100010082
:100670000100010001000100010001000000010073
:100680000100010001000100010001000100010062
:100690000100010001000000010000000100000055
:1006A0000100010001000100010001000100010042
:1006B0000100010001000000000001000100010034
:1006C0000000000000000100000000000000010028
:1006D0000100010001000000000000000000000017
:1006E000000000000000000000000000000000000A
:1006F00000000000000000000000000000000000FA
:1007000000000000000000000000000000000000E9
:1007100000000000000000000000000000000000D9
:1007200000000000000000000000000000000000C9
:1007300000000000000000000000000000000000B9
:1007400000000000000000000000000000000000A9
:100750000000000000000000000000000000000099
:100760000000000000000000000001000000100375
:1007700050006C00610069006E003600300000001F
:100780000E0345007600790064003100330000005C
:100790000403090409023B00020100A0FA09040055
:1007A000000103010100092111010001224000079D
:1007B00005810308000A0904010001030000000983
:1007C00021110100012232000705820320000A12D4
:1007D000011001000000080547600101000102004E
:1007E0000105010980A101850319012AB70015013E
:1007F00026B700950175108100C0050C0901A10103
:10080000850419012AA002150126A0029501751080
:100810008100C005010906A101050719E029E715B6
:100820000025019508750181029501750881010572
:1008300007190029FF150026FF009506750881009D
:1008400005081901290595057501910295017503A2
:100850009101C00011241FBECFEFDAE0DEBFCDBF93
:1008600004B603FE27C08091590290915A02A091CC
:100870005B02B0915C028730904BA740B04BD1F443
:100880001092590210925A0210925B0210925C026E
:1008900014BE84B7877F84BF0FB6F894A895809163
:1008A0006000886180936000109260000FBEE0E0FD
:1008B000F8E3099511E0A0E0B1E0E0EEFDE302C04D
:1008C00005900D92A438B107D9F722E0A4E8B1E071
:1008D00001C01D92A935B207E1F70E944E190C9490
:1008E000EE1E0C94000081E0089581E008950C94C0
:1008F000750408950C9479041F93CF93DF9300D06F
:1009000000D01F92CDB7DEB749835A836B833091F5
:10091000A60189819A81311114C0662359F02223DE
:1009200049F00E94A514182F682F89819A810E948E
:100930004E1403C00E947914182F69817A81812F87
:1009400004C00E94A51469817A810F900F900F90C6
:100950000F900F90DF91CF911F910C943F05FC01F8
:10096000262F408151816281738184810C947C04A3
:10097000CF93DF93EC0160E00E94AF04BE01DF91F2
:10098000CF910C947A040E945B070C9498070C9406
:10099000940708950E945A0F0E94C9042FEF84E320
:1009A0009CE0215080409040E1F700C000000C9492
:1009B000DF170F931F93CF93DF938C0161E00E94A9
:1009C000AF04EC01B8010E9477048823F1F1B8016B
:1009D000CE010E941F098823C1F1B801CE010E94F7
:1009E0007109882391F1B801CE010E949C0A8823E5
:1009F00061F1F8018281882309F1CB358DE5D807B3
:100A0000C1F050F4C115FCE5DF0781F0CF3DDC45B6
:100A1000A9F40E94B61619C0CC35EDE5DE0761F0E9
:100A2000CD35DD4559F40E94381508C00E94CA042E
:100A30000CC00E94411502C00E944415C801DF91FC
:100A4000CF911F910F910C94730480E0DF91CF91AF
:100A50001F910F91089508950C942B0581E008953E
:100A60000C942E05CF93C82F0E942C058C2F0E942A
:100A70003005CF91089580E090E0089508952BE42B
:100A8000829FC0011124FC012FE0729FE00DF11D37
:100A90001124E60FF11DEE0FFF1FE450FF4F85916B
:100AA00094910895880F991FFC01E259F84F8591A0
:100AB00094910895CF93DF930E943F050E946C06A6
:100AC000EC018115904508F043C0C11580E4D807BA
:100AD00008F0CBC0C03ED10528F5C03CD10508F0D8
:100AE000B3C0C83AD10578F4C53AD10508F0A4C01E
:100AF000C130D10509F4ECC008F4E8C0C430D10518
:100B000008F0E6C0E3C0CF3BD10508F0DFC0C85A0B
:100B1000D0E0CC0FDD1FC35FDE4F0990D881C02D20
:100B2000D464D6C0C11590E2D90750F4C11521E0B4
:100B3000D20708F0CDC0C83ED10508F4C9C0C6C070
:100B4000C11580E3D80708F086C0CE019F707FC032
:100B5000C11595E5D90708F043C0C11524E5D207B2
:100B600008F09AC0C11582E5D80708F5C11591E5CE
:100B7000D90708F07DC0CE0174E0969587957A95E7
:100B8000E1F783709C2F937021E030E002C0220FC8
:100B9000331F9A95E2F73C68382BCF70C695C695FF
:100BA00080E2C89FE0011124C22BD32B91C09E018B
:100BB000237033278C2F86958695C115D34508F071
:100BC0005CC0C1E0D0E002C0CC0FDD1F2A95E2F787
:100BD00020E2829FC0011124C82BD92BDC6878C089
:100BE000C11529E5D207A0F4C11588E5D80708F09A
:100BF00058C0C11596E5D90708F068C08C2F0E942F
:100C000000078F71C82FD0E0DC2FCC27D06260C0E6
:100C1000C1152AE5D20708F449C0CE0190568115C6
:100C2000904208F053C08D2F8F710E940007DD277E
:100C3000D0628F71D82B4CC0C55AD0E0C55CDE4F56
:100C4000C881D0E0D06444C0CE01805C91090E948C
:100C50005205EC013DC0CE019927D3FF03C0EC0142
:100C6000D86C36C0EC01D06C33C0DF70D06A30C0B5
:100C7000DC2FCC27C16FD06A2BC0C1E0D0E002C00E
:100C8000CC0FDD1F2A95E2F720E2829FC0011124DC
:100C9000C82BD92BDA681CC0DC2FCC27C46FD06AD4
:100CA00017C0DC2FCC27C06FD06A12C08C2F8F707A
:100CB0000E94000794E0D695C7959A95E1F7CF700A
:100CC000D0E0DC2FCC27D069C82B02C0C0E0D0E038
:100CD000CE01DF91CF9108958238910569F1B0F48A
:100CE0008133910509F46DC048F48932910509F406
:100CF00063C08A32910509F469C00895853391056E
:100D000009F455C089339105B9F00895833E9105E2
:100D100069F138F4803E9105B1F0823E910509F108
:100D20000895863E9105A9F1873E9105B9F1843E6B
:100D3000910509F064C023C02091320220FD4FC00C
:100D400021FD4DC008958091320280FD44C0809104
:100D5000330280FF44C08091320284FD42C083EEA2
:100D60004DC08091320282FF38C0F5CF80913202AF
:100D700082FD33C08091330280FD31C0ECCF809181
:100D8000330281FF32C08091320284FD2AC087EE97
:100D900035C08091320283FF26C0F5CF80913202A8
:100DA00083FD21C08091330281FD1FC0ECCF809173
:100DB000320285FD1CC01DC08091320285FD19C024
:100DC00016C08091320286FD16C017C08091320293
:100DD00086FD13C010C089E311C082EE0FC080EE03
:100DE0000DC080E00BC086EE09C084EE07C089E22A
:100DF00005C085E303C08AE201C081E390E0089565
:100E00009091320292FF0DC0282F2871283019F4DA
:100E1000877F846006C0282F2471243011F48B7FD3
:100E2000886093FF0DC0282F2871283119F4877E20
:100E3000846106C0282F2471243111F48B7E8861CF
:100E40002091330220FF0DC0382F3871383019F44B
:100E5000877F816006C0382F3171313011F48E7F69
:100E6000886021FF0DC0282F2871283119F4877E52
:100E7000816106C0282F2171213111F48E7E886195
:100E800094FD877E08950C9408160E94E3078FE373
:100E90009CE90197F1F700C000000E94E30780E0A1
:100EA0000E947F0780FF04C00E9443070C94DF1755
:100EB00008950C9445070E940E16811102C00E94ED
:100EC000B6160E941916809326020E94211690934E
:100ED0003302809332020E9459070E941D16682F28
:100EE00070E080E090E00E945013609111027091D8
:100EF000120280911302909114020C948813E82F2F
:100F0000F0E0EE0FFF1FE25CFD4F808191810895BC
:100F1000089580EA8A95F1F7089500C008950C9429
:100F2000890708950C9491070C9492070C949107EB
:100F30000C949607F894E82FE295EF70F0E031A159
:100F4000282F2F7081E090E001C0880F2A95EAF7E2
:100F5000982F9095932391A392A1892B82A37894A3
:100F600008950F931F93CF93DF9384E30E949A0712
:100F700087E90E949A0786E90E949A0784E90E94FD
:100F80009A0786EC0E949A07CEE3D1E00DE411E0C7
:100F900089910E949A070C171D07D1F7E4E3F2E04C
:100FA000AEE3B2E0119211921D921D9282E0EE33F7
:100FB000F807C1F785E00E947108DF91CF911F917A
:100FC0000F910C94C3047F928F929F92AF92BF9225
:100FD000CF92DF92EF92FF920F931F93CF93DF9305
:100FE000CDE4D1E084E3A82E82E0B82E9EE3E92E82
:100FF00092E0F92E712C01E010E06E018881F894E6
:10100000E82FE295EF70F0E021A18F70A80102C0F7
:10101000440F551F8A95E2F7CA01922F982B91A38E
:1010200092A18095892382A378940E948D07EEE394
:10103000F1E020E030E0812C912C4191A42FA29589
:10104000AF70B0E090968C9190E04F7002C0959593
:1010500087954A95E2F780FD08C0C801022E02C0BC
:10106000880F991F0A94E2F702C080E090E0882A76
:10107000992A2F5F3F4F2F303105F9F62196F6015F
:1010800080810E949A070E948F07F50180819181DB
:101090008816990621F09182808281E001C080E06B
:1010A000782AF2E0AF0EB11CEA14FB0409F0A5CFD8
:1010B000272D45E06EE372E084E392E00E9472081F
:1010C0000E94C704872DDF91CF911F910F91FF9050
:1010D000EF90DF90CF90BF90AF909F908F907F90D8
:1010E00008950895FF920F931F93CF93DF93F82EE7
:1010F000092F162FD72FC42F222349F081E0809388
:1011000088010E94921790938701809386018091B5
:1011100088018823D9F080918601909187010E94EF
:10112000AA17069798F0EF2DF02FA12FBD2F80E082
:1011300090E04C2F50E08417950734F421913191C1
:101140002D933D930196F7CF10928801DF91CF91B7
:101150001F910F91FF9008950F931F93CF93DF93EB
:10116000C42FD22FFC0182818823C9F040938B01C8
:101170000E94921790938A018093890180E28C0FDC
:10118000883008F057C0C77081E001C0880FCA9549
:10119000EAF7DF91CF911F910F910C94DC0C8091B5
:1011A0008B01481330C08091890190918A010E947F
:1011B000AA17883C910538F510E21D0FCD17B9F03C
:1011C00080E28C0F883040F4C77081E001C0880F46
:1011D000CA95EAF70E94E30C183028F581E09D2FAC
:1011E000977001C0880F9A95EAF70E94DC0C802F57
:1011F0000E94D30C1830F0F4D77081E001C0880F42
:10120000DA95EAF70AC080E28C0F883098F4C7704C
:1012100081E001C0880FCA95EAF7DF91CF911F9155
:101220000F910C94E30C802FDF91CF911F910F91C0
:101230000C94D30CDF91CF911F910F9108950F93D0
:101240009C01CB01243F4CE5340731F188F4293D62
:10125000FCE53F07D9F02A3D4CE5340779F1283DFC
:101260003C45A9F506E221EE41EE68ED7CE52BC098
:10127000263FFCE53F07E1F0A8F0273F3C4539F564
:1012800007E225EE46EE67EF7CE51DC007E225EE9E
:1012900045EE69ED7CE517C006E221EE40EE64EF15
:1012A0007CE511C007E225EE44EE65EF7CE50BC05E
:1012B00006E221EE42EE66EF7CE505C008E221E0A1
:1012C00045EE6AED7CE50E94AC0880E008C0FC01B8
:1012D0008281882319F010928B0101C081E00F9167
:1012E0000895CF93DF93EC01FB018281882309F4F9
:1012F0001FC1C230FCE5DF0708F41BC1C6319CE505
:10130000D90738F09E012B5F3C452930310508F0A4
:1013100010C10E9421169093330280933202C03193
:10132000ECE5DE0709F4C3C008F041C0C8308CE525
:10133000D80709F49AC0F0F4C430ECE5DE0709F4EC
:1013400087C068F4C2308CE5D80709F477C0C33091
:10135000DC4509F0E3C080913202826076C0C6307D
:10136000ECE5DE0709F46EC008F07BC08091320224
:1013700088606BC0CC308CE5D80709F485C068F470
:10138000CA30ECE5DE0709F474C008F079C00E94A9
:101390005A0F80913202806858C0CE308CE5D80751
:1013A00009F476C008F07FC0809132028BC0CC3F38
:1013B000ECE5DE0709F44FC018F5C3318CE5D8071A
:1013C00009F47DC078F4C131ECE5DE0709F473C09F
:1013D000C231DC4509F0A2C00E945A0F809132024E
:1013E0008F7733C0C5318CE5D80709F472C008F493
:1013F00086C0CB3FDC4509F091C0809133023EC0EE
:10140000C115FDE5DF0709F45FC058F4CE3F9CE548
:10141000D90709F444C008F43FC0809133028260C8
:101420002DC0C230FDE5DF0709F475C008F45DC0CA
:10143000C330DD4509F072C080E06EC08091320299
:10144000816003C08091320280618093320266C065
:101450008091320211C08091330282608093330206
:101460005DC0809132028062F0CF80913202806450
:10147000ECCF8091320288608460E7CF8160EECF4C
:10148000809132028E7FE1CF809132028D7FDDCF5D
:1014900080913202877FD9CF8091330218C080912A
:1014A00033028D7FDBCF809132028F7ECECF809151
:1014B00032028F7DCACF809132028F7BC6CF80915E
:1014C0003202877F8B7FC1CF809133028D7F8E7FE9
:1014D000C5CF8091320282FB222720F991E092272A
:1014E00090FB82F990FB83F9B0CF80913302982F63
:1014F000909591708E7F892B90FB81F9AFCF0E94E0
:101500005A0F8091320287FB222720F991E092271F
:1015100090FB87F99ACF81E00E94B8168091320241
:10152000909133020E9432160E945A0F80E001C04F
:1015300081E0DF91CF910895CF93DF9386319C4571
:1015400041F5EB010E944715982F8A8120910001F7
:1015500030910101882379F09A7A81E009F480E0E2
:1015600080938C01911102C069E201C065E3C90159
:101570000E94FF160AC080918C01811102C069E2AD
:1015800001C065E3C9010E9401170E94991580E01E
:1015900001C081E0DF91CF910895909392018093F3
:1015A00091010895E0919101F0919201309721F01D
:1015B0000190F081E02D099480E00895E09191017F
:1015C000F0919201309721F00280F381E02D09948F
:1015D000089520918F01309190012817390771F0FB
:1015E0009093900180938F01E0919101F09192018D
:1015F000309721F00680F781E02D0994089520911D
:101600008D0130918E012817390771F090938E016A
:1016100080938D01E0919101F0919201309721F03A
:101620000084F185E02D099408950E949E1760932F
:10163000A2017093A3018093A4019093A5016093EC
:101640009E0170939F018093A0019093A101089542
:1016500085B7806885BF85B7806885BF089581E0BC
:1016600008950C942F0B08950C94330B0C94330BAA
:101670000C94360B0C94330B0C943A0B0C94330BE8
:101680000E94280B86E096E10E9403180E943E0B00
:101690000C943C0B0E94340B0C94330B0E94891762
:1016A0000E94B1070C94380B6F927F928F929F9299
:1016B000AF92BF92CF92DF92EF92FF920F931F9360
:1016C000CF93DF93CDB7DEB72A970FB6F894DEBF7E
:1016D0000FBECDBF0E94E30781110E94150B34E9B4
:1016E000832E31E0932E00E010E0C02E802F0E9468
:1016F0007F075C01F401619071904F0168267926A3
:1017000061147104B1F40F5F1F4F0530110569F7C3
:101710008FEF89838A831B820E9492178160782FC2
:101720009D838C8349815A816B818D810E94080C35
:101730003AC08091260281FD0E948807D12CEE24B8
:10174000E394F12CC3018E219F21892B29F10E9462
:10175000310B8823A9F0DE82CF82AE20BF2081E04A
:10176000AB2809F480E088870E9492178160782F67
:101770009A8789874E815F8168858A850E94080CD7
:10178000000F111FF801EC56FE4F80819181E82671
:10179000F926F182E08207C0D394EE0CFF1CFFE033
:1017A000DF12D0CFB0CF0E94D20A90919301891757
:1017B000D1F00E94D20A809393012A960FB6F89432
:1017C000DEBF0FBECDBFDF91CF911F910F91FF9074
:1017D000EF90DF90CF90BF90AF909F908F907F90D1
:1017E0006F900C9432052A960FB6F894DEBF0FBEA8
:1017F000CDBFDF91CF911F910F91FF90EF90DF90C0
:10180000CF90BF90AF909F908F907F906F900895F2
:10181000DF92EF92FF920F931F93CF93DF93CDB799
:10182000DEB72B970FB6F894DEBF0FBECDBFF42EF8
:10183000052F162FE72ED82E61110E946715FE0185
:10184000319686E0DF011D928A95E9F77E2D4F2DB6
:10185000502F612F8D2D9E810E9413122B960FB653
:10186000F894DEBF0FBECDBFDF91CF911F910F91D6
:10187000FF90EF90DF900895FC01808191810E949C
:10188000E7140895CF93882309F448C0C82F8CEF3C
:101890008C0F813AD0F46C2F80910001909101015E
:1018A0000E94C916882349F06C2F80910001909105
:1018B00001010E9401170E9499156C2F809100016F
:1018C000909101010E94FF160CC080E28C0F8830BD
:1018D00058F4C77081E001C0880FCA95EAF70E94EA
:1018E0004A15CF910C949915EBE5EC0FE33040F4D9
:1018F000F0E0E058FE4F808190E0CF910C94E90A2F
:10190000C85AC73158F4EC2FF0E0EE0FFF1FEE5A23
:10191000FE4F80819181CF910C94FF0ACF91089561
:10192000882349F1682F8CEF860F813A38F4809133
:101930000001909101010E9401170CC080E2860F06
:10194000883050F4677081E001C0880F6A95EAF72B
:101950000E9450150C9499158BE5860F833020F466
:1019600080E090E00C94E90A685A673120F480E046
:1019700090E00C94FF0A08951F93CF93DF93182FE4
:10198000EB010E94420C209741F08FE99FE0019704
:10199000F1F700C000002197F6CF812FDF91CF91A2
:1019A0001F910C94900C893319F060E070E002C034
:1019B00060E570E00C94BC0C882321F00E944A156D
:1019C0000C9499150895882321F00E9450150C94C9
:1019D00099150895CF92DF92EF92FF920F931F9384
:1019E000CF93DF937C01062FC72FFC01D281158195
:1019F00012951F700E941F15882399F0DD2389F02E
:101A00008C2F807F803421F080E2800F883048F076
:101A100082E00E94E9150E941F1591E0D82ED92678
:101A200001C0D12CCC2EC2948FE0C8228C2D90E026
:101A3000FC01EA5AFF4F0C94A61E8C2F807FCF70BA
:101A4000882311F0C295C07FDD2399F0CC2309F4DF
:101A500082C180E2800F883010F0011104C08C2F09
:101A60000E944A1503C08C2F0E945A150E94991596
:101A700072C1802F0E94900CCC2309F491C180E2A6
:101A8000800F883010F0011104C08C2F0E94501577
:101A900003C08C2F0E9460150E94991581C18C2F64
:101AA000807FCF70803211F0C295C07F002319F083
:101AB0000130C9F022C0DD2371F0112341F0113053
:101AC00031F40E947A158C2B0E94821569C10E9404
:101AD0007A158C2B1DC0112319F0113009F460C147
:101AE0000E948F1525C0DD2321F0163008F058C163
:101AF0000EC0153008F054C11BC0DD2361F0112366
:101B000031F0F701858180FF26C18F7085838C2F8E
:101B10000E94DC0C45C1112359F0093309F02CC196
:101B2000FFEF27EE83E0F15020408040E1F722C133
:101B30008C2F0E94E30C34C18C2F86958695837080
:101B400019F0813061F02CC1DD2321F0802F9C2F12
:101B5000937002C080E090E00E94E90A29C1DD2371
:101B600021F0802F9C2F937002C080E090E00E94B3
:101B7000FF0A1EC18C2F837009F045C0D11114C11A
:101B8000402F429546954770440F440F602F6F7069
:101B9000862F90E0A0E0B0E0042E04C0880F991FCB
:101BA000AA1FBB1F0A94D2F704FF10C00FE010E079
:101BB00020E030E004C0000F111F221F331F4A95A0
:101BC000D2F7009510952095309503C000E010E005
:101BD0009801C695C695C370BC01CD01602B712BD1
:101BE000822B932BC23049F058F4C13019F00E9477
:101BF0006413DAC00E945213D7C00E947613D4C077
:101C00000E945013D1C0DD2319F08C2F817001C0C8
:101C10008695882309F4C8C0402F429546954770A1
:101C2000440F440F602F6F70862F90E0A0E0B0E06B
:101C3000042E04C0880F991FAA1FBB1F0A94D2F755
:101C400004FF10C00FE010E020E030E004C0000FFF
:101C5000111F221F331F4A95D2F70095109520952A
:101C6000309503C000E010E09801C695C695C3709A
:101C7000BC01CD01602B712B822B932BC23049F01C
:101C800058F4C13019F00E9429148EC00E94171414
:101C90008BC00E943B1488C00E948A1385C0CF70FD
:101CA000DD2339F08C2F0E94B013802F0E94DC0CB2
:101CB0007BC0802F0E94E30C8C2F0E94D11374C034
:101CC000023F01F128F4003F41F0013FA1F03FC085
:101CD000033FF9F0043F39F13AC0DD2341F01530FC
:101CE00008F05EC08C2F8F710E94F61359C0163019
:101CF00008F056C0F7CFDD2339F08C2F8F710E948A
:101D0000B0134EC0DD23C9F38C2F8F710E94D11305
:101D100047C0DD2329F08C2F8F710E949B1340C098
:101D20000E9496133DC0DD2349F0CF718C2F0E9495
:101D3000B01363E08C2F0E94CE1532C081E00E9468
:101D4000E915123068F182E00E94E91529C0DD230F
:101D500031F0112391F2802F0E94420C21C01123F7
:101D600099F2093349F49FEFE7EEF3E09150E04038
:101D7000F040E1F700C00000802F0E94900C10C0DE
:101D80004C2F4F70602FC7010E943B050E94C1126B
:101D90000FC04C2F4F70602FC7010E943E0508C036
:101DA00088EF8C0D843020F40E94D20A0E94320504
:101DB000DD20C9F00E941B1580FD15C0F7011282BD
:101DC0000E9415150E94B013C7010E94140F0E94B3
:101DD0001515DF91CF911F910F91FF90EF90DF903C
:101DE000CF900C94D113DF91CF911F910F91FF9061
:101DF000EF90DF90CF9008950F931F93CF93DF93D1
:101E0000EC01688179818A810E94F2148C010E9420
:101E10004D140E943E13B801CE010E94EA0CDF91DE
:101E2000CF911F910F910895CF93DF93EC0198818B
:101E300089812B813C81232B31F08F3F31F481E06C
:101E40009F3F19F403C081E001C080E080FD19C00C
:101E5000CE010E94D90481110CC00E941F15882355
:101E600081F08A81882369F082E0DF91CF910C9420
:101E7000E915CE010E94FC0ECE01DF91CF910C94AA
:101E8000B804DF91CF91089580E090E00E94E90AC4
:101E900080E090E00E94FF0A0E9467150E9477157B
:101EA0000C94991580910001909101010E940317F3
:101EB0000C94440F0E9457150C94520FE92FE29591
:101EC000EF704E2F50E0FA013297EE30F105B0F48A
:101ED000EA59FF4F0C94A61E803F91F018F4883EFB
:101EE00068F40EC0843F51F40BC0883E48F0813F37
:101EF00029F406C093FB882780F9089580E00895AF
:101F000081E008950E94E7140E945E0F0895CF9328
:101F1000DF9300D000D01F92CDB7DEB70F900F90A7
:101F20000F900F900F90DF91CF910895CF93DF9393
:101F300000D000D000D0CDB7DEB726960FB6F8940B
:101F4000DEBF0FBECDBFDF91CF9108951F93CF931A
:101F5000DF93C091A70116E08091A801C81799F0FE
:101F6000D0E01C9FF0011D9FF00D1124E755FE4F9E
:101F70004081518162817381848195810E94960F95
:101F80002196C770E9CFDF91CF911F9108954091BD
:101F9000D9015091DA016091DB017091DC018091EF
:101FA000DD019091DE010C94960F0F931F93CF9358
:101FB000DF938091DE0182958F7009F05DC0809182
:101FC000DB01882309F458C08091A7011091A80172
:101FD0006091D9017091DA01C091DC01D091DD01ED
:101FE00091E06F3F09F090E0292F06E0811709F496
:101FF00043C0209721F07F3F21F030E003C031E063
:1020000001C0322F90E030FD34C0089FF001099FDD
:10201000F00D1124DF01A755BE4F11963C91119789
:10202000371327C03C91361324C012963C91129767
:1020300031111FC013964D915C9114974C1B5D0B91
:10204000483C5105B0F48091DE018F70806180932F
:10205000DE01E255FE4F80818F708061808389EDC3
:1020600091E00E94140FDF91CF911F910F910C947A
:10207000A60F01968770BACFDF91CF911F910F9174
:1020800008959F92AF92BF92CF92DF92EF92FF920C
:102090000F931F93CF93DF93CDB7DEB761970FB642
:1020A000F894DEBF0FBECDBF8C0185E0F801DE01E4
:1020B0001D9601900D928A95E1F7F80140815181BA
:1020C000E2809091D9016091DA012091DC01309198
:1020D000DD012115310531F06F3F31F481E09F3F83
:1020E00019F403C081E001C080E0F82FF1709F2E49
:1020F00080FD46C1F801A380B48089EDC82E81E03F
:10210000D82EF090DB01F501E21BF30BFF2009F460
:10211000DFC08091DE01E83CF10508F09BC0282F6C
:10212000207F09F052C0561313C0491311C0FE2C72
:10213000E1100EC08F7080618093DE010E94C70F96
:10214000C6010E94140F8091DE01F801858358C1F9
:10215000AB2831F05F3F31F481E04F3F19F403C009
:1021600081E001C080E080FD03C081E08E2502C0D7
:1021700080E090E0F82FF170FF2E80FF1CC080916E
:10218000A7012091A80136E0821709F417C190E059
:10219000389FF001399FF00D1124E755FE4F618102
:1021A000561306C06081461303C06281E61203C065
:1021B00001968770E9CFFE2CEE2009F421C18091B1
:1021C000DE0181608093DE015AC0561306C04913B8
:1021D00004C0E11002C0F8019FC04D875E878D8565
:1021E0009E850E94820F882379F1EE2069F120916B
:1021F000DE01822F82958F7090E0029774F08091BB
:10220000D9019091DA0198878F831986BB86AA86B7
:102210002C87CE0107960E94140F86E0F801A9EDE5
:10222000B1E001900D928A95E1F70E94D50F0E94CE
:10223000C70F0DC0561729F14D875E878D859E8586
:102240000E94820F81112CC0C8010E94140FFF242C
:10225000F394D6C0282F207F69F77A2DB98AA88AEF
:102260006E2D89890E94870F89ED91E00E94140FDD
:1022700086E0F60111928A95E9F70E94C70FF12CCA
:10228000BFC04913D9CFE110D7CFF8018583C8016A
:102290000E94140F86E0F60111928A95E9F7B0C00A
:1022A000EE2091F22091DE01822F82958F7090E0D6
:1022B00002970CF4B2CF8091D9019091DA019A8300
:1022C00089831B82BD82AC822E83CE010196A3CF6F
:1022D000E83CF10508F047C0FE2CEE2009F4B4CF2D
:1022E000561330C049132EC02091DE0120FD21C0BD
:1022F000822F82958F70482F50E041155105C9F00B
:10230000F80125834F30510541F08F5F982F92954A
:10231000907F822F8F70892B8583C8010E94140FB4
:1023200086E0F801A9EDB1E001900D928A95E1F700
:1023300042C086E0F801A9EDB1E001900D928A95C6
:10234000E1F75EC04D875E878D859E850E94820F76
:10235000811163CF8091DE0181608093DE01C8012D
:102360000E94140F4DC07A2DB98AA88A6E2D8989D2
:102370000E94870F86E0F60111928A95E9F71BC04B
:10238000EE2009F461CF4D875E878D859E850E9482
:10239000820FF82E882309F457CF86E0F801A9EDC3
:1023A000B1E001900D928A95E1F789ED91E00E94EC
:1023B0003C0C0E94D50F0E94C70F22C04D875E873C
:1023C0008D859E850E94E714292F22952F7022303B
:1023D00028F49F7039F0811105C00BC0243028F417
:1023E0009F7049F4805E883020F0C8010E94140F6D
:1023F0009F2CF92C05C0F8019581907F99F7F9CFB2
:102400008F2D61960FB6F894DEBF0FBECDBFDF9162
:10241000CF911F910F91FF90EF90DF90CF90BF90E1
:10242000AF909F9008951F93CF93DF93CDB7DEB702
:102430002C970FB6F894DEBF0FBECDBF4F835887E1
:1024400069877A878B879C87CE0107960E94411007
:102450008823D1F09F8188852A853B85232B31F005
:102460008F3F31F481E09F3F19F403C081E001C048
:1024700080E080FD47C04F81588569857A858B85CE
:102480009C850E94960F3EC086E0FE013796DE01D5
:10249000119601900D928A95E1F7FF81E8856A8592
:1024A0007B856115710531F0EF3F31F481E0FF3F2D
:1024B00019F403C081E001C080E080FD23C02091B9
:1024C000A80130E0C9010196877099274091A701C2
:1024D00050E084179507F1F1F983EA837D836C83DB
:1024E00096E0929FD001939FB00D1124A755BE4F47
:1024F000FE01319601900D929A95E1F78093A80123
:102500000E94A60F16E08091A7019091A80189175B
:1025100071F1189FC001112487559E4F0E944110F0
:10252000882329F1E091A7011E9FF0011124E755AE
:10253000FE4F4081518162817381848195810E9427
:10254000960F8091A70190E001968770992780935C
:10255000A701D9CF0E945A0F1092A8011092A7018B
:10256000E9EDF1E086E0DF011D928A95E9F72C960E
:102570000FB6F894DEBF0FBECDBFDF91CF911F9194
:102580000895EF92FF920F931F93CF93DF938C01E7
:10259000892B09F46CC0F12CEE24E394E801219618
:1025A000F8018491843740F4843008F051C08130C0
:1025B00081F0823019F15BC0853709F444C0A8F17D
:1025C0009CE7980F903708F052C08F770E94900CCC
:1025D00041C00E5F1F4FFE01849190E2980F98302A
:1025E00050F48770FE2D01C0FF0F8A95EAF78F2FF8
:1025F0000E946A1514C00E94420C2DC00E5F1F4F2E
:10260000FE01849190E2980F983060F48770FE2D5F
:1026100001C0FF0F8A95EAF78F2F0E9470150E9464
:10262000991519C00E94900C16C00E5F1F4FFE0135
:10263000C491CC2381F08FE99FE00197F1F700C0AE
:102640000000C150F6CF0E5F1F4FFE01F49003C093
:102650000E94420C8E018F2D882309F49FCFEFE951
:10266000FFE03197F1F700C000008150F5CFDF9116
:10267000CF911F910F91FF90EF90089508950895C5
:102680000C943F130C9440130E9442136093150264
:102690007093160280931702909318020C94440FC3
:1026A0000C9444130F931F9300911502109116027E
:1026B0002091170230911802602B712B822B932BE3
:1026C0001F910F910C9444130F931F9300911502C7
:1026D0001091160220911702309118026023712385
:1026E000822393231F910F910C9444130F931F93F4
:1026F00000911502109116022091170230911802D4
:1027000060277127822793271F910F910C94441300
:102710000C943F130E94881360931102709312026D
:1027200080931302909314020C94440F60E070E0C5
:10273000CB010C948A130F931F9341E050E060E0AB
:1027400070E08A019B0104C0000F111F221F331F7C
:102750008A95D2F7C901B8011F910F910C948A1381
:102760000F931F9341E050E060E070E004C0440F1D
:10277000551F661F771F8A95D2F78091110290919D
:102780001202A0911302B09114028A019B01082B3E
:10279000192B2A2B3B2BC901B8011F910F910C94C7
:1027A0008A130F931F9341E050E060E070E004C093
:1027B000440F551F661F771F8A95D2F74095509595
:1027C000609570958091110290911202A091130270
:1027D000B09114028A019B01082319232A233B2369
:1027E000C901B8011F910F910C948A130F931F9385
:1027F00041E050E060E070E004C0440F551F661FE8
:10280000771F8A95D2F78091110290911202A091C0
:102810001302B09114028A019B01082719272A2765
:102820003B27C901B8011F910F910C948A130F9394
:102830001F93009111021091120220911302309106
:102840001402602B712B822B932B1F910F910C94F0
:102850008A130F931F93009111021091120220917D
:1028600013023091140260237123822393231F915A
:102870000F910C948A130F931F93009111021091E2
:1028800012022091130230911402602771278227CF
:1028900093271F910F910C948A1308952FE0929F14
:1028A000800D1124E82FE695E695E695877051E0B6
:1028B00001C0550F8A95EAF785E0E89FF0011124E1
:1028C000E152FE4F20E030E070E04081CB01022E6B
:1028D00002C0969587950A94E2F7817081958427C6
:1028E0008523842781932F5F3F4F2530310569F77A
:1028F00008952FE0929F800D1124682F66956695AC
:102900006695982F977085E0689FB001112440E08C
:1029100050E080E0FB01E40FF51FE152FE4F208103
:1029200030E0092E02C0369527950A94E2F721700F
:102930003327042E01C0220F0A94EAF7822B4F5F3F
:102940005F4F4530510531F70895BF92CF92DF9226
:10295000EF92FF920F931F93CF93DF938C01C09060
:102960001102D0901202E0901302F09014028091B4
:10297000150290911602A0911702B0911802C82A70
:10298000D92AEA2AFB2ACFE1D0E0D701C6010C2ED2
:1029900004C0B695A795979587950A94D2F780FDC0
:1029A00004C0219790F7B12C07C0BC2EB8018C2F22
:1029B0000E945A050197A9F38B2DDF91CF911F91AA
:1029C0000F91FF90EF90DF90CF90BF900895CF933D
:1029D000DF93EC010E94A514BE010E945A05DF910D
:1029E000CF9108951F93CF93DF93EB019091A601B0
:1029F000992321F0CB010E94E71413C0882349F0EA
:102A0000CB010E94A514182F682FCE010E944E14EE
:102A100004C0CB010E947914182FBE01812F0E949F
:102A20005A05DF91CF911F910895809119028595E4
:102A300085958595089580911902877008959091E4
:102A40001902977081E009F480E0089590913302B3
:102A500092FB222720F9281751F080FB92F99093DE
:102A6000330280913202909133020C943216089511
:102A70008091330282FB882780F991E089270C94AA
:102A8000261581E00C94261580E00C942615809183
:102A90002502089590912502892B8093250208959F
:102AA00080959091250289238093250208951092A4
:102AB0002502089590912402892B80932402089581
:102AC0008095909124028923809324020895109286
:102AD0002402089590912302892B80932302089564
:102AE0008095909123028923809323020895109268
:102AF0002302089580911A02089508950C947D157B
:102B00000C947E159091330292FD08C090911A02A8
:102B1000981721F080931A020C94801508958091E3
:102B20001A02882329F010921A0280E00C94801572
:102B30000895E0910001F0910101809125028083C8
:102B4000E0910001F0910101908180912402892B94
:102B50008083E0910001F091010190818091230236
:102B6000892B808380911A02882381F0E0910001F3
:102B7000F09101019081892B8083809100019091D7
:102B800001010E94BD1681110E948F1580910001E4
:102B9000909101010C94DE0A0C947D159091330202
:102BA00092FD10C098E0899F90011124262B20935C
:102BB00019020E94B013809119028595859585951B
:102BC0000C94CC150C94B0131092190280E00C9464
:102BD000CC15209119028095822380931902982F99
:102BE000977041F430E0482F082E000C550B241745
:102BF000350721F49091330292FF07C085958595A2
:102C000085950E94D1130C94E415089580E00895F1
:102C10006FEF7FEF80E090E00C94D81E80E090E0B2
:102C20000E94B41E21E08A3E9E4F09F020E0822FD0
:102C3000089582E090E00C94AC1E83E090E00C9448
:102C4000AC1ECF9384E090E00E94AC1EC82F82E2BD
:102C500090E00E94AC1E2C2F30E0A901582BCA0135
:102C6000CF910895CF93C92F682F84E090E00E9400
:102C7000BA1E6C2F82E290E0CF910C94BA1EAB0189
:102C8000BC018FE090E00C94CC1EAB01BC0183E151
:102C900090E00C94CC1E60E070E0CB010C944516E3
:102CA00060E070E0CB010E943F160C944B166AEE78
:102CB0007EEF80E090E00E94D81E60E082E090E02D
:102CC0000E94BA1E60E083E090E00E94BA1E10925B
:102CD000150210921602109217021092180260E06C
:102CE00084E090E00E94BA1E60E082E290E00E94E0
:102CF000BA1E60E085E090E00E94BA1E60E086E0C7
:102D000090E00E94BA1E6FEF87E090E00E94BA1E2A
:102D100040E050E0BA0188E090E00E94CC1E60E004
:102D20008DE090E00E94BA1E40E050E0BA0188E1D8
:102D300090E00E94CC1E60E087E190E00E94BA1E05
:102D400040E050E0BA018CE190E00E94CC1E60E0CF
:102D500070E080E290E00E94D81E40E050E0BA01AE
:102D600088E190E00E94CC1E0C9450160C945716EB
:102D7000682F8EE090E00C94BA1EFC01329697E02A
:102D800080E0915029F021912223D9F38F5FF9CF70
:102D90000895662349F0FC01329608962191621746
:102DA00029F0E817F907D1F780E0089581E0089548
:102DB0009C01FC0132969FEF80E04191461789F01B
:102DC0009F3F19F4411101C0982F8F5F8630A9F7FA
:102DD0009F3F39F0F901E90FF11D97FDFA956283E4
:102DE000089508959C012A5F3F4FFC0142814613DC
:102DF00001C01282019682179307B9F708950C94C7
:102E0000D8160C94F216029626E0FC0111922A952F
:102E1000E9F7089508950C940A170C940A17CF93B4
:102E20000E940D170E94E3070E940B17C0E08C2F31
:102E30000E947F07892B29F4CF5FC530C1F780E05E
:102E400001C081E0CF9108950C940A170C942417C7
:102E500080915002843049F10E94261780E00E9440
:102E600032051092270220E488E190E00FB6F89432
:102E7000A895809360000FBE2093600083B7817F88
:102E8000846083BF83B7816083BF7894889583B75C
:102E90008E7F83BF0FB6F894A895809160008861FB
:102EA00080936000109260000FBE08950C940A1782
:102EB0000E945A0F0E94D20A0E9432050C945617A3
:102EC0001F920F920FB60F9211248F939F93AF937F
:102ED000BF9380912702811113C080914802909185
:102EE0004902A0914A02B0914B024196A11DB11D29
:102EF0008093480290934902A0934A02B0934B02F8
:102F0000BF91AF919F918F910F900FBE0F901F9027
:102F1000189582E084BD93E095BD9AEF97BD8093AC
:102F20006E0008952FB7F89480914802909149025D
:102F3000A0914A02B0914B022FBF08952FB7F89489
:102F4000609148027091490280914A0290914B022F
:102F50002FBF08959C014FB7F8948091480290913B
:102F60004902A0914A02B0914B024FBF821B930BC2
:102F7000089578941F920F920FB60F9211248F9399
:102F80009F93AF93BF938091480290914902A09183
:102F90004A02B0914B020196A11DB11D80934802D7
:102FA00090934902A0934A02B0934B02BF91AF9114
:102FB0009F918F910F900FBE0F901F90189581E0F9
:102FC0008093E00080E28093D8001092C9008FE1E6
:102FD0009EE40197F1F700C0000087E090EBDC0170
:102FE0008093590290935A02A0935B02B0935C02C3
:102FF0009CE088E10FB6F894A895809360000FBE1E
:1030000090936000FFCF9093850180938401089591
:103010008091300208950895CF93DF9300D01F92DE
:10302000CDB7DEB790915002943019F589837B8338
:103030006A8382E08093E9008FEF9091E8008150ED
:1030400095FD06C095ED9A95F1F700008111F5CF39
:103050008091E80085FF0DC040E050E063E070E043
:10306000CE0101960E94081A8091E8008E77809325
:10307000E8000F900F900F90DF91CF910895BC0161
:1030800084E00C940C18BC0183E00C940C18CF93D2
:10309000DF9321E02093E9002FEF3091E8002150E9
:1030A00035FD06C035ED3A95F1F700002111F5CF59
:1030B0002091E80025FF14C0EC0140E050E068E0FA
:1030C00070E00E94081A8091E8008E778093E800F3
:1030D00088E0FE01A8E2B2E001900D928A95E1F746
:1030E000DF91CF91089580914F02811109C00E9414
:1030F000991B0E94F61B8091E20084608093E2009D
:10310000089510924F02089508950895089542E099
:1031100061EC81E00E94121B42E261EC82E00C94BF
:10312000121B80915202833009F460C030F4813068
:1031300071F0823009F499C008958A3009F485C08D
:103140008B3009F46BC0893009F0A7C020C0809192
:103150005102813A09F0A1C08091E800877F8093F5
:10316000E8008091550290915602892B21F468E085
:1031700088E292E003C060E080E090E070E00E94AE
:10318000531A8091E8008B778093E800089580912E
:103190005102813209F081C080915502909156020E
:1031A000029708F07AC08091E800877F8093E8005A
:1031B0008091E80082FD05C0809150028111F8CF16
:1031C0006CC02091F3008091F20090E0922B029766
:1031D00029F48091F1008B7F813021F48091F100FE
:1031E000809330028091E8008B7753C08091510228
:1031F000813A09F052C08091550290915602892B74
:1032000009F04BC08091E800877F8093E8008091AF
:10321000E80080FFFCCF80910C0136C08091510204
:103220008132D9F58091550290915602892BA9F5EA
:103230008091E800877F8093E8000E94471B80917F
:10324000530280930C010C945A0F809151028132E9
:1032500021F58091E800877F8093E8000E94471B5A
:103260008091540280933102089580915102813AF5
:10327000A1F48091E800877F8093E8008091E800C6
:1032800080FFFCCF809131028093F1008091E800B3
:103290008E778093E8000C94471B089584B7877F4E
:1032A00084BF0FB6F894A8958091600088618093E0
:1032B0006000109260000FBE90E080E80FB6F894B6
:1032C00080936100909361000FBE0E94400B0E94AA
:1032D000991B0E94F61B8091E20084608093E200BB
:1032E00078940E948B1E0E944E0B82E091E00E9417
:1032F000CD0A809150028530A9F48091500285302A
:1033000079F40E94281780914E028823B1F30E941D
:103310000F17882391F30E94F2190E945A0FEDCFE4
:103320000E9458170E94540B0E944A0BE2CF0C9443
:103330009919292F332723303105C9F060F4213042
:10334000310581F02230310509F044C08BE390E073
:1033500024E937E043C021323105E1F02232310562
:1033600049F138C082E190E02FEC37E037C099276F
:103370008130910549F028F0029761F5EEE6F7E01B
:1033800005C0E0E9F7E002C0E0E8F7E0849190E0F2
:103390009F0124C06115710541F061307105D1F4C0
:1033A00089E090E02FEB37E019C089E090E026EA51
:1033B00037E014C06115710541F06130710551F4B9
:1033C00082E390E021EE37E009C080E490E023E161
:1033D00038E004C080E090E020E030E0FA01318382
:1033E0002083089580E189BD82E189BD09B400FE92
:1033F000FDCF8091D8008F7D8093D8008091E00030
:1034000082608093E0008091E00081FDFCCF089510
:10341000CF92DF92EF92FF920F931F93CF93DF93A0
:10342000EC018B017A010E94661B811133C0E1140B
:10343000F10439F0F70180819181081B190BC80F45
:10344000D91FC12CD12C0115110519F18091E8006B
:1034500085FD16C08091E8008E778093E800E11426
:10346000F10449F0F70180819181C80ED91ED18203
:10347000C08285E00FC00E94661B882321F30AC02A
:1034800089918093F10001501109FFEFCF1ADF0AF3
:10349000DACF80E0DF91CF911F910F91FF90EF90F5
:1034A000DF90CF900895209157023091580226174F
:1034B000370748F06115710539F42091E8002E773F
:1034C0002093E80001C0B901FC0120E061157105FD
:1034D00079F1809150028823F1F18530F1F18091EA
:1034E000E80083FD3CC08091E80082FD2EC0809101
:1034F000E80080FFEBCF2091F3008091F20090E094
:10350000922B6115710551F08830910538F42191A5
:103510002093F100615071090196F3CF21E00897E3
:1035200009F020E08091E8008E778093E800CECF0C
:103530002111CFCF0AC080915002882361F08530DD
:1035400061F08091E80083FD0AC08091E80082FF6D
:10355000F2CF80E0089582E0089583E0089581E04D
:10356000089520915702309158022617370748F0E6
:103570006115710539F42091E8002E772093E80059
:1035800001C0B901FC0120E06115710591F1809144
:103590005002882309F440C0853009F43FC080916F
:1035A000E80083FD3DC08091E80082FD2FC080913E
:1035B000E80080FFE9CF2091F3008091F20090E0D5
:1035C000922B6115710559F08830910540F42491D2
:1035D0002093F1003196615071090196F2CF21E0FC
:1035E000089709F020E08091E8008E778093E8004A
:1035F000CBCF2111CCCF0AC080915002882361F03B
:10360000853061F08091E80083FD0AC08091E80078
:1036100082FFF2CF80E0089582E0089583E008956C
:1036200081E00895982F973068F59093E9009817F6
:1036300039F07091EC002091ED005091F00003C042
:10364000242F762F50E021FD02C09F5FECCF3091F8
:10365000EB003E7F3093EB003091ED003D7F3093E7
:10366000ED003091EB0031603093EB007093EC0093
:103670002093ED005093F0002091EE0027FDE5CF60
:1036800080E008958F708093E90081E00895809133
:10369000510287FF11C08091E80082FD05C0809132
:1036A00050028111F8CF11C08091E8008B770BC0D8
:1036B00080915002882349F08091E80080FFF8CF84
:1036C0008091E8008E778093E80008952091E400CF
:1036D0003091E50095E64091EC00842F817040FF29
:1036E00023C08091E80080FD1DC080915002882396
:1036F00099F0853099F08091EB0085FD11C04091E3
:10370000E4005091E5002417350729F3915011F09A
:103710009A01E1CF84E0089582E0089583E008955E
:1037200081E0089580E008954091E80042FFDDCFF8
:1037300008950E94071C0E940F1CE0EEF0E08081BB
:1037400081608083E8EDF0E080818F77808319BC11
:10375000A7EDB0E08C918E7F8C9380818F7E8083EB
:1037600010924F0208950F931F93CF93DF930E94FF
:10377000071C0E940F1CC8EDD0E088818F778883DA
:1037800088818068888388818F7D888319BC1092A6
:10379000500210924C0210924E0210924D0200EE16
:1037A00010E0F80180818B7F80838881816088832D
:1037B00042E060E080E00E94121BE1EEF0E08081D8
:1037C0008E7F8083E2EEF0E0808181608083808163
:1037D00088608083F80180818E7F8083888180610A
:1037E0008883DF91CF911F910F910895E8EDF0E06C
:1037F00080818F7E8083E7EDF0E08081816080832F
:1038000084E082BF81E080934F020C94B31BE8ED0B
:10381000F0E080818E7F80831092E2000895109204
:10382000DA001092E10008951F920F920FB60F92E6
:1038300011242F933F934F935F936F937F938F93B5
:103840009F93AF93BF93EF93FF938091E10082FF2B
:103850000BC08091E20082FF07C08091E1008B7F66
:103860008093E1000E948A1E8091DA0080FF1FC0D1
:103870008091D80080FF1BC08091DA008E7F8093FA
:10388000DA008091D90080FF0DC080E189BD82E11E
:1038900089BD09B400FEFDCF81E0809350020E94F3
:1038A000731805C019BC109250020E9481188091B3
:1038B000E10080FF19C08091E20080FF15C0809177
:1038C000E2008E7F8093E2008091E200806180932D
:1038D000E2008091D80080628093D80019BC85E016
:1038E000809350020E9485188091E10084FF30C0CF
:1038F0008091E20084FF2CC080E189BD82E189BD16
:1039000009B400FEFDCF8091D8008F7D8093D80050
:103910008091E1008F7E8093E1008091E2008F7EB4
:103920008093E2008091E20081608093E2008091C8
:103930004C02882311F084E007C08091E30087FDEA
:1039400002C081E001C083E0809350020E9486188B
:103950008091E10083FF29C08091E20083FF25C0B0
:103960008091E100877F8093E10082E080935002A4
:1039700010924C028091E1008E7F8093E100809153
:10398000E2008E7F8093E2008091E200806180936C
:10399000E20042E060E080E00E94121B8091F000B3
:1039A00088608093F0000E948418FF91EF91BF918E
:1039B000AF919F918F917F916F915F914F913F91C7
:1039C0002F910F900FBE0F901F9018951F920F927E
:1039D0000FB60F9211242F933F934F935F936F93E2
:1039E0007F938F939F93AF93BF93CF93DF93EF9387
:1039F000FF93C091E900CF708091EC00D82FD17077
:103A000080FDD0E81092E9008091F000877F8093DC
:103A1000F00078940E942A1D1092E9008091F00035
:103A200088608093F000CD2BCF70C093E900FF91A8
:103A3000EF91DF91CF91BF91AF919F918F917F9146
:103A40006F915F914F913F912F910F900FBE0F900B
:103A50001F9018951F93CF93DF93CDB7DEB7AA972A
:103A60000FB6F894DEBF0FBECDBFE1E5F2E0809166
:103A7000F100819322E0E935F207C9F70E9491181D
:103A80008091E80083FF2EC18091510290915202F3
:103A9000492F50E04A30510508F024C1FA01EC5892
:103AA000FF4F0C94A61E803821F0823809F01AC10D
:103AB00008C080914D0290914E02992389F0826056
:103AC0000FC0809155028F70873008F00BC1809332
:103AD000E9008091EB0085FB882780F91092E900CE
:103AE0009091E800977F9093E8008093F100109206
:103AF000F100D1C0282F2D7F09F0F4C0882319F0E0
:103B0000823061F0EFC080915302813009F0EAC049
:103B1000933009F080E080934E022EC080915302D2
:103B200081112AC0809155028F702FEF280F263007
:103B300008F0D8C08093E9002091EB0020FF1CC062
:103B4000933021F48091EB00806214C09091EB00DF
:103B500090619093EB0021E030E0A90102C0440F96
:103B6000551F8A95E2F74093EA001092EA0080918F
:103B7000EB0088608093EB001092E9008091E800F0
:103B8000877F8093E8000E94471BACC08111AAC0C8
:103B9000109153021F778091E3008078812B8093EE
:103BA000E3008091E800877F8093E8000E94471B34
:103BB0008091E80080FFFCCF8091E30080688093D3
:103BC000E300111102C082E001C083E08093500243
:103BD00089C08058823008F085C08091530290914E
:103BE00054028C3D53E0950779F583E08A838AE29D
:103BF00089834FB7F894DE01139620E03EE051E24E
:103C0000E32FF0E050935700E49120FF03C0E295CA
:103C1000EF703F5FEF708E2F90E0EA3010F0C796A4
:103C200001C0C0968D939D932F5F243149F74FBFFC
:103C30008091E800877F8093E8006AE270E0CE011F
:103C400001960E94531A16C0609155027091560257
:103C5000AE014F5F5F4F0E949719BC01892B09F499
:103C600041C09091E800977F9093E80089819A8104
:103C70000E94B11A8091E8008B778093E80032C0EF
:103C8000803881F58091E800877F8093E8008091FB
:103C90004C028093F1008091E8008E7772CF811101
:103CA00021C0809153029091540299270297D4F435
:103CB0008091E800877F8093E80080915302809391
:103CC0004C020E94471B80914C02811106C08091DA
:103CD000E30087FD02C081E001C084E080935002D0
:103CE0000E9487188091E80083FF0AC08091E80055
:103CF000877F8093E8008091EB0080628093EB00E7
:103D0000AA960FB6F894DEBF0FBECDBFDF91CF915C
:103D10001F9108950895CF93809150028823A1F0B8
:103D2000C091E900CF709091EC00892F817090FDD7
:103D300080E8C82B1092E9008091E80083FD0E9482
:103D40002A1DCF70C093E900CF910895EE0FFF1F99
:103D50000590F491E02D0994F999FECF92BD81BDB3
:103D6000F89A992780B50895A8E1B0E042E050E0C4
:103D70000C94E01E262FF999FECF92BD81BDF89AD2
:103D8000019700B4021639F01FBA20BD0FB6F8949F
:103D9000FA9AF99A0FBE08950396272F0E94BB1E28
:103DA0000E94BA1E252F0E94BB1E242F0C94BB1EFE
:103DB0000196272F0E94BB1E0C94BA1EDC01CB017A
:103DC000FC01F999FECF06C0F2BDE1BDF89A31962B
:103DD00000B40D9241505040B8F70895F894FFCFC9
:103DE0001B02081847180B1843183F1801E200E996
:103DF00000EA00B500B600B700CD008301CC008A10
:103E000001920194012102230224022502260227A5
:103E1000022A02B300B4006F007000818283929185
:103E200090939535F0366667F1F4F5F6F73497968A
:103E300094C6E200E900EA00B500B600B700CD0084
:103E40008301CC008A019201940121022302240201
:103E50002502260227022A02B300B4006F00700078
:043E600081828300D8
:00000001FF
