:100000000C9487010C94CE010C94CE010C94CE017B
:100010000C94CE010C94CE010C94CE010C94CE0124
:100020000C94CE010C94CE010C9437190C94091A3F
:100030000C9449140C94CE010C94CE010C94CE0176
:100040000C94CE010C94CE010C94CE010C94CE01F4
:100050000C94CE010C94A2140C94CE010C94CE01FD
:100060000C94CE010C94CE010C94CE010C94CE01D4
:100070000C94CE010C94CE010C94CE010C94CE01C4
:100080000C94CE010C94CE010C94CE010C94CE01B4
:100090000C94CE010C94CE010C94CE010C94CE01A4
:1000A0000C94CE010C94CE010C94CE01360A360A83
:1000B000680A680AB50AE90BE90BE90BD30A680B71
:1000C000790B790BD90BE90BE90BE20B850C850C4D
:1000D000970C970C8E0C970C970C970C850C850C35
:1000E000930C970C970C930C761A9D1A951B9D1ADE
:1000F000951BE91A0C1B951B631B721B165C1E00DB
:100100001F002000210022002300240025002600DB
:1001100027002D002E0000002A002B0014001A00DA
:100120000800150017001C0018000C001200130036
:100130002F003000310000003900040016000700D5
:1001400009000A000B000D000E000F003300340000
:10015000000028000000E10000001D001B00060058
:100160001900050011001000360037003800E500C6
:1001700000000000E000E300E200000000000000DA
:100180002C00000000000000E6000151E700E40040
:100190000000165C3A003B003C003D003E003F0082
:1001A00040004100420043004400450000004C0074
:1001B00000000000520000000000000000000000ED
:1001C00000000000000000000000005C00000000D3
:1001D000500051004F00000000000000000000002F
:1001E00000004A004B00000000000000000000007A
:1001F000AA00A900A8000000000000000000000004
:100200004D004E0000000000000000000000000053
:1002100000000000000000000000000000000000DE
:100220000100000000000000100350006C0061009D
:1002300069006E003600300000000E0345007600B5
:10024000790064003100330000000403090409024E
:100250003B00020100A0FA090400000103010100B3
:100260000921110100012240000705810308000A4D
:10027000090401000103000000092111010001220D
:1002800032000705820320000A120110010000005D
:10029000080547600101000102000105010980A174
:1002A00001850319012AB700150126B700950175CC
:1002B000108100C0050C0901A101850419012AA0C3
:1002C00002150126A002950175108100C0050109E3
:1002D00006A101050719E029E71500250195087514
:1002E0000181029501750881010507190029FF1593
:1002F0000026FF00950675088100050819012905EB
:10030000950575019102950175039101C0001124B5
:100310001FBECFEFDAE0DEBFCDBF04B603FE27C0BD
:100320008091590290915A02A0915B02B0915C02B7
:100330008730904BA740B04BD1F4109259021092E5
:100340005A0210925B0210925C0214BE84B7877F3F
:1003500084BF0FB6F894A89580916000886180935F
:100360006000109260000FBEE0E0F8E3099511E034
:10037000A0E0B1E0E6E2F8E302C005900D92A438F7
:10038000B107D9F722E0A4E8B1E001C01D92A93578
:10039000B207E1F70E946F160C94111C0C94000038
:1003A00081E0089581E008950C94D20108950C94A1
:1003B000D6011F93CF93DF9300D000D01F92CDB70B
:1003C000DEB749835A836B833091A60189819A8174
:1003D000311114C0662359F0222349F00E94BE1146
:1003E000182F682F89819A810E94671103C00E948B
:1003F0009211182F69817A81812F04C00E94BE1149
:1004000069817A810F900F900F900F900F90DF917C
:10041000CF911F910C948D02FC01262F40815181B8
:100420006281738184810C94D901CF93DF93EC01B5
:1004300060E00E940C02BE01DF91CF910C94D701C5
:100440000E94F3140E94F812811102C00E949F13AF
:100450000C94AA040C94A60408950E94730C0E94A4
:100460002C022FEF84E39CE0215080409040E1F784
:1004700000C000000C94C8140F931F93CF93DF9318
:10048000EC0161E00E940C028C01BE010E94D401CB
:10049000882349F1BE01C8010E943606882319F15C
:1004A000BE01C8010E9488068823E9F0BE01C80188
:1004B0000E94B3078823B9F08A81882369F0011567
:1004C0008CE5180731F00F3D1C4531F40E949F1355
:1004D0000AC00E942D0207C0CE01DF91CF911F916B
:1004E0000F910C94D00180E0DF91CF911F910F917B
:1004F000089508950C94790281E008950C947C028B
:10050000CF93C82F0E947A028C2F0E947E02CF9137
:10051000089580E090E0089508952BE4829FC00143
:100520001124FC012FE0729FE00DF11D1124E60F54
:10053000F11DEE0FFF1FE450FF4F85919491089538
:10054000880F991FFC01E85DFD4F859194910895F6
:10055000CF93DF930E948D020E94BA03EC018115B4
:10056000904508F043C0C11580E4D80708F0CBC01F
:10057000C03ED10528F5C03CD10508F0B3C0C83A4B
:10058000D10578F4C53AD10508F0A4C0C130D10531
:1005900009F4ECC008F4E8C0C430D10508F0E6C0A6
:1005A000E3C0CF3BD10508F0DFC0C85AD0E0CC0F84
:1005B000DD1FC35FDE4F0990D881C02DD464D6C043
:1005C000C11590E2D90750F4C11521E0D20708F017
:1005D000CDC0C83ED10508F4C9C0C6C0C11580E36E
:1005E000D80708F086C0CE019F707FC0C11595E581
:1005F000D90708F043C0C11524E5D20708F09AC016
:10060000C11582E5D80708F5C11591E5D90708F0AD
:100610007DC0CE0174E0969587957A95E1F7837059
:100620009C2F937021E030E002C0220F331F9A9577
:10063000E2F73C68382BCF70C695C69580E2C89F1C
:10064000E0011124C22BD32B91C09E0123703327CC
:100650008C2F86958695C115D34508F05CC0C1E006
:10066000D0E002C0CC0FDD1F2A95E2F720E2829F86
:10067000C0011124C82BD92BDC6878C0C11529E52D
:10068000D207A0F4C11588E5D80708F058C0C115F5
:1006900096E5D90708F068C08C2F0E944E048F7130
:1006A000C82FD0E0DC2FCC27D06260C0C1152AE56E
:1006B000D20708F449C0CE0190568115904208F047
:1006C00053C08D2F8F710E944E04DD27D0628F7131
:1006D000D82B4CC0C55AD0E0C55CDE4FC881D0E0F5
:1006E000D06444C0CE01805C91090E94A002EC015C
:1006F0003DC0CE019927D3FF03C0EC01D86C36C0B2
:10070000EC01D06C33C0DF70D06A30C0DC2FCC2756
:10071000C16FD06A2BC0C1E0D0E002C0CC0FDD1F9A
:100720002A95E2F720E2829FC0011124C82BD92B21
:10073000DA681CC0DC2FCC27C46FD06A17C0DC2F4E
:10074000CC27C06FD06A12C08C2F8F700E944E04CD
:1007500094E0D695C7959A95E1F7CF70D0E0DC2F5D
:10076000CC27D069C82B02C0C0E0D0E0CE01DF9119
:10077000CF9108958238910569F1B0F481339105E4
:1007800009F46DC048F48932910509F463C08A32D6
:10079000910509F469C008958533910509F455C0A0
:1007A00089339105B9F00895833E910569F138F4D4
:1007B000803E9105B1F0823E910509F10895863E93
:1007C0009105A9F1873E9105B9F1843E910509F0A3
:1007D00064C023C020914A0220FD4FC021FD4DC0BE
:1007E000089580914A0280FD44C080914B0280FFB1
:1007F00044C080914A0284FD42C083EE4DC0809186
:100800004A0282FF38C0F5CF80914A0282FD33C090
:1008100080914B0280FD31C0ECCF80914B0281FF73
:1008200032C080914A0284FD2AC087EE35C0809193
:100830004A0283FF26C0F5CF80914A0283FD21C082
:1008400080914B0281FD1FC0ECCF80914A0285FD53
:100850001CC01DC080914A0285FD19C016C0809140
:100860004A0286FD16C017C080914A0286FD13C059
:1008700010C089E311C082EE0FC080EE0DC080E091
:100880000BC086EE09C084EE07C089E205C085E38F
:1008900003C08AE201C081E390E0089590914A028A
:1008A00092FF0DC0282F2871283019F4877F8460AB
:1008B00006C0282F2471243011F48B7F886093FFA9
:1008C0000DC0282F2871283119F4877E846106C055
:1008D000282F2471243111F48B7E886120914B02E2
:1008E00020FF0DC0382F3871383019F4877F8160B0
:1008F00006C0382F3171313011F48E7F886021FFAE
:100900000DC0282F2871283119F4877E816106C017
:10091000282F2171213111F48E7E886194FD877E0C
:100920000895E82FF0E0EE0FFF1FE45CFD4F80819B
:1009300091810895089580EA8A95F1F7089500C09D
:1009400008950C949B0408950C94A3040C94A4049F
:100950000C94A3040C94A804F894E82FE295EF708B
:10096000F0E031A1282F2F7081E090E001C0880FC6
:100970002A95EAF7982F9095932391A392A1892B1A
:1009800082A3789408950F931F93CF93DF9384E30A
:100990000E94AC0487E90E94AC0486E90E94AC0482
:1009A00084E90E94AC0486EC0E94AC04CEE3D1E062
:1009B0000DE411E089910E94AC040C171D07D1F7DA
:1009C000E2E3F2E0ACE3B2E0119211921D921D92CB
:1009D00082E0EC33F807C1F785E00E948805DF91DB
:1009E000CF911F910F910C9420027F928F929F9232
:1009F000AF92BF92CF92DF92EF92FF920F931F932D
:100A0000CF93DF9302E312E08DE4E82E81E0F82E2D
:100A1000C0E0D0E0712CAA24A394B12C4701F701C7
:100A20008081F894E82FE295EF70F0E021A18F70BB
:100A3000A50102C0440F551F8A95E2F7CA01922F03
:100A4000982B91A392A18095892382A378940E94E8
:100A50009F04EEE3F1E020E030E0C12CD12C419185
:100A6000A42FA295AF70B0E090968C9190E04F705B
:100A700002C0959587954A95E2F780FD08C0C501AB
:100A8000022E02C0880F991F0A94E2F702C080E08C
:100A900090E0C82AD92A2F5F3F4F2F303105F9F651
:100AA0005FEFE51AF50AF40180810E94AC04C430BE
:100AB000D10511F00E94A104F80180819181C8162E
:100AC000D90621F0D182C08281E001C080E0782A7D
:100AD00021960E5F1F4FC530D10509F09FCF272DFE
:100AE00045E06CE372E082E392E00E9489050E9497
:100AF0002A02872DDF91CF911F910F91FF90EF90E8
:100B0000DF90CF90BF90AF909F908F907F9008958F
:100B10000895FF920F931F93CF93DF93F82E092F21
:100B2000162FD72FC42F222349F081E0809388010C
:100B30000E947B14909387018093860180918801A5
:100B40008823D9F080918601909187010E949314A7
:100B5000069798F0EF2DF02FA12FBD2F80E090E0A9
:100B60004C2F50E08417950734F4219131912D9347
:100B70003D930196F7CF10928801DF91CF911F919D
:100B80000F91FF9008950F931F93CF93DF93C42F7E
:100B9000D22FFC0182818823C9F040938B010E94EF
:100BA0007B1490938A018093890180E28C0F8830B6
:100BB00008F057C0C77081E001C0880FCA95EAF7F6
:100BC000DF91CF911F910F910C94F50980918B01CA
:100BD000481330C08091890190918A010E9493143A
:100BE000883C910538F510E21D0FCD17B9F080E271
:100BF0008C0F883040F4C77081E001C0880FCA951F
:100C0000EAF70E94FC09183028F581E09D2F9770C3
:100C100001C0880F9A95EAF70E94F509802F0E947B
:100C2000EC091830F0F4D77081E001C0880FDA9534
:100C3000EAF70AC080E28C0F883098F4C77081E030
:100C400001C0880FCA95EAF7DF91CF911F910F91EC
:100C50000C94FC09802FDF91CF911F910F910C9480
:100C6000EC09DF91CF911F910F9108950F939C0193
:100C7000CB01243F4CE5340731F188F4293DFCE5F4
:100C80003F07D9F02A3D4CE5340779F1283D3C4532
:100C9000A9F506E221EE41EE68ED7CE52BC0263F8A
:100CA000FCE53F07E1F0A8F0273F3C4539F507E2B6
:100CB00025EE46EE67EF7CE51DC007E225EE45EE2A
:100CC00069ED7CE517C006E221EE40EE64EF7CE5BD
:100CD00011C007E225EE44EE65EF7CE50BC006E2AD
:100CE00021EE42EE66EF7CE505C008E221E045EE2C
:100CF0006AED7CE50E94C30580E008C0FC018281AA
:100D0000882319F010928B0101C081E00F910895A2
:100D1000CF93DF93EC01FB018281882309F41FC18B
:100D2000C230FCE5DF0708F41BC1C6319CE5D907DA
:100D300038F09E012B5F3C452930310508F010C189
:100D40000E940B1390934B0280934A02C031ECE552
:100D5000DE0709F4C3C008F041C0C8308CE5D807ED
:100D600009F49AC0F0F4C430ECE5DE0709F487C05A
:100D700068F4C2308CE5D80709F477C0C330DC458D
:100D800009F0E3C080914A02826076C0C630ECE58B
:100D9000DE0709F46EC008F07BC080914A028860CB
:100DA0006BC0CC308CE5D80709F485C068F4CA3034
:100DB000ECE5DE0709F474C008F079C00E94730CFA
:100DC00080914A02806858C0CE308CE5D80709F47B
:100DD00076C008F07FC080914A028BC0CC3FECE522
:100DE000DE0709F44FC018F5C3318CE5D80709F4C4
:100DF0007DC078F4C131ECE5DE0709F473C0C2317F
:100E0000DC4509F0A2C00E94730C80914A028F77E2
:100E100033C0C5318CE5D80709F472C008F486C028
:100E2000CB3FDC4509F091C080914B023EC0C1151B
:100E3000FDE5DF0709F45FC058F4CE3F9CE5D90714
:100E400009F444C008F43FC080914B0282602DC079
:100E5000C230FDE5DF0709F475C008F45DC0C3309A
:100E6000DD4509F072C080E06EC080914A02816069
:100E700003C080914A02806180934A0266C08091DB
:100E80004A0211C080914B02826080934B025DC088
:100E900080914A028062F0CF80914A028064ECCF58
:100EA00080914A0288608460E7CF8160EECF8091B4
:100EB0004A028E7FE1CF80914A028D7FDDCF809103
:100EC0004A02877FD9CF80914B0218C080914B0294
:100ED0008D7FDBCF80914A028F7ECECF80914A02F8
:100EE0008F7DCACF80914A028F7BC6CF80914A0204
:100EF000877F8B7FC1CF80914B028D7F8E7FC5CF47
:100F000080914A0282FB222720F991E0922790FBF0
:100F100082F990FB83F9B0CF80914B02982F909586
:100F200091708E7F892B90FB81F9AFCF0E94730C5B
:100F300080914A0287FB222720F991E0922790FBBB
:100F400087F99ACF81E00E94A11380914A02909183
:100F50004B020E941C130E94730C80E001C081E0D0
:100F6000DF91CF910895CF93DF9386319C4541F572
:100F7000EB010E943F12982F8A812091000130914D
:100F80000101882379F09A7A81E009F480E0809366
:100F90008C01911102C069E201C065E3C9010E94A0
:100FA000E8130AC080918C01811102C069E201C07E
:100FB00065E3C9010E94EA130E948D1280E001C01E
:100FC00081E0DF91CF9108959093920180939101F8
:100FD0000895E0919101F0919201309721F00190F4
:100FE000F081E02D099480E00895E0919101F09165
:100FF0009201309721F00280F381E02D0994089549
:1010000020918F01309190012817390771F090934A
:10101000900180938F01E0919101F09192013097BE
:1010200021F00680F781E02D0994089520918D012B
:1010300030918E012817390771F090938E018093BB
:101040008D01E0919101F0919201309721F000849F
:10105000F185E02D099408950E9487146093A20100
:101060007093A3018093A4019093A50160939E01C6
:1010700070939F018093A0019093A101089585B77B
:10108000806885BF85B7806885BF089581E0089531
:101090000C94460808950C944A080C944A080C9441
:1010A0004D080C944A080C9451080C944A080E946C
:1010B0003F0880EF92E10E94EC140E9455080C94C6
:1010C00053080E9472140E94C3040E9407150C94D6
:1010D0004F086F927F928F929F92AF92BF92CF9262
:1010E000DF92EF92FF920F931F93CF93DF93CDB7D1
:1010F000DEB72A970FB6F894DEBF0FBECDBF0E94B1
:101100004B080E944A080E94F50481110E942C0895
:1011100034E9832E31E0932E00E010E0C02E802FC2
:101120000E9491045C01F401619071904F01682666
:10113000792661147104B1F40F5F1F4F053011055A
:1011400069F78FEF89838A831B820E947B148160F9
:10115000782F9D838C8349815A816B818D810E9478
:1011600021093AC08091260281FD0E949A04D12C67
:10117000EE24E394F12CC3018E219F21892B29F1C8
:101180000E9448088823A9F0DE82CF82AE20BF20CB
:1011900081E0AB2809F480E088870E947B1481609D
:1011A000782F9A8789874E815F8168858A850E941A
:1011B0002109000F111FF801EC56FE4F808191812B
:1011C000E826F926F182E08207C0D394EE0CFF1CDA
:1011D000FFE0DF12D0CFB0CF0E94E90790919301DA
:1011E0008917D1F00E94E907809393012A960FB6E0
:1011F000F894DEBF0FBECDBFDF91CF911F910F914D
:10120000FF90EF90DF90CF90BF90AF909F908F9026
:101210007F906F900C9480022A960FB6F894DEBFF0
:101220000FBECDBFDF91CF911F910F91FF90EF9037
:10123000DF90CF90BF90AF909F908F907F906F90F6
:101240000895DF92EF92FF920F931F93CF93DF9356
:10125000CDB7DEB72B970FB6F894DEBF0FBECDBF6C
:10126000F42E052F162FE72ED82E61110E945F1243
:10127000FE01319686E0DF011D928A95E9F77E2D09
:101280004F2D502F612F8D2D9E810E942C0F2B965C
:101290000FB6F894DEBF0FBECDBFDF91CF911F9187
:1012A0000F91FF90EF90DF900895FC018081918174
:1012B0000E9400120895CF93882309F448C0C82FD4
:1012C0008CEF8C0F813AD0F46C2F809100019091BB
:1012D00001010E94B213882349F06C2F8091000114
:1012E000909101010E94EA130E948D126C2F80914F
:1012F0000001909101010E94E8130CC080E28C0F64
:10130000883058F4C77081E001C0880FCA95EAF7A9
:101310000E944212CF910C948D12EBE5EC0FE3305A
:1013200040F4F0E0E058FE4F808190E0CF910C94C3
:101330000008C85AC73158F4EC2FF0E0EE0FFF1F39
:10134000EE5AFE4F80819181CF910C941608CF9177
:101350000895882349F1682F8CEF860F813A38F47D
:1013600080910001909101010E94EA130CC080E27B
:10137000860F883050F4677081E001C0880F6A954D
:10138000EAF70E9448120C948D128BE5860F833089
:1013900020F480E090E00C940008685A673120F453
:1013A00080E090E00C94160808951F93CF93DF938C
:1013B000182FEB010E945B09209741F08FE99FE015
:1013C0000197F1F700C000002197F6CF812FDF9140
:1013D000CF911F910C94A909893319F060E070E056
:1013E00002C060E570E00C94D509882321F00E94CA
:1013F00042120C948D120895882321F00E94481205
:101400000C948D120895CF92DF92EF92FF920F937A
:101410001F93CF93DF937C01062FC72FFC01D2814E
:10142000158112951F700E943812882399F0DD23D0
:1014300089F08C2F807F803421F080E2800F88300B
:1014400048F082E00E94D7120E94381291E0D82E14
:10145000D92601C0D12CCC2EC2948FE0C8228C2D6D
:1014600090E0FC01EA5AFF4F0C94C91B8C2F807F3F
:10147000CF70882311F0C295C07FDD2399F0CC2373
:1014800009F482C180E2800F883010F0011104C09D
:101490008C2F0E94421203C08C2F0E9452120E9475
:1014A0008D1272C1802F0E94A909CC2309F491C129
:1014B00080E2800F883010F0011104C08C2F0E9450
:1014C000481203C08C2F0E9458120E948D1281C1B5
:1014D0008C2F807FCF70803211F0C295C07F0023A7
:1014E00019F00130C9F022C0DD2371F0112341F061
:1014F000113031F40E9472128C2B0E947A1269C151
:101500000E9472128C2B1DC0112319F0113009F4A6
:1015100060C10E94831225C0DD2321F0163008F03F
:1015200058C10EC0153008F054C11BC0DD2361F056
:10153000112331F0F701858180FF26C18F708583EB
:101540008C2F0E94F50945C1112359F0093309F088
:101550002CC1FFEF27EE83E0F15020408040E1F7FF
:1015600022C18C2F0E94FC0934C18C2F8695869550
:10157000837019F0813061F02CC1DD2321F0802FC0
:101580009C2F937002C080E090E00E94000829C167
:10159000DD2321F0802F9C2F937002C080E090E02B
:1015A0000E9416081EC18C2F837009F045C0D1110E
:1015B00014C1402F429546954770440F440F602F49
:1015C0006F70862F90E0A0E0B0E0042E04C0880F7A
:1015D000991FAA1FBB1F0A94D2F704FF10C00FE087
:1015E00010E020E030E004C0000F111F221F331F65
:1015F0004A95D2F7009510952095309503C000E0EC
:1016000010E09801C695C695C370BC01CD01602B52
:10161000712B822B932BC23049F058F4C13019F052
:101620000E947D10DAC00E946B10D7C00E948F10FC
:10163000D4C00E946910D1C0DD2319F08C2F8170B5
:1016400001C08695882309F4C8C0402F429546956D
:101650004770440F440F602F6F70862F90E0A0E01A
:10166000B0E0042E04C0880F991FAA1FBB1F0A9464
:10167000D2F704FF10C00FE010E020E030E004C01B
:10168000000F111F221F331F4A95D2F700951095A6
:101690002095309503C000E010E09801C695C695EE
:1016A000C370BC01CD01602B712B822B932BC230F8
:1016B00049F058F4C13019F00E9442118EC00E94C6
:1016C00030118BC00E94541188C00E94A31085C0A5
:1016D000CF70DD2339F08C2F0E94C910802F0E941B
:1016E000F5097BC0802F0E94FC098C2F0E94EA1014
:1016F00074C0023F01F128F4003F41F0013FA1F026
:101700003FC0033FF9F0043F39F13AC0DD2341F017
:10171000153008F05EC08C2F8F710E940F1159C0D8
:10172000163008F056C0F7CFDD2339F08C2F8F71BB
:101730000E94C9104EC0DD23C9F38C2F8F710E9407
:10174000EA1047C0DD2329F08C2F8F710E94B4105E
:1017500040C00E94AF103DC0DD2349F0CF718C2FF7
:101760000E94C91063E08C2F0E94C21232C081E037
:101770000E94D712123068F182E00E94D71229C06D
:10178000DD2331F0112391F2802F0E945B0921C0EB
:10179000112399F2093349F49FEFE7EEF3E09150FA
:1017A000E040F040E1F700C00000802F0E94A9094E
:1017B00010C04C2F4F70602FC7010E9489020E94F9
:1017C000DA0F0FC04C2F4F70602FC7010E948C02A0
:1017D00008C088EF8C0D843020F40E94E9070E9435
:1017E0008002DD20C9F00E94341280FD15C0F7018F
:1017F00012820E942E120E94C910C7010E942D0C55
:101800000E942E12DF91CF911F910F91FF90EF90C8
:10181000DF90CF900C94EA10DF91CF911F910F9140
:10182000FF90EF90DF90CF9008950F931F93CF9389
:10183000DF93EC01688179818A810E940B128C010F
:101840000E9466110E945710B801CE010E94030A3F
:10185000DF91CF911F910F910895CF93DF93EC010A
:10186000988189812B813C81232B31F08F3F31F48A
:1018700081E09F3F19F403C081E001C080E080FD5A
:1018800019C0CE010E943C0281110CC00E94381286
:10189000882381F08A81882369F082E0DF91CF91EB
:1018A0000C94D712CE010E94150CCE01DF91CF917E
:1018B0000C941502DF91CF91089580E090E00E9492
:1018C000000880E090E00E9416080E945F120E94CB
:1018D0006F120C948D1280910001909101010E9471
:1018E000EC130C945D0C0E944F120C946B0CE92FBE
:1018F000E295EF704E2F50E0FA013297EE30F1058D
:10190000B0F4EA59FF4F0C94C91B803F91F018F4D2
:10191000883E68F40EC0843F51F40BC0883E48F006
:10192000813F29F406C093FB882780F9089580E061
:10193000089581E008950E9400120E94770C089596
:10194000CF93DF9300D000D01F92CDB7DEB70F90BA
:101950000F900F900F900F90DF91CF910895CF933C
:10196000DF9300D000D000D0CDB7DEB726960FB6FB
:10197000F894DEBF0FBECDBFDF91CF9108951F93C6
:10198000CF93DF93C091A70116E08091A801C817FB
:1019900099F0D0E01C9FF0011D9FF00D1124E75538
:1019A000FE4F4081518162817381848195810E94C3
:1019B000AF0C2196C770E9CFDF91CF911F910895A9
:1019C0004091D9015091DA016091DB017091DC0105
:1019D0008091DD019091DE010C94AF0C0F931F9369
:1019E000CF93DF938091DE0182958F7009F05DC007
:1019F0008091DB01882309F458C08091A7011091E0
:101A0000A8016091D9017091DA01C091DC01D091F7
:101A1000DD0191E06F3F09F090E0292F06E081178A
:101A200009F443C0209721F07F3F21F030E003C04C
:101A300031E001C0322F90E030FD34C0089FF0014A
:101A4000099FF00D1124DF01A755BE4F11963C915F
:101A50001197371327C03C91361324C012963C913E
:101A6000129731111FC013964D915C9114974C1B26
:101A70005D0B483C5105B0F48091DE018F708061B0
:101A80008093DE01E255FE4F80818F7080618083FC
:101A900089ED91E00E942D0CDF91CF911F910F9164
:101AA0000C94BF0C01968770BACFDF91CF911F9134
:101AB0000F9108959F92AF92BF92CF92DF92EF92D3
:101AC000FF920F931F93CF93DF93CDB7DEB761974C
:101AD0000FB6F894DEBF0FBECDBF8C0185E0F801D4
:101AE000DE011D9601900D928A95E1F7F801408183
:101AF0005181E2809091D9016091DA012091DC015D
:101B00003091DD012115310531F06F3F31F481E075
:101B10009F3F19F403C081E001C080E0F82FF1700D
:101B20009F2E80FD46C1F801A380B48089EDC82EA8
:101B300081E0D82EF090DB01F501E21BF30BFF20D2
:101B400009F4DFC08091DE01E83CF10508F09BC09C
:101B5000282F207F09F052C0561313C0491311C01B
:101B6000FE2CE1100EC08F7080618093DE010E9418
:101B7000E00CC6010E942D0C8091DE01F8018583E6
:101B800058C1AB2831F05F3F31F481E04F3F19F489
:101B900003C081E001C080E080FD03C081E08E25AC
:101BA00002C080E090E0F82FF170FF2E80FF1CC093
:101BB0008091A7012091A80136E0821709F417C18E
:101BC00090E0389FF001399FF00D1124E755FE4F4A
:101BD0006181561306C06081461303C06281E6121C
:101BE00003C001968770E9CFFE2CEE2009F421C1D5
:101BF0008091DE0181608093DE015AC0561306C0D9
:101C0000491304C0E11002C0F8019FC04D875E87F0
:101C10008D859E850E949B0C882379F1EE2069F1C9
:101C20002091DE01822F82958F7090E0029774F0F0
:101C30008091D9019091DA0198878F831986BB86AC
:101C4000AA862C87CE0107960E942D0C86E0F8010B
:101C5000A9EDB1E001900D928A95E1F70E94EE0C9A
:101C60000E94E00C0DC0561729F14D875E878D85C7
:101C70009E850E949B0C81112CC0C8010E942D0CD6
:101C8000FF24F394D6C0282F207F69F77A2DB98AD4
:101C9000A88A6E2D89890E94A00C89ED91E00E948E
:101CA0002D0C86E0F60111928A95E9F70E94E00C6E
:101CB000F12CBFC04913D9CFE110D7CFF8018583EC
:101CC000C8010E942D0C86E0F60111928A95E9F771
:101CD000B0C0EE2091F22091DE01822F82958F70AC
:101CE00090E002970CF4B2CF8091D9019091DA0183
:101CF0009A8389831B82BD82AC822E83CE0101969A
:101D0000A3CFE83CF10508F047C0FE2CEE2009F413
:101D1000B4CF561330C049132EC02091DE0120FDF0
:101D200021C0822F82958F70482F50E041155105B8
:101D3000C9F0F80125834F30510541F08F5F982F8E
:101D40009295907F822F8F70892B8583C8010E9486
:101D50002D0C86E0F801A9EDB1E001900D928A9575
:101D6000E1F742C086E0F801A9EDB1E001900D92E3
:101D70008A95E1F75EC04D875E878D859E850E94BE
:101D80009B0C811163CF8091DE0181608093DE0125
:101D9000C8010E942D0C4DC07A2DB98AA88A6E2DDB
:101DA00089890E94A00C86E0F60111928A95E9F7D4
:101DB0001BC0EE2009F461CF4D875E878D859E851F
:101DC0000E949B0CF82E882309F457CF86E0F80177
:101DD000A9EDB1E001900D928A95E1F789ED91E0CE
:101DE0000E9455090E94EE0C0E94E00C22C04D8713
:101DF0005E878D859E850E940012292F22952F7067
:101E0000223028F49F7039F0811105C00BC02430B6
:101E100028F49F7049F4805E883020F0C8010E9449
:101E20002D0C9F2CF92C05C0F8019581907F99F716
:101E3000F9CF8F2D61960FB6F894DEBF0FBECDBFE0
:101E4000DF91CF911F910F91FF90EF90DF90CF9096
:101E5000BF90AF909F9008951F93CF93DF93CDB71E
:101E6000DEB72C970FB6F894DEBF0FBECDBF4F8301
:101E7000588769877A878B879C87CE0107960E944F
:101E80005A0D8823D1F09F8188852A853B85232B95
:101E900031F08F3F31F481E09F3F19F403C081E0BE
:101EA00001C080E080FD47C04F81588569857A85F3
:101EB0008B859C850E94AF0C3EC086E0FE01379664
:101EC000DE01119601900D928A95E1F7FF81E88578
:101ED0006A857B856115710531F0EF3F31F481E052
:101EE000FF3F19F403C081E001C080E080FD23C002
:101EF0002091A80130E0C90101968770992740918F
:101F0000A70150E084179507F1F1F983EA837D83F7
:101F10006C8396E0929FD001939FB00D1124A7553A
:101F2000BE4FFE01319601900D929A95E1F7809394
:101F3000A8010E94BF0C16E08091A7019091A80112
:101F4000891771F1189FC001112487559E4F0E9477
:101F50005A0D882329F1E091A7011E9FF001112459
:101F6000E755FE4F40815181628173818481958163
:101F70000E94AF0C8091A70190E00196877099278D
:101F80008093A701D9CF0E94730C1092A8011092E0
:101F9000A701E9EDF1E086E0DF011D928A95E9F7FE
:101FA0002C960FB6F894DEBF0FBECDBFDF91CF9158
:101FB0001F910895EF92FF920F931F93CF93DF939A
:101FC0008C01892B09F46CC0F12CEE24E394E80118
:101FD0002196F8018491843740F4843008F051C090
:101FE000813081F0823019F15BC0853709F444C03B
:101FF000A8F19CE7980F903708F052C08F770E94A5
:10200000A90941C00E5F1F4FFE01849190E2980F15
:10201000983050F48770FE2D01C0FF0F8A95EAF7C3
:102020008F2F0E94621214C00E945B092DC00E5FA8
:102030001F4FFE01849190E2980F983060F48770F2
:10204000FE2D01C0FF0F8A95EAF78F2F0E946812BC
:102050000E948D1219C00E94A90916C00E5F1F4F61
:10206000FE01C491CC2381F08FE99FE00197F1F745
:1020700000C00000C150F6CF0E5F1F4FFE01F4906C
:1020800003C00E945B098E018F2D882309F49FCF26
:10209000EFE9FFE03197F1F700C000008150F5CF84
:1020A000DF91CF911F910F91FF90EF9008950895C8
:1020B00008950C9458100C9459100E945B10609372
:1020C00015027093160280931702909318020C94D5
:1020D0005D0C0C945D100F931F93009115021091ED
:1020E00016022091170230911802602B712B822B5F
:1020F000932B1F910F910C945D100F931F930091E0
:1021000015021091160220911702309118026023D7
:102110007123822393231F910F910C945D100F93D1
:102120001F93009115021091160220911702309111
:10213000180260277127822793271F910F910C9413
:102140005D100C9458100E94A110609311027093BE
:10215000120280931302909314020C945D0C60E0C1
:1021600070E0CB010C94A3100F931F9341E050E05B
:1021700060E070E08A019B0104C0000F111F221F64
:10218000331F8A95D2F7C901B8011F910F910C94A2
:10219000A3100F931F9341E050E060E070E004C093
:1021A000440F551F661F771F8A95D2F78091110241
:1021B00090911202A0911302B09114028A019B0126
:1021C000082B192B2A2B3B2BC901B8011F910F910A
:1021D0000C94A3100F931F9341E050E060E070E077
:1021E00004C0440F551F661F771F8A95D2F740958C
:1021F0005095609570958091110290911202A09176
:102200001302B09114028A019B01082319232A2387
:102210003B23C901B8011F910F910C94A3100F9398
:102220001F9341E050E060E070E004C0440F551F90
:10223000661F771F8A95D2F7809111029091120242
:10224000A0911302B09114028A019B01082719275B
:102250002A273B27C901B8011F910F910C94A310A5
:102260000F931F93009111021091120220911302FB
:1022700030911402602B712B822B932B1F910F91A5
:102280000C94A3100F931F9300911102109112024E
:10229000209113023091140260237123822393232F
:1022A0001F910F910C94A3100F931F930091110293
:1022B00010911202209113023091140260277127AD
:1022C000822793271F910F910C94A31008952FE05C
:1022D000929F800D1124E82FE695E695E69587708C
:1022E00051E001C0550F8A95EAF785E0E89FF001BB
:1022F0001124E152FE4F20E030E070E04081CB013C
:10230000022E02C0969587950A94E2F78170819516
:1023100084278523842781932F5F3F4F2530310504
:1023200069F708952FE0929F800D1124682F66951C
:1023300066956695982F977085E0689FB001112487
:1023400040E050E080E0FB01E40FF51FE152FE4F5A
:10235000208130E0092E02C0369527950A94E2F7D5
:1023600021703327042E01C0220F0A94EAF7822B32
:102370004F5F5F4F4530510531F70895BF92CF92BF
:10238000DF92EF92FF920F931F93CF93DF938C0115
:10239000C0901102D0901202E0901302F09014024B
:1023A0008091150290911602A0911702B091180227
:1023B000C82AD92AEA2AFB2ACFE1D0E0D701C601F0
:1023C0000C2E04C0B695A795979587950A94D2F7D9
:1023D00080FD04C0219790F7B12C07C0BC2EB80136
:1023E0008C2F0E94A8020197A9F38B2DDF91CF912A
:1023F0001F910F91FF90EF90DF90CF90BF900895C5
:10240000CF93DF93EC010E94BE11BE010E94A8028F
:10241000DF91CF9108951F93CF93DF93EB019091BC
:10242000A601992321F0CB010E94001213C088233A
:1024300049F0CB010E94BE11182F682FCE010E94D7
:10244000671104C0CB010E949211182FBE01812F89
:102450000E94A802DF91CF911F91089580911902E7
:1024600085958595859508958091190287700895C1
:1024700090911902977081E009F480E008958091AD
:102480002502089590912502892B809325020895B5
:1024900080959091250289238093250208951092BA
:1024A0002502089590912402892B80932402089597
:1024B000809590912402892380932402089510929C
:1024C0002402089590912302892B8093230208957A
:1024D000809590912302892380932302089510927E
:1024E0002302089580911A02089508950C9475129C
:1024F0000C94761290911A02981721F080931A0288
:102500000C947812089580911A02882329F0109271
:102510001A0280E00C9478120895E0910001F09185
:102520000101809125028083E0910001F091010179
:10253000908180912402892B8083E0910001F091A9
:102540000101908180912302892B808380911A025E
:10255000882381F0E0910001F09101019081892BA5
:10256000808380910001909101010E94A613811146
:102570000E94831280910001909101010C94F50753
:102580000C94751298E0899F90011124262B2093BA
:1025900019020E94C910809119028595859585952B
:1025A0000C94C0121092190280E00C94C012209179
:1025B00019028095822380931902982F977079F4DD
:1025C00030E0482F082E000C550B2417350739F042
:1025D0008595859585950E94EA100C94D2120895F0
:1025E00080E008956FEF7FEF80E090E00C94FB1B9C
:1025F00080E090E00E94D71B21E08B3E9E4F09F0C7
:1026000020E0822F089582E090E00C94CF1B83E0BD
:1026100090E00C94CF1BCF9384E090E00E94CF1BFE
:10262000C82F81E290E00E94CF1B2C2F30E0A9013F
:10263000582BCA01CF910895CF93C92F682F84E0FA
:1026400090E00E94DD1B6C2F81E290E0CF910C9412
:10265000DD1BAB01BC018FE090E00C94EF1BAB01E4
:10266000BC0183E190E00C94EF1B60E070E0CB01D3
:102670000C942F1360E070E0CB010E9429130C949E
:1026800035136BEE7EEF80E090E00E94FB1B60E074
:1026900082E090E00E94DD1B60E083E090E00E9419
:1026A000DD1B109215021092160210921702109262
:1026B000180260E084E090E00E94DD1B60E081E2AF
:1026C00090E00E94DD1B60E085E090E00E94DD1B51
:1026D00060E086E090E00E94DD1B6FEF87E090E015
:1026E0000E94DD1B40E050E0BA0188E090E00E94CB
:1026F000EF1B60E08DE090E00E94DD1B40E050E0C9
:10270000BA0188E190E00E94EF1B60E087E190E071
:102710000E94DD1B40E050E0BA018CE190E00E9495
:10272000EF1B60E080E290E00E94DD1B40E050E0A3
:10273000BA0188E190E00E94EF1B0C943A130C94CC
:102740004113682F8EE090E00C94DD1BFC01329663
:1027500097E080E0915029F021912223D9F38F5FF7
:10276000F9CF0895662349F0FC013296089621912D
:10277000621729F0E817F907D1F780E0089581E0A2
:1027800008959C01FC0132969FEF80E0419146172D
:1027900089F09F3F19F4411101C0982F8F5F863057
:1027A000A9F79F3F39F0F901E90FF11D97FDFA955F
:1027B0006283089508959C012A5F3F4FFC01428186
:1027C000461301C01282019682179307B9F7089544
:1027D0000C94C1130C94DB13029626E0FC011192B9
:1027E0002A95E9F7089508950C94F3130C94F313C4
:1027F000CF930E94F6130E94F5040E94F413C0E0E8
:102800008C2F0E949104892B29F4CF5FC530C1F72A
:1028100080E001C081E0CF9108950C94F3130C94F3
:102820000D1480915002843049F10E940F1480E011
:102830000E9480021092270220E488E190E00FB607
:10284000F894A895809360000FBE2093600083B732
:10285000817F846083BF83B7816083BF78948895CC
:1028600083B78E7F83BF0FB6F894A89580916000E0
:10287000886180936000109260000FBE08950C94F0
:10288000F3130E94730C0E94E9070E9480020C94CB
:102890003F141F920F920FB60F9211248F939F93A4
:1028A000AF93BF9380912702811113C0809146029C
:1028B00090914702A0914802B09149024196A11D12
:1028C000B11D8093460290934702A0934802B093B3
:1028D0004902BF91AF919F918F910F900FBE0F90C2
:1028E0001F90189582E084BD93E095BD9AEF97BD47
:1028F00080936E0008952FB7F894809146029091CE
:102900004702A0914802B09149022FBF08952FB706
:10291000F89460914602709147028091480290912C
:1029200049022FBF08959C014FB7F8948091460249
:1029300090914702A0914802B09149024FBF821B7B
:10294000930B089578941F920F920FB60F92112453
:102950008F939F93AF93BF938091460290914702CC
:10296000A0914802B09149020196A11DB11D80932A
:10297000460290934702A0934802B0934902BF9148
:10298000AF919F918F910F900FBE0F901F90189550
:1029900081E08093E00080E28093D8001092C9002B
:1029A0008FE19EE40197F1F700C0000087E090EB13
:1029B000DC018093590290935A02A0935B02B0937A
:1029C0005C029CE088E10FB6F894A89580936000C3
:1029D0000FBE90936000FFCF909385018093840198
:1029E00008950C94F2120E94F5048FE39CE901977C
:1029F000F1F700C000000E94F50480E00E949104FD
:102A000080FF04C00E94F1140C94C81408950E9421
:102A1000F812811102C00E949F130E940313809339
:102A200026020E940B1390934B0280934A020E944D
:102A30000713682F70E080E090E00E9469106091B9
:102A400011027091120280911302909114020C9461
:102A5000A1108091300208950895CF93DF9300D0A4
:102A60001F92CDB7DEB790915002943019F589834B
:102A70007B836A8382E08093E9008FEF9091E80086
:102A8000815095FD06C095ED9A95F1F700008111F2
:102A9000F5CF8091E80085FF0DC040E050E063E095
:102AA00070E0CE0101960E942B178091E8008E778E
:102AB0008093E8000F900F900F90DF91CF910895D1
:102AC000BC0184E00C942D15BC0183E00C942D1501
:102AD000CF93DF9321E02093E9002FEF3091E800BE
:102AE000215035FD06C035ED3A95F1F70000211172
:102AF000F5CF2091E80025FF14C0EC0140E050E044
:102B000068E070E00E942B178091E8008E77809338
:102B1000E80088E0FE01A8E2B2E001900D928A95FB
:102B2000E1F7DF91CF91089580914F02811109C0A3
:102B30000E94BC180E9419198091E2008460809361
:102B4000E200089510924F0208950895089508959F
:102B500042E061EC81E00E94351842E261EC82E0E3
:102B60000C94351880915202833009F460C030F41F
:102B7000813071F0823009F499C008958A3009F4E7
:102B800085C08B3009F46BC0893009F0A7C020C024
:102B900080915102813A09F0A1C08091E800877FBD
:102BA0008093E8008091550290915602892B21F480
:102BB00068E088E292E003C060E080E090E070E0CE
:102BC0000E9476178091E8008B778093E800089543
:102BD00080915102813209F081C08091550290911B
:102BE0005602029708F07AC08091E800877F8093B0
:102BF000E8008091E80082FD05C0809150028111BB
:102C0000F8CF6CC02091F3008091F20090E0922BFD
:102C1000029729F48091F1008B7F813021F480911B
:102C2000F100809330028091E8008B7753C080914F
:102C30005102813A09F052C080915502909156029A
:102C4000892B09F04BC08091E800877F8093E800D2
:102C50008091E80080FFFCCF80910C0136C080910C
:102C600051028132D9F58091550290915602892BFB
:102C7000A9F58091E800877F8093E8000E946A1898
:102C80008091530280930C010C94730C809151023B
:102C9000813221F58091E800877F8093E8000E94CF
:102CA0006A188091540280933102089580915102F4
:102CB000813AA1F48091E800877F8093E8008091B9
:102CC000E80080FFFCCF809131028093F100809179
:102CD000E8008E778093E8000C946A18089584B712
:102CE000877F84BF0FB6F894A895809160008861B3
:102CF00080936000109260000FBE90E080E80FB6F5
:102D0000F89480936100909361000FBE0E94570871
:102D10000E94BC180E9419198091E200846080937F
:102D2000E20078940E94AE1B0E94610882E091E06C
:102D30000E94E407809150028530A9F480915002EE
:102D4000853079F40E94111480914E028823B1F3EA
:102D50000E94F813882391F30E9415170E94730CA8
:102D6000EDCF0E9441140E9469080E944B080E9406
:102D70004A08E0CF0C94BC16292F332723303105A5
:102D8000C9F060F42130310581F02230310509F0BD
:102D900044C08BE390E02EE432E043C021323105A1
:102DA000E1F02232310549F138C082E190E029E8B2
:102DB00032E037C099278130910549F028F0029719
:102DC00061F5E8E2F2E005C0EAE4F2E002C0EAE31D
:102DD000F2E0849190E09F0124C06115710541F0FB
:102DE00061307105D1F489E090E029E732E019C043
:102DF00089E090E020E632E014C06115710541F0F1
:102E00006130710551F482E390E02BE932E009C0B2
:102E100080E490E02DEC32E004C080E090E020E01F
:102E200030E0FA0131832083089580E189BD82E199
:102E300089BD09B400FEFDCF8091D8008F7D8093BD
:102E4000D8008091E00082608093E0008091E000F3
:102E500081FDFCCF0895CF92DF92EF92FF920F9306
:102E60001F93CF93DF93EC018B017A010E948918A5
:102E7000811133C0E114F10439F0F70180819181AF
:102E8000081B190BC80FD91FC12CD12C0115110516
:102E900019F18091E80085FD16C08091E8008E77D9
:102EA0008093E800E114F10449F0F70180819181F9
:102EB000C80ED91ED182C08285E00FC00E94891839
:102EC000882321F30AC089918093F10001501109F0
:102ED000FFEFCF1ADF0ADACF80E0DF91CF911F91A9
:102EE0000F91FF90EF90DF90CF90089520915702BF
:102EF000309158022617370748F06115710539F4EB
:102F00002091E8002E772093E80001C0B901FC0170
:102F100020E06115710579F1809150028823F1F16B
:102F20008530F1F18091E80083FD3CC08091E8009C
:102F300082FD2EC08091E80080FFEBCF2091F3004E
:102F40008091F20090E0922B6115710551F088306C
:102F5000910538F421912093F10061507109019697
:102F6000F3CF21E0089709F020E08091E8008E7708
:102F70008093E800CECF2111CFCF0AC080915002BC
:102F8000882361F0853061F08091E80083FD0AC0FC
:102F90008091E80082FFF2CF80E0089582E00895FA
:102FA00083E0089581E008952091570230915802FE
:102FB0002617370748F06115710539F42091E800AC
:102FC0002E772093E80001C0B901FC0120E06115D3
:102FD000710591F180915002882309F440C0853039
:102FE00009F43FC08091E80083FD3DC08091E80076
:102FF00082FD2FC08091E80080FFE9CF2091F3008F
:103000008091F20090E0922B6115710559F08830A3
:10301000910540F424912093F1003196615071099B
:103020000196F2CF21E0089709F020E08091E800B6
:103030008E778093E800CBCF2111CCCF0AC080914E
:103040005002882361F0853061F08091E80083FDB3
:103050000AC08091E80082FFF2CF80E0089582E00C
:10306000089583E0089581E00895982F973068F5DA
:103070009093E900981739F07091EC002091ED00E1
:103080005091F00003C0242F762F50E021FD02C0A4
:103090009F5FECCF3091EB003E7F3093EB0030919F
:1030A000ED003D7F3093ED003091EB0031603093C7
:1030B000EB007093EC002093ED005093F000209112
:1030C000EE0027FDE5CF80E008958F708093E90042
:1030D00081E008958091510287FF11C08091E8003E
:1030E00082FD05C0809150028111F8CF11C08091FE
:1030F000E8008B770BC080915002882349F08091C3
:10310000E80080FFF8CF8091E8008E778093E80098
:1031100008952091E4003091E50095E64091EC009F
:10312000842F817040FF23C08091E80080FD1DC086
:1031300080915002882399F0853099F08091EB00BE
:1031400085FD11C04091E4005091E500241735073A
:1031500029F3915011F09A01E1CF84E0089582E0C3
:10316000089583E0089581E0089580E008954091F6
:10317000E80042FFDDCF08950E942A190E9432190B
:10318000E0EEF0E0808181608083E8EDF0E0808116
:103190008F77808319BCA7EDB0E08C918E7F8C93E4
:1031A00080818F7E808310924F0208950F931F932A
:1031B000CF93DF930E942A190E943219C8EDD0E004
:1031C00088818F77888388818068888388818F7DD4
:1031D000888319BC1092500210924C0210924E0239
:1031E00010924D0200EE10E0F80180818B7F808309
:1031F00088818160888342E060E080E00E94351829
:10320000E1EEF0E080818E7F8083E2EEF0E080816D
:1032100081608083808188608083F80180818E7FD7
:103220008083888180618883DF91CF911F910F9186
:103230000895E8EDF0E080818F7E8083E7EDF0E097
:1032400080818160808384E082BF81E080934F022F
:103250000C94D618E8EDF0E080818E7F8083109288
:10326000E20008951092DA001092E10008951F9292
:103270000F920FB60F9211242F933F934F935F93AA
:103280006F937F938F939F93AF93BF93EF93FF932E
:103290008091E10082FF0BC08091E20082FF07C0B5
:1032A0008091E1008B7F8093E1000E94AD1B8091B3
:1032B000DA0080FF1FC08091D80080FF1BC0809182
:1032C000DA008E7F8093DA008091D90080FF0DC0F4
:1032D00080E189BD82E189BD09B400FEFDCF81E0B6
:1032E000809350020E94941505C019BC10925002A0
:1032F0000E94A2158091E10080FF19C08091E20038
:1033000080FF15C08091E2008E7F8093E200809163
:10331000E20080618093E2008091D8008062809317
:10332000D80019BC85E0809350020E94A6158091B8
:10333000E10084FF30C08091E20084FF2CC080E176
:1033400089BD82E189BD09B400FEFDCF8091D8001E
:103350008F7D8093D8008091E1008F7E8093E10083
:103360008091E2008F7E8093E2008091E200816094
:103370008093E20080914C02882311F084E007C022
:103380008091E30087FD02C081E001C083E080936B
:1033900050020E94A7158091E10083FF29C080910F
:1033A000E20083FF25C08091E100877F8093E100E8
:1033B00082E08093500210924C028091E1008E7F57
:1033C0008093E1008091E2008E7F8093E200809103
:1033D000E20080618093E20042E060E080E00E94D1
:1033E00035188091F00088608093F0000E94A51548
:1033F000FF91EF91BF91AF919F918F917F916F91CD
:103400005F914F913F912F910F900FBE0F901F90A2
:1034100018951F920F920FB60F9211242F933F937E
:103420004F935F936F937F938F939F93AF93BF93CC
:10343000CF93DF93EF93FF93C091E900CF7080911A
:10344000EC00D82FD17080FDD0E81092E900809177
:10345000F000877F8093F00078940E944D1A1092BC
:10346000E9008091F00088608093F000CD2BCF7050
:10347000C093E900FF91EF91DF91CF91BF91AF91A0
:103480009F918F917F916F915F914F913F912F917C
:103490000F900FBE0F901F9018951F93CF93DF933F
:1034A000CDB7DEB7AA970FB6F894DEBF0FBECDBF7B
:1034B000E1E5F2E08091F100819322E0E935F20745
:1034C000C9F70E94B2158091E80083FF2EC1809158
:1034D000510290915202492F50E04A30510508F0B4
:1034E00024C1FA01EC58FF4F0C94C91B803821F01D
:1034F000823809F01AC108C080914D0290914E02A5
:10350000992389F082600FC0809155028F708730B7
:1035100008F00BC18093E9008091EB0085FB8827C0
:1035200080F91092E9009091E800977F9093E8006D
:103530008093F1001092F100D1C0282F2D7F09F067
:10354000F4C0882319F0823061F0EFC080915302FB
:10355000813009F0EAC0933009F080E080934E0298
:103560002EC08091530281112AC0809155028F7024
:103570002FEF280F263008F0D8C08093E900209163
:10358000EB0020FF1CC0933021F48091EB0080629F
:1035900014C09091EB0090619093EB0021E030E03B
:1035A000A90102C0440F551F8A95E2F74093EA0033
:1035B0001092EA008091EB0088608093EB001092FB
:1035C000E9008091E800877F8093E8000E946A18F4
:1035D000ACC08111AAC0109153021F778091E30003
:1035E0008078812B8093E3008091E800877F80932F
:1035F000E8000E946A188091E80080FFFCCF80916B
:10360000E30080688093E300111102C082E001C0F2
:1036100083E08093500289C08058823008F085C0D2
:1036200080915302909154028C3D53E0950779F5B7
:1036300083E08A838AE289834FB7F894DE01139688
:1036400020E03EE051E2E32FF0E050935700E49198
:1036500020FF03C0E295EF703F5FEF708E2F90E088
:10366000EA3010F0C79601C0C0968D939D932F5FEE
:10367000243149F74FBF8091E800877F8093E800AD
:103680006AE270E0CE0101960E94761716C0609142
:10369000550270915602AE014F5F5F4F0E94BA16FD
:1036A000BC01892B09F441C09091E800977F909369
:1036B000E80089819A810E94D4178091E8008B7775
:1036C0008093E80032C0803881F58091E800877FE0
:1036D0008093E80080914C028093F1008091E80093
:1036E0008E7772CF811121C0809153029091540244
:1036F00099270297D4F48091E800877F8093E800AF
:103700008091530280934C020E946A1880914C026F
:10371000811106C08091E30087FD02C081E001C0F5
:1037200084E0809350020E94A8158091E80083FFF6
:103730000AC08091E800877F8093E8008091EB00C9
:1037400080628093EB00AA960FB6F894DEBF0FBE9E
:10375000CDBFDF91CF911F9108950895CF938091B0
:1037600050028823A1F0C091E900CF709091EC0045
:10377000892F817090FD80E8C82B1092E90080911C
:10378000E80083FD0E944D1ACF70C093E900CF91ED
:103790000895EE0FFF1F0590F491E02D0994F9991B
:1037A000FECF92BD81BDF89A992780B50895A8E112
:1037B000B0E042E050E00C94031C262FF999FECFB4
:1037C00092BD81BDF89A019700B4021639F01FBA74
:1037D00020BD0FB6F894FA9AF99A0FBE0895039691
:1037E000272F0E94DE1B0E94DD1B252F0E94DE1B5F
:1037F000242F0C94DE1B0196272F0E94DE1B0C94B5
:10380000DD1BDC01CB01FC01F999FECF06C0F2BD46
:10381000E1BDF89A319600B40D9241505040B8F78E
:063820000895F894FFCFAB
:103826001B02291568152C156415601501E200E9BF
:1038360000EA00B500B600B700CD008301CC008ACF
:103846000192019401210223022402250226022765
:10385600022A02B300B4006F007000818283929145
:1038660090939535F0366667F1F4F5F6F73497964A
:1038760094C6E200E900EA00B500B600B700CD0044
:103886008301CC008A0192019401210223022402C1
:103896002502260227022A02B300B4006F00700038
:0438A6008182830098
:00000001FF
