:100000000C943A010C9481010C9481010C948101AF
:100010000C9481010C9481010C9481010C94810158
:100020000C9481010C9481010C947D1A0C944F1B4B
:100030000C94BC150C9481010C9481010C948101E9
:100040000C9481010C9481010C9481010C94810128
:100050000C9481010C9415160C9481010C9481016F
:100060000C9481010C9481010C9481010C94810108
:100070000C9481010C9481010C9481010C948101F8
:100080000C9481010C9481010C9481010C948101E8
:100090000C9481010C9481010C9481010C948101D8
:1000A0000C9481010C9481010C94810113041304BC
:1000B0003F043F04A704DF05DF05DF05C5045A053B
:1000C0006B056B05CF05DF05DF05D8057F067F06CD
:1000D0009106910688069106910691067F067F0695
:1000E0008D06910691068D06BC1BE31BDB1CE31BF2
:1000F000DB1C2F1C521CDB1CA91CB81C015300006C
:10010000A800AE00AA00A900BC00BB000100025379
:100110000000000000000000000000000353010088
:10012000C35C005CCD5CCC5CC55CC45C010000536E
:10013000CB5CCA5CC95CC85CC75CC65C16034C007F
:10014000610075006E0063006800200050006100CF
:100150006400000020034D00610070006C00650029
:10016000200043006F006D0070007500740069008E
:100170006E00670000000403090409023B0002014D
:1001800000A0FA0904000001030101000921110186
:1001900000012240000705810308000A090401004C
:1001A0000103000000092111010001226D00070573
:1001B000820320000A120100020000000837130722
:1001C0006001000102000105010980A101850319F8
:1001D000012AB700150126B700950175108100C0EE
:1001E000050C0901A101850419012AA002150126A7
:1001F000A002950175108100C005010906A10185C5
:1002000006050719E029E715002501950875018104
:10021000020507190029EF1500250195F0750181E8
:1002200002050819012905950575019102950175C9
:10023000039101C005010906A101050719E029E79D
:100240001500250195087501810295017508810148
:100250000507190029FF150026FF0095067508817E
:10026000000508190129059505750191029501758B
:10027000039101C011241FBECFEFDAE0DEBFCDBF76
:1002800004B603FE27C08091420290914302A091E0
:100290004402B09145028730904BA740B04BD1F457
:1002A00010924202109243021092440210924502B0
:1002B00014BE84B7877F84BF0FB6F894A895809149
:1002C0006000886180936000109260000FBEE0E0E3
:1002D000F8E3099511E0A0E0B1E0ECECFAE302C02C
:1002E00005900D92A837B107D9F722E0A8E7B1E051
:1002F00001C01D92A234B207E1F70E940C120C94C7
:10030000641D0C94000081E0089581E008950C9430
:10031000850108950C9489011F93CF93DF9300D03A
:1003200000D01F92CDB7DEB749835A836B833091DB
:100330007A0189819A81311114C0662359F02223F0
:1003400049F00E941F08182F682F89819A810E9406
:10035000CC0703C00E94F507182F69817A81812F8D
:1003600004C00E941F0869817A810F900F900F903E
:100370000F900F90DF91CF911F910C94AD0EFC0167
:10038000262F408151816281738184810C948C017C
:1003900081E00895CF93DF93EC0160E00E94BF01FC
:1003A000BE01DF91CF910C948A010E94BB100E9484
:1003B00053020C94F5100C94F11080E00C9454024C
:1003C00008950C94E0010E946D060E94E1012FEF58
:1003D00084E39CE0215080409040E1F700C00000A1
:1003E0000C943B160F931F93CF93DF938C0161E026
:1003F0000E94BF01EC01B8010E9487018823F1F13E
:10040000B801CE010E94EF138823C1F1B801CE01DB
:100410000E941912882391F1B801CE010E944B135A
:10042000882361F1F8018281882309F1CB358DE5BC
:10043000D807C1F050F4C115FCE5DF0781F0CF3DCE
:10044000DC45A9F40E94CD0D19C0CC35EDE5DE07E1
:1004500061F0CD35DD4559F40E94160D08C00E94AB
:10046000E3010CC00E941F0D02C00E94220DC801B2
:10047000DF91CF911F910F910C94830180E0DF9168
:10048000CF911F910F9108950C94E0010E944B149D
:100490000E9454020C94440208950C944C0281E092
:1004A00008950C944F020895CF93C82F0E944D02D7
:1004B0008C2F0E945102CF910895CF93DF93CDB737
:1004C000DEB72B970FB6F894DEBF0FBECDBF4F83BC
:1004D000588769877A878B8761110E94620C9E0119
:1004E0002F5F3F4F86E0F90111928A95E9F785E089
:1004F000FE013796D90101900D928A95E1F7898125
:100500009A814C815D81452B31F09F3F31F491E020
:100510008F3F19F403C091E001C090E090FF09C043
:1005200049815A816B817C818D819E810E94830BE0
:1005300005C0C9010E94C8018111F2CF2B960FB6E8
:10054000F894DEBF0FBECDBFDF91CF910895FC01BF
:10055000808191810E9461080895CF93882309F4D6
:100560009CC0C82F8238C1F40E944B1481FD95C0F5
:1005700069E380910201909103010E9433150E946A
:10058000940C2FEF81EE94E0215080409040E1F7F1
:1005900000C0000069E319C0833801F50E944B14C4
:1005A00080FD7BC063E580910201909103010E9470
:1005B00033150E94940C2FEF81EE94E0215080407F
:1005C0009040E1F700C0000063E580910201909146
:1005D00003010E943E15CF910C94940C8438C1F411
:1005E0000E944B1482FD59C067E4809102019091F2
:1005F00003010E9433150E94940C2FEF81EE94E0CA
:10060000215080409040E1F700C0000067E4DDCF5A
:100610008CEF8C0F813AD0F46C2F80910201909175
:1006200003010E94B314882349F06C2F80910201CA
:10063000909103010E943E150E94940C6C2F8091B2
:100640000201909103010E943315C5CF80E28C0F07
:10065000883048F4C77081E001C0880FCA95EAF776
:100660000E94450CB8CFEBE5EC0FE33040F4F0E02E
:10067000E15CFE4F808190E0CF910C947114C85AD8
:10068000C73158F4EC2FF0E0EE0FFF1FEF5EFE4F86
:1006900080819181CF910C948714CF910895882304
:1006A00009F45BC0682F823879F40E944B1481FFF3
:1006B00054C069E380910201909103010E943315B7
:1006C0000E94940C69E310C08338B1F40E944B146B
:1006D00080FF43C063E580910201909103010E9475
:1006E00033150E94940C63E58091020190910301FF
:1006F0000E943E150C94940C843879F40E944B149B
:1007000082FF2BC067E480910201909103010E9457
:1007100033150E94940C67E4E7CF8CEF860F813A83
:1007200018F380E2860F883048F4677081E001C0DA
:10073000880F6A95EAF70E944B0CDCCF8BE5860F99
:10074000833020F480E090E00C947114685A673193
:1007500020F480E090E00C94871408951F93CF93C9
:10076000DF93182FEB010E94AD02209741F08FE933
:100770009FE00197F1F700C000002197F6CF812F8D
:10078000DF91CF911F910C944F03893319F060E0F2
:1007900070E002C060E570E00C94AE03882321F0A5
:1007A0000E94450C0C94940C0895882321F00E941B
:1007B0004B0C0C94940C0895CF92DF92EF92FF9221
:1007C0000F931F93CF93DF937C01162FC72FFC014C
:1007D000D281058102950F700E943B0C8823B9F0ED
:1007E000DD23A9F08C2F807F803421F080E2810FFF
:1007F000883068F08091280282FD09C082E00E9462
:10080000E40C0E943B0C91E0D82ED92601C0D12CDB
:10081000CC2EC2948FE0C8228C2D90E0FC01EA5AC5
:10082000FF4F0C940F1D8C2F807FCF70882311F009
:10083000C295C07FDD2399F0CC2309F49BC180E2EF
:10084000810F883010F0111104C08C2F0E94450CCC
:1008500003C08C2F0E94550C0E94940C8BC1812FD9
:100860000E944F03CC2309F4AAC180E2810F883093
:1008700038F1112329F18C2F0E945B0C24C08C2F9E
:10088000807FCF70803211F0C295C07F112319F0A4
:100890001130A1F13DC08091280282FF17C0DD23F5
:1008A00049F0CC2329F08C2F0E94450C0E94940C17
:1008B00080E061C180E00E944F03CC2309F47FC136
:1008C0008C2F0E944B0C0E94940C79C1DD2371F097
:1008D000002341F0013031F40E94750C8C2B0E94F2
:1008E0007D0C6DC10E94750C8C2B1DC0002319F06E
:1008F000013009F464C10E948A0C25C0DD2321F077
:10090000063008F05CC10EC0053008F058C11BC0AD
:10091000DD2361F0002331F0F701858180FF2AC1DA
:100920008F7085838C2F0E94CE0349C1002359F01C
:10093000193309F030C1FFEF27EE83E0F15020407A
:100940008040E1F726C18C2F0E94D50338C18C2F3F
:1009500086958695837019F0813061F030C1DD2372
:1009600021F0812F9C2F937002C080E090E00E94C4
:1009700071142DC1DD2321F0812F9C2F937002C0B3
:1009800080E090E00E94871422C18C2F837009F0D0
:1009900045C0D11118C1412F429546954770440F6B
:1009A000440F612F6F70862F90E0A0E0B0E0042E1E
:1009B00004C0880F991FAA1FBB1F0A94D2F714FF07
:1009C00010C00FE010E020E030E004C0000F111F65
:1009D000221F331F4A95D2F7009510952095309528
:1009E00003C000E010E09801C695C695C370BC0135
:1009F000CD01602B712B822B932BC23049F058F420
:100A0000C13019F00E94E206DEC00E94D006DBC0B1
:100A10000E94F406D8C00E94CE06D5C0DD2319F08E
:100A20008C2F817001C08695882309F4CCC0412F9A
:100A3000429546954770440F440F612F6F70862F83
:100A400090E0A0E0B0E0042E04C0880F991FAA1F18
:100A5000BB1F0A94D2F714FF10C00FE010E020E093
:100A600030E004C0000F111F221F331F4A95D2F738
:100A7000009510952095309503C000E010E0980196
:100A8000C695C695C370BC01CD01602B712B822B1E
:100A9000932BC23049F058F4C13019F00E94A707D7
:100AA00092C00E9495078FC00E94B9078CC00E9417
:100AB000080789C0CF70DD2339F08C2F0E942E07E4
:100AC000812F0E94CE037FC0812F0E94D5038C2FDF
:100AD0000E944F0778C0123F21F128F4103F41F0E7
:100AE000113FC1F043C0133F19F1143F79F03EC0EC
:100AF000DD2341F0053008F062C08C2F8F710E9419
:100B000074075DC0063008F05AC0F7CF8091280204
:100B100082FF18C0DD2339F08C2F8F710E942E07C1
:100B20004EC0DD23C9F38C2F8F710E944F0747C041
:100B3000DD2329F08C2F8F710E94190740C00E947D
:100B400014073DC0DD2349F0CF718C2F0E942E0782
:100B500063E08C2F0E94C90C32C081E00E94E40C3B
:100B6000023068F182E00E94E40C29C0DD2331F0FC
:100B7000002391F2812F0E94AD0221C0002399F23F
:100B8000193349F49FEFE7EEF3E09150E040F04075
:100B9000E1F700C00000812F0E944F0310C04C2FCE
:100BA0004F70612FC7010E94A90E0E948F080FC0CD
:100BB0004C2F4F70612FC7010E94AC0E08C088EF08
:100BC0008C0D843020F40E944B140E945402DD20CE
:100BD000C9F00E94370C80FD15C0F70112820E94F7
:100BE000310C0E942E07C7010E9423060E94310C7F
:100BF000DF91CF911F910F91FF90EF90DF90CF90F9
:100C00000C944F07DF91CF911F910F91FF90EF90C0
:100C1000DF90CF9008950F931F93CF93DF93EC0154
:100C2000688179818A810E946C088C010E94CB07BF
:100C30000E94BC06B801CE010E94DC03DF91CF9177
:100C40001F910F910895CF93DF93EC0198818981D3
:100C50002B813C81232B31F08F3F31F481E09F3F8A
:100C600019F403C081E001C080E080FD1DC0CE0109
:100C70000E94F201811110C00E943B0C8823A1F058
:100C80008A81882389F08091280282FD0DC082E04C
:100C9000DF91CF910C94E40CCE010E940B06CE01A3
:100CA000DF91CF910C94CA01DF91CF91089580E03C
:100CB00090E00E94711480E090E00E9487140E94EE
:100CC000620C0E94720C0C94940C80910201909121
:100CD00003010E9449150C9457060E94520C0C9473
:100CE0006506E92FE295EF704E2F50E0FA0132973A
:100CF000EE30F105B0F4EA59FF4F0C940F1D803F20
:100D000091F018F4883E68F40EC0843F51F40BC093
:100D1000883E48F0813F29F406C093FB882780F97C
:100D2000089580E0089581E00895FC01808191811B
:100D30000E9461080E9471060895CF93DF9300D04E
:100D400000D01F92CDB7DEB70F900F900F900F908D
:100D50000F90DF91CF910895CF93DF9300D000D013
:100D600000D0CDB7DEB726960FB6F894DEBF0FBE23
:100D7000CDBFDF91CF910895089508950C94BD06DD
:100D80000C94BE060E94C006609384017093850196
:100D900080938601909387010C9457060C94C206A9
:100DA0000F931F930091840110918501209186017A
:100DB00030918701602B712B822B932B1F910F9108
:100DC0000C94C2060F931F9300918401109185012A
:100DD0002091860130918701602371238223932320
:100DE0001F910F910C94C2060F931F9300918401E1
:100DF000109185012091860130918701602771272C
:100E0000822793271F910F910C94C2060C94BD0664
:100E10000E94060760938001709381018093820194
:100E2000909383010C94570660E070E0CB010C9422
:100E300008070F931F9341E050E060E070E08A01E3
:100E40009B0104C0000F111F221F331F8A95D2F788
:100E5000C901B8011F910F910C9408070F931F93BC
:100E600041E050E060E070E004C0440F551F661F91
:100E7000771F8A95D2F78091800190918101A0918E
:100E80008201B09183018A019B01082B192B2A2B27
:100E90003B2BC901B8011F910F910C9408070F93C8
:100EA0001F9341E050E060E070E004C0440F551F24
:100EB000661F771F8A95D2F740955095609570957B
:100EC0008091800190918101A0918201B091830174
:100ED0008A019B01082319232A233B23C901B80156
:100EE0001F910F910C9408070F931F9341E050E05E
:100EF00060E070E004C0440F551F661F771F8A959D
:100F0000D2F78091800190918101A0918201B091EE
:100F100083018A019B01082719272A273B27C9013A
:100F2000B8011F910F910C9408070F931F93009124
:100F30008001109181012091820130918301602B09
:100F4000712B822B932B1F910F910C9408070F93F9
:100F50001F930091800110918101209182013091B5
:100F6000830160237123822393231F910F910C949B
:100F700008070F931F930091800110918101209128
:100F800082013091830160277127822793271F9167
:100F90000F910C9408070895990F890FE82FE69593
:100FA000E695E695877051E001C0550F8A95EAF7FE
:100FB00085E0E89FF0011124E558FE4F20E030E085
:100FC00070E04081CB01022E02C0969587950A946D
:100FD000E2F78170819584278523842781932F5F91
:100FE0003F4F2530310569F70895990F890F682F14
:100FF000669566956695982F977085E0689FB00115
:10100000112440E050E080E0FB01E40FF51FE558BB
:10101000FE4F208130E0092E02C0369527950A94B4
:10102000E2F721703327042E01C0220F0A94EAF759
:10103000822B4F5F5F4F4530510531F70895BF92C6
:10104000CF92DF92EF92FF920F931F93CF93DF9394
:101050008C01C0908001D0908101E0908201F090DD
:1010600083018091840190918501A0918601B091C6
:101070008701C82AD92AEA2AFB2ACFE1D0E0D70182
:10108000C6010C2E04C0B695A795979587950A942E
:10109000D2F780FD04C0219790F7B12C07C0BC2E79
:1010A000B8018C2F0E94DC0F0197A9F38B2DDF91E3
:1010B000CF911F910F91FF90EF90DF90CF90BF9055
:1010C0000895CF93DF93EC010E941F08BE010E9498
:1010D000DC0FDF91CF9108951F93CF93DF93EB0146
:1010E00090917A01992321F0CB010E94610813C0ED
:1010F000882349F0CB010E941F08182F682FCE01CA
:101100000E94CC0704C0CB010E94F507182FBE0136
:10111000812F0E94DC0FDF91CF911F910895EF92F4
:10112000FF920F931F93CF93DF938C01892B09F4C8
:101130006CC0F12CEE24E394E8012196F80184912F
:10114000843740F4843008F051C0813081F082301F
:1011500019F15BC0853709F444C0A8F19CE7980FEA
:10116000903708F052C08F770E944F0341C00E5F46
:101170001F4FFE01849190E2980F983050F48770D1
:10118000FE2D01C0FF0F8A95EAF78F2F0E94650C94
:1011900014C00E94AD022DC00E5F1F4FFE0184914E
:1011A00090E2980F983060F48770FE2D01C0FF0F19
:1011B0008A95EAF78F2F0E946B0C0E94940C19C03D
:1011C0000E944F0316C00E5F1F4FFE01C491CC2337
:1011D00081F08FE99FE00197F1F700C00000C15056
:1011E000F6CF0E5F1F4FFE01F49003C00E94AD02C8
:1011F0008E018F2D882309F49FCFEFE9FFE031970F
:10120000F1F700C000008150F5CFDF91CF911F9121
:101210000F91FF90EF9008951F93CF93DF93C091AC
:10122000880116E080918901C81799F0D0E01C9FD1
:10123000F0011D9FF00D1124E657FE4F40815181B2
:1012400062817381848195810E94AC062196C7706A
:10125000E9CFDF91CF911F9108954091BA0150914C
:10126000BB016091BC017091BD018091BE01909164
:10127000BF010C94AC06EF92FF920F931F93CF9394
:10128000DF938091BF0182958F7009F065C08091D6
:10129000BC01882309F460C080918801F090890125
:1012A0001091BA010091BB016091BD017091BE0126
:1012B00091E01F3F09F090E0C0910001D091010141
:1012C000292F96E0E92E8F1509F446C061157105A6
:1012D00021F00F3F21F030E003C031E001C0322F98
:1012E00090E030FD36C0E89EF001E99EF00D11243B
:1012F000DF01A657BE4F11963C911197301329C0BC
:101300003C91311326C012963C911297311121C0A5
:1013100013964D915C911497461B570B4C175D0724
:10132000C0F48091BF018F7080618093BF01E1574D
:10133000FE4F80818F70806180838AEB91E00E94F4
:101340002306DF91CF911F910F91FF90EF900C94A6
:101350000C0901968770B7CFDF91CF911F910F9144
:10136000FF90EF9008959F92AF92BF92CF92DF923D
:10137000EF92FF920F931F93CF93DF93CDB7DEB71A
:1013800061970FB6F894DEBF0FBECDBF8C0185E02C
:10139000F801DE011D9601900D928A95E1F7D801C2
:1013A0001296EC909091BA01E091BB012091BD01A1
:1013B0003091BE012115310531F0EF3F31F481E06C
:1013C0009F3F19F403C081E001C080E0B82FB170E5
:1013D0009B2E80FD47C1D8014C9111965C911197CD
:1013E0001396AD90BC9014978AEBC82E81E0D82E4E
:1013F000F090BC01B501621B730B2091000130918C
:101400000101FF2009F4D9C08091BF016217730761
:1014100008F095C0282F207F09F052C05E1313C03A
:10142000491311C0FE2CE1100EC08F7080618093B3
:10143000BF010E942D09C6010E9423068091BF01B1
:10144000F80185834DC1AB2831F05F3F31F481E075
:101450004F3F19F403C081E001C080E080FD03C06C
:1014600081E08E2502C080E090E0F82FF170FF2E21
:1014700080FF1CC0809188012091890136E082178D
:1014800009F40BC190E0389FF001399FF00D112451
:10149000E657FE4F6181561306C06081461303C0B4
:1014A0006281E61203C001968770E9CFFE2CEE2020
:1014B00009F416C18091BF0181608093BF0154C0BF
:1014C0005E1306C0491304C0E11002C0F80199C0C0
:1014D000C8010E949506882361F1EE2051F1209108
:1014E000BF01822F82958F7090E0029774F08091F7
:1014F000BA019091BB0198878F831986BB86AA8613
:101500002C87CE0107960E94230686E0F801AAEBFD
:10151000B1E001900D928A95E1F70E943B090E948B
:101520002D090AC05E1711F1C8010E9495068111AC
:101530002CC0C8010E942306FF24F394D1C0282F99
:10154000207F81F77A2DB98AA88A6E2D89890E9419
:101550009D068AEB91E00E94230686E0D6011D924B
:101560008A95E9F70E942D09F12CBAC04913DCCF06
:10157000E110DACFF8018583C8010E94230686E0D6
:10158000D6011D928A95E9F7ABC0EE2091F2209129
:10159000BF01822F82958F7090E002970CF4B5CF37
:1015A0008091BA019091BB019A8389831B82BD828D
:1015B000AC822E83CE010196A6CF6217730708F086
:1015C00044C0FE2CEE2009F4B4CF5E1330C04913A2
:1015D0002EC02091BF0120FD21C0822F82958F70E7
:1015E000482F50E041155105C9F0F80125834F30CF
:1015F000510541F08F5F982F9295907F822F8F70C9
:10160000892B8583C8010E94230686E0F801AAEB96
:10161000B1E001900D928A95E1F73CC086E0F801B7
:10162000AAEBB1E001900D928A95E1F759C0C8018B
:101630000E949506811169CF8091BF0181608093DE
:10164000BF01C8010E9423064BC07A2DB98AA88A1F
:101650006E2D89890E949D0686E0D6011D928A958D
:10166000E9F718C0EE2009F464CFC8010E9495067E
:10167000F82E882309F45DCF86E0F801AAEBB1E0EB
:1016800001900D928A95E1F78AEB91E00E94A70202
:101690000E943B090E942D0923C04D875E878D85DE
:1016A0009E850E946108292F22952F70223028F4F0
:1016B0009F7039F0811105C00BC0243028F49F7051
:1016C00049F4805E883020F0C8010E9423069F2CD8
:1016D000F92C06C0D80115969C91907F91F7F8CF10
:1016E0008F2D61960FB6F894DEBF0FBECDBFDF9190
:1016F000CF911F910F91FF90EF90DF90CF90BF900F
:10170000AF909F9008951F93CF93DF93CDB7DEB72F
:101710002C970FB6F894DEBF0FBECDBF4F8358870E
:1017200069877A878B879C87CE0107960E94B309C9
:101730008823D1F09F8188852A853B85232B31F032
:101740008F3F31F481E09F3F19F403C081E001C075
:1017500080E080FD47C04F81588569857A858B85FB
:101760009C850E94AC063EC086E0FE013796DE01F5
:10177000119601900D928A95E1F7FF81E8856A85BF
:101780007B856115710531F0EF3F31F481E0FF3F5A
:1017900019F403C081E001C080E080FD23C02091E6
:1017A000890130E0C901019687709927409188012D
:1017B00050E084179507F1F1F983EA837D836C8308
:1017C00096E0929FD001939FB00D1124A657BE4F73
:1017D000FE01319601900D929A95E1F7809389016F
:1017E0000E940C0916E08091880190918901891767
:1017F00071F1189FC001112486579E4F0E94B309B2
:10180000882329F1E09188011E9FF0011124E657F9
:10181000FE4F4081518162817381848195810E9454
:10182000AC068091880190E001968770992780939B
:101830008801D9CF0E946D0610928901109288010B
:10184000EAEBF1E086E0DF011D928A95E9F72C963C
:101850000FB6F894DEBF0FBECDBFDF91CF911F91C1
:1018600008958091C001859585958595089580910D
:10187000C001877008959091C001977081E009F4CC
:1018800080E008958091E40108959091E401892B0E
:101890008093E401089580959091E40189238093D9
:1018A000E40108951092E40108959091E301892BD9
:1018B0008093E301089580959091E30189238093BB
:1018C000E30108951092E30108959091E201892BBC
:1018D0008093E201089580959091E201892380939D
:1018E000E20108951092E20108958091C1010895E6
:1018F00008950C94780C0C94790C9091280292FD28
:1019000008C09091C101981721F08093C1010C94F7
:101910007B0C08958091C101882329F01092C101A8
:1019200080E00C947B0C0895E0910201F09103019A
:101930008091E4018083E0910201F09103019081A4
:101940008091E301892B8083E0910201F0910301F2
:1019500090818091E201892B80838091C10188234D
:1019600081F0E0910201F09103019081892B808345
:1019700080910201909103010E949D1481110E94A7
:101980008A0C80910201909103010C9457140C94DD
:10199000780C9091280292FD10C098E0899F9001E8
:1019A0001124262B2093C0010E942E078091C00194
:1019B0008595859585950C94C70C0C942E071092EF
:1019C000C00180E00C94C70C2091C0018095822357
:1019D0008093C001982F977099F430E0482F082E1B
:1019E000000C550B2417350759F09091280292FDF1
:1019F00007C08595859585950E944F070C94DF0C4F
:101A000008959091280292FB222720F9281769F067
:101A100080FB92F9909328028091270290912802EE
:101A20000E94490D82E00C94E40C089580912802F4
:101A300082FB882780F991E089270C94010D81E0D1
:101A40000C94010D80E00C94010D80E090E00E9468
:101A50002A1D21E0893E9E4F09F020E0822F089543
:101A600082E090E00C94221D83E090E00C94221D13
:101A7000CF9384E090E00E94221DC82F82E290E084
:101A80000E94221D2C2F30E0A901582BCA01CF91B2
:101A90000895CF93C92F682F84E090E00E94301DF5
:101AA0006C2F82E290E0CF910C94301DAB01BC0111
:101AB0008FE090E00C94421DAB01BC0183E190E00B
:101AC0000C94421D60E070E0CB010C945C0D60E072
:101AD00070E0CB010E94560D0C94620D69EE7EEF12
:101AE00080E090E00E944E1D60E082E090E00E9465
:101AF000301D60E083E090E00E94301D1092840170
:101B000010928501109286011092870160E084E0B6
:101B100090E00E94301D60E082E290E00E94301D63
:101B200060E085E090E00E94301D60E086E090E09B
:101B30000E94301D6FEF87E090E00E94301D40E072
:101B400050E0BA0188E090E00E94421D60E08DE024
:101B500090E00E94301D40E050E0BA0188E190E042
:101B60000E94421D60E087E190E00E94301D40E04D
:101B700050E0BA018CE190E00E94421D60E070E00C
:101B800080E290E00E944E1D40E050E0BA0188E102
:101B900090E00E94421D0C94670D0C946E0D682F0E
:101BA0008EE090E00C94301D0E94FA156093EE01D7
:101BB0007093EF018093F0019093F1016093EA013B
:101BC0007093EB018093EC019093ED01089585B73C
:101BD000806885BF85B7806885BF089581E00895D6
:101BE0000C94EE0D08950C94F20D0C94F20D0C94DF
:101BF000F50D0C94F20D0C94F90D0C94F20D0E945D
:101C0000E70D88EB90E10E9441140E94FD0D0C94B9
:101C1000FB0D0E94F30D0C94F20D0E94E5150E943D
:101C200072110C94F70DBF92CF92DF92EF92FF9258
:101C30000F931F93CF93DF93CDB7DEB72A970FB6DD
:101C4000F894DEBF0FBECDBF0E94871181110E94A4
:101C5000D40D96EEC92E91E0D92E00E010E0B02E02
:101C6000802F0E94DF10E82EF601F1906F01F82618
:101C700079F18091F20181FD0E94E510F0FC07C02E
:101C8000F1FE26C0DD24D39482E0F82E03C0D12CCF
:101C9000FF24F3940E94F00D882399F0DE82BF8226
:101CA000EF2081E009F480E088870E94EE158160D2
:101CB000782F9A8789874E815F8168858A850E94FF
:101CC0005D02F801EA51FE4F8081F826F08216C0CD
:101CD0000F5F1F4F0430110509F0C1CF8FEF8983CB
:101CE0008A831B820E94EE158160782F9D838C83EE
:101CF00049815A816B818D810E945D020E944B1443
:101D00009091E5018917A9F00E944B148093E50199
:101D10002A960FB6F894DEBF0FBECDBFDF91CF91EC
:101D20001F910F91FF90EF90DF90CF90BF900C9498
:101D300054022A960FB6F894DEBF0FBECDBFDF91D6
:101D4000CF911F910F91FF90EF90DF90CF90BF90B8
:101D5000089580E090E008950895E72FF0E094E082
:101D6000899FE00DF11D1124EE0FFF1FE60FF11DFD
:101D7000EE0FFF1FE450FF4F859194910895880F57
:101D8000991FFC01E45CFE4F859194910895CF93D7
:101D9000DF930E94E10FEC01811520E5920708F026
:101DA00041C0811540E4940708F0CBC0803E910506
:101DB00020F5803C910508F0B8C0883A910570F490
:101DC000853A910508F0A8C08130910509F4A1C0B9
:101DD00008F4EBC0049708F0EBC0E7C08F3B910517
:101DE00008F0E3C0885AC82FD0E0CC0FDD1FCE5BCF
:101DF000DE4F888199819464DCC0811550E295079B
:101E000050F4C11581E0D80708F0D2C0C83ED10512
:101E100008F4CEC0CAC0811520E3920708F08AC03A
:101E20009F7085C0811545E5940708F046C081156F
:101E300054E5950708F09DC0C11582E5D80718F54F
:101E4000C11521E5D20708F07FC0CE01F4E09695D8
:101E50008795FA95E1F7282F23703C2F337081E0A6
:101E600090E002C0880F991F3A95E2F79C68922B88
:101E70002C2F2F702695269540E2249F9001112447
:101E8000822B932B96C09E01237033279C2F96950F
:101E90009695C115D34508F05CC041E050E002C002
:101EA000440F551F2A95E2F780E2989F9001112474
:101EB000CA01822B932B9C687CC0811559E595073C
:101EC00098F4C11588E5D80708F058C0C11526E573
:101ED000D20708F06AC08C2F0E9475108F7190E0B5
:101EE000982F8827906265C081154AE5940708F409
:101EF0004AC090568115904208F057C08D2F8F71BF
:101F00000E9475109E01332730628F71A901582BF2
:101F10004AC081E090E04DC0855AC82FD0E0C0593A
:101F2000DE4F888190E0906444C0805C91090E94FB
:101F3000BF0E3FC09927D3FF02C0986C3AC0906C87
:101F400038C09F70906A35C09C2F8827816F906A37
:101F500030C041E050E002C0440F551F2A95E2F71F
:101F600080E2989F90011124CA01822B932B9A68DA
:101F700020C0982F8827846F906A1BC09C2F8827C9
:101F8000806F906A16C08F700E9475109E0194E059
:101F9000369527959A95E1F72F7030E0322F22275A
:101FA0003069A901482BCA0104C080E090E001C05B
:101FB000CE01DF91CF9108950E94AD0E0E94C70E11
:101FC00008958238910569F1B0F48133910509F4DF
:101FD0006DC048F48932910509F463C08A329105D5
:101FE00009F469C008958533910509F455C0893312
:101FF0009105B9F00895833E910569F138F4803E6A
:102000009105B1F0823E910509F10895863E910552
:10201000A9F1873E9105B9F1843E910509F064C0AC
:1020200023C02091270220FD4FC021FD4DC00895FF
:102030008091270280FD44C08091280280FF44C027
:102040008091270284FD42C083EE4DC0809127021B
:1020500082FF38C0F5CF8091270282FD33C0809186
:10206000280280FD31C0ECCF8091280281FF32C070
:102070008091270284FD2AC087EE35C08091270217
:1020800083FF26C0F5CF8091270283FD21C0809178
:10209000280281FD1FC0ECCF8091270285FD1CC066
:1020A0001DC08091270285FD19C016C080912702AE
:1020B00086FD16C017C08091270286FD13C010C090
:1020C00089E311C082EE0FC080EE0DC080E00BC02E
:1020D00086EE09C084EE07C089E205C085E303C02F
:1020E0008AE201C081E390E008959091270292FF77
:1020F0000DC0282F2871283019F4877F846006C00E
:10210000282F2471243011F48B7F886093FF0DC039
:10211000282F2871283119F4877E846106C0282F62
:102120002471243111F48B7E88612091280220FFD4
:102130000DC0382F3871383019F4877F816006C0A0
:10214000382F3171313011F48E7F886021FF0DC03E
:10215000282F2871283119F4877E816106C0282F25
:102160002171213111F48E7E886194FD877E08955E
:1021700080E0089508950E94250D811102C00E94FB
:10218000CD0D0E94300D8093F2010E94380D909386
:102190002802809327020E94BA100E94340D682FF3
:1021A00070E080E090E00E94CE0660918001709126
:1021B000810180918201909183010C940607E82FA0
:1021C000F0E0E35DFD4F80810895089580EA8A95EF
:1021D000F1F7089500C008950C94E61008950C944A
:1021E000EE100C94EF100C94EE100C94F310F89485
:1021F000E82FE295EF70F0E031A1282F2F7081E0F9
:1022000090E001C0880F2A95EAF7982F90959323C4
:1022100091A392A1892B82A378940895CF93DF9301
:10222000C3E7D1E089918F3F11F00E94F71081E060
:10223000C737D807B9F782E90E94F71087EFDF9117
:10224000CF910C94F710CF92DF92EF92FF920F9301
:102250001F93CF93DF938C01C62FD0E0CE018D5812
:102260009E4F7C01FC0190819F3F99F1C62EF8940E
:10227000E92FE295EF70F0E081A19F7021E030E05E
:1022800001C0220F9A95EAF7822B81A382A12095A3
:10229000282322A378940E94EA10D9B07F9902C023
:1022A00082E001C080E0D2FADD24D0F891E0D926A6
:1022B000D82AF70180818F3F11F00E94F71061E06A
:1022C000D11001C060E08C2D0E94EC10C00FD11F16
:1022D000D882DF91CF911F910F91FF90EF90DF9007
:1022E000CF9008950E940E1184E0EDE2F2E0DF014C
:1022F000982F1D929A95E9F7E9E2F2E0DF011D922D
:102300008A95E9F784E00E94C9110C94D5011F93C6
:10231000CF93DF9300D000D0CDB7DEB719821A82F9
:102320001B821C8210E0612FCE0101960E942311B6
:102330001F5F1430C1F744E050E0BE016F5F7F4F74
:1023400089E292E00E94151D11E0009709F410E067
:10235000892B61F089819A81AB81BC8180932902AC
:1023600090932A02A0932B02B0932C02212F44E0D9
:102370006DE272E089E292E00E94CA110E94DB01E4
:10238000812F0F900F900F900F90DF91CF911F91A1
:1023900008950895FF920F931F93CF93DF938C01BD
:1023A000F62ED72FC42F222349F081E08093F50128
:1023B0000E94EE159093F4018093F3018091F50152
:1023C0008823C1F08091F3019091F4010E940616D8
:1023D000059780F0EF2DFD2FD8014C2F50E0CD0157
:1023E000801B910B841795071CF48D918193F7CF77
:1023F0001092F501DF91CF911F910F91FF900895F9
:102400000E94D5170E940D0E0C94E1170E94E5174B
:102410000E94130E0C94FF170E9475150E94BC17A2
:102420000E94FF0D0E9400120E9406120E94090ED7
:10243000FBCFCF93DF93EC01FB018281882309F46A
:1024400026C1C430FDE5DF0760F4CB3F9CE5D9072A
:1024500068F49E0122503C452431310508F018C132
:1024600005C0C236EDE5DE0709F012C10E94380D45
:102470009093280280932702C031FCE5DF0709F41E
:10248000CAC008F041C0C8309CE5D90709F4A4C00F
:10249000F0F4C430FCE5DF0709F48CC068F4C23006
:1024A0009CE5D90709F482C0C330DC4509F0E5C0DA
:1024B000809127028260DFC0C630FCE5DF0709F4A7
:1024C00083C008F085C0809127028860D4C0CC30DA
:1024D0009CE5D90709F490C068F4CA30FCE5DF0731
:1024E00009F47EC008F084C00E946D068091270226
:1024F0008068C1C0CE309CE5D90709F481C008F0DE
:1025000086C08091270294C0CD3FFCE5DF0709F427
:102510007BC038F5C4319CE5D90709F49AC058F45A
:10252000C231FCE5DF0709F47AC008F07EC0809173
:1025300027028F7BA0C0CB3F9CE5D907F1F108F0C3
:102540003FC0C531DC4509F098C08091270282FB6D
:10255000222720F991E0922790FB82F990FB83F9E2
:102560008AC0C1308DE5D80709F467C050F4809166
:102570002802CF3FECE5DE07C1F108F05BC08D7F9C
:1025800065C0C3308DE5D80709F471C008F46DC08B
:10259000C236DD4509F071C08091270284FB2227F5
:1025A00020F991E0922790FB84F965C08091270281
:1025B000816061C08091270216C08091280216C0F8
:1025C00080912802826042C080912702806153C0BE
:1025D0008091270280624FC08091270280644BC0A7
:1025E000809127028860846046C0826081602EC02E
:1025F000809127028E7F3FC0809127028D7F3BC054
:1026000080912702877F37C08091280214C0809173
:1026100027028F7E30C0809127028F7D2CC00E94C0
:102620006D06809127028F7726C080912702877FD1
:102630008B7F21C08D7F8E7F09C080912802982FCB
:10264000909591708E7F892B90FB81F98093280261
:1026500014C00E946D068091270287FB222720F973
:1026600091E0922790FB87F906C081E001C080E0ED
:102670000E94CF0D02C08093270280912702909183
:1026800028020E94490D0E946D0680E001C081E091
:10269000DF91CF910895CF93DF9386319C4541F52B
:1026A000EB010E94420C982F8A8120910201309107
:1026B0000301882379F09A7A81E009F480E080931D
:1026C000F601911102C069E201C065E3C9010E94EF
:1026D00033150AC08091F601811102C069E201C080
:1026E00065E3C9010E943E150E94940C80E001C080
:1026F00081E0DF91CF9108950F931F93CF93DF93E4
:10270000C42FD22FFC0182818823C9F04093F901A4
:102710000E94EE159093F8018093F70180E28C0FF0
:10272000883008F057C0C77081E001C0880FCA9593
:10273000EAF7DF91CF911F910F910C94CE03809116
:10274000F901481330C08091F7019091F8010E947F
:102750000616883C910538F510E21D0FCD17B9F02B
:1027600080E28C0F883040F4C77081E001C0880F90
:10277000CA95EAF70E94D503183028F581E09D2F0D
:10278000977001C0880F9A95EAF70E94CE03802FB8
:102790000E94C5031830F0F4D77081E001C0880FA3
:1027A000DA95EAF70AC080E28C0F883098F4C77097
:1027B00081E001C0880FCA95EAF7DF91CF911F91A0
:1027C0000F910C94D503802FDF91CF911F910F9122
:1027D0000C94C503DF91CF911F910F9108950F9332
:1027E0009C01CB01243F4CE5340731F188F4293DAD
:1027F000FCE53F07D9F02A3D4CE5340779F1283D47
:102800003C45A9F506E221EE41EE68ED7CE52BC0E2
:10281000263FFCE53F07E1F0A8F0273F3C4539F5AE
:1028200007E225EE46EE67EF7CE51DC007E225EEE8
:1028300045EE69ED7CE517C006E221EE40EE64EF5F
:102840007CE511C007E225EE44EE65EF7CE50BC0A8
:1028500006E221EE42EE66EF7CE505C008E221E0EB
:1028600045EE6AED7CE50E947C1380E008C0FC0127
:102870008281882319F01092F90101C081E00F9143
:102880000895909379018093780108959093FF01C2
:102890008093FE010895E091FE01F091FF013097D1
:1028A00021F00190F081E02D099480E00895E091FD
:1028B000FE01F091FF01309799F020911001222341
:1028C00059F02091270227FF07C0DC012C911196B7
:1028D0002C93119726E02C930280F381E02D09942C
:1028E00008952091FC013091FD012817390771F0FE
:1028F0009093FD018093FC01E091FE01F091FF01B6
:10290000309721F00680F781E02D099408952091F9
:10291000FA013091FB012817390771F09093FB0100
:102920008093FA01E091FE01F091FF01309721F0D0
:102930000084F185E02D09940895FC013296809180
:102940001001882331F08091270287FF02C09EE1A9
:1029500001C096E080E0915028F021912223D9F324
:102960008F5FF9CF0895662351F120911001222342
:10297000E9F02091270227FF19C0462F469546957A
:1029800046954E31E0F4677021E030E002C0220F3E
:10299000331F6A95E2F7FC01E40FF11D828190E09C
:1029A0002823392381E0232B69F409C0FC013296E6
:1029B00008962191621729F0E817F907D1F780E00E
:1029C000089581E008959C01FC0132969FEF80E01C
:1029D0004191461789F09F3F19F4411101C0982F8A
:1029E0008F5F8630A9F79F3F39F0F901E90FF11D9C
:1029F00097FDFA956283089508959C012A5F3F4FE1
:102A0000FC014281461301C012820196821793078E
:102A1000B9F70895262F2695269526952E3168F428
:102A2000FC01E20FF11D677021E030E001C0220FD0
:102A30006A95EAF78281282B22830895262F26950E
:102A4000269526952E3170F4FC01E20FF11D67707A
:102A500021E030E001C0220F6A95EAF720958281DB
:102A600028232283089520911001222329F0209108
:102A7000270227FD0C940A150C94E31420911001F1
:102A8000222329F02091270227FD0C941E150C9477
:102A9000FD1420911001FC013296222331F0809127
:102AA000270287FF02C08EE101C086E0DF011D9290
:102AB0008A95E9F7089508950C945B1583E0809357
:102AC00000020C945C15811102C081E001C082E01B
:102AD000809300020C945C150C94631581E0809344
:102AE00000020C945C150C946E15089580913902C7
:102AF000843031F10E94DD011092010220E488E16E
:102B000090E00FB6F894A895809360000FBE2093D4
:102B1000600083B7817F846083BF83B7816083BF98
:102B20007894889583B78E7F83BF0FB6F894A89565
:102B300080916000886180936000109260000FBEF9
:102B4000089508950C94A115CF930E94A2150E9498
:102B500087110E94A115C0E08C2F0E94DF10811107
:102B600004C0CF5FC430C1F701C081E0CF910895A8
:102B70000E946D060C9446021F920F920FB60F92A0
:102B800011248F939F93AF93BF9380910102811182
:102B900013C08091310290913202A0913302B09122
:102BA00034024196A11DB11D8093310290933202EF
:102BB000A0933302B0933402BF91AF919F918F9154
:102BC0000F900FBE0F901F90189582E084BD93E088
:102BD00095BD9AEF97BD80936E0008952FB7F89436
:102BE0008091310290913202A0913302B09134026F
:102BF0002FBF08952FB7F89460913102709132027F
:102C000080913302909134022FBF08959C014FB7F9
:102C1000F8948091310290913202A0913302B091E8
:102C200034024FBF821B930B089578941F920F922A
:102C30000FB60F9211248F939F93AF93BF93809100
:102C4000310290913202A0913302B0913402019688
:102C5000A11DB11D8093310290933202A0933302E3
:102C6000B0933402BF91AF919F918F910F900FBE9F
:102C70000F901F90189587E797E79093010880932E
:102C800000089AE088E10FB6F894A8958093600058
:102C90000FBE90936000FFCF8091250208950895A4
:102CA000CF93DF9320911001222339F02091270246
:102CB00027FF03C060E222E002C068E021E0209329
:102CC000E9002FEF3091E800215035FD06C035EDC9
:102CD0003A95F1F700002111F5CF2091E80025FF8A
:102CE0001DC0EC0180911001811105C040E050E051
:102CF00068E070E003C070E040E050E0CE010E9468
:102D000071188091E8008E778093E80080E2FE01E0
:102D1000A5E0B2E001900D928A95E1F7DF91CF91A5
:102D200008958093020270930402609303028091DD
:102D30003902843001F582E08093E9008FEF9091B1
:102D4000E800815095FD06C095ED9A95F1F70000D9
:102D50008111F5CF8091E80085FF0DC040E050E083
:102D600063E070E082E092E00E9471188091E800D8
:102D70008E778093E8000895BC0184E00C9491164E
:102D8000BC0183E00C949116089580913802811162
:102D900009C00E94021A0E945F1A8091E2008460BA
:102DA0008093E20008951092380208950C947315F0
:102DB0006091350281E0611101C080E00C945E15E4
:102DC0009091390281E0943009F080E06091350201
:102DD0000C94631542E061EC81E00E947B1942E2B1
:102DE00061EC82E00E947B199091390281E094307D
:102DF00009F080E0609135020C946C1580913B02E3
:102E0000833009F461C030F4813071F0823009F40C
:102E10009AC008958A3009F486C08B3009F46CC0DA
:102E2000893009F0A8C020C080913A02813A09F0A7
:102E3000A2C08091E800877F8093E80080913E02E5
:102E400090913F02892B21F460E285E092E003C07B
:102E500060E080E090E070E00E94BC188091E800A3
:102E60008B778093E800089580913A02813209F0CF
:102E700082C080913E0290913F02029708F07BC091
:102E80008091E800877F8093E8008091E80082FDD0
:102E900005C0809139028111F8CF6DC02091F300F7
:102EA0008091F20090E0922B029731F48091F10032
:102EB000813011F0863021F48091F1008093250259
:102EC0008091E8008B7753C080913A02813A09F0F3
:102ED00052C080913E0290913F02892B09F04BC075
:102EE0008091E800877F8093E8008091E80080FF70
:102EF000FCCF8091100136C080913A028132D9F521
:102F000080913E0290913F02892BA9F58091E800C3
:102F1000877F8093E8000E94B01980913C028093E3
:102F200010010C946D0680913A02813221F5809156
:102F3000E800877F8093E8000E94B01980913D02ED
:102F400080932602089580913A02813AA1F48091FB
:102F5000E800877F8093E8008091E80080FFFCCF45
:102F6000809126028093F1008091E8008E77809313
:102F7000E8000C94B019089584B7877F84BF0FB61A
:102F8000F894A89580916000886180936000109209
:102F900060000FBE90E080E80FB6F8948093610067
:102FA000909361000FBE0C946E150E94021A0E944D
:102FB0005F1AE2EEF0E080818460808378940C9464
:102FC000F41C84E091E00C94461480913902853021
:102FD000A9F480913902853079F40E9476158091A8
:102FE00037028823B1F30E94A415882391F30E942D
:102FF0005B180E946D06EDCF0C94B81508950895E6
:103000000C940218292F332723303105C9F060F4BE
:103010002130310581F02230310509F044C08BE3C5
:1030200090E02AE731E043C021323105E1F022325D
:10303000310549F138C082E190E025EB31E037C03D
:1030400099278130910549F028F0029761F5ECE36A
:10305000F1E005C0E6E7F1E002C0E4E5F1E08491CB
:1030600090E09F0124C06115710541F06130710548
:10307000D1F489E090E025EA31E019C089E090E0E0
:103080002CE831E014C06115710541F06130710523
:1030900051F48DE690E027EC31E009C080E490E047
:1030A00024E332E004C080E090E020E030E0FA0168
:1030B00031832083089580E189BD82E189BD09B40F
:1030C00000FEFDCF8091D8008F7D8093D800809145
:1030D000E00082608093E0008091E00081FDFCCF01
:1030E0000895CF92DF92EF92FF920F931F93CF93A9
:1030F000DF93EC018B017A010E94CF19811133C05B
:10310000E114F10439F0F70180819181081B190B5A
:10311000C80FD91FC12CD12C0115110519F18091AF
:10312000E80085FD16C08091E8008E778093E80066
:10313000E114F10449F0F70180819181C80ED91E94
:10314000D182C08285E00FC00E94CF19882321F36D
:103150000AC089918093F10001501109FFEFCF1A45
:10316000DF0ADACF80E0DF91CF911F910F91FF90BE
:10317000EF90DF90CF90089520914002309141026E
:103180002617370748F06115710539F42091E800DA
:103190002E772093E80001C0B901FC0120E0611501
:1031A000710579F1809139028823F1F18530F1F1CF
:1031B0008091E80083FD3CC08091E80082FD2EC034
:1031C0008091E80080FFEBCF2091F3008091F20026
:1031D00090E0922B6115710551F08830910538F41B
:1031E00021912093F100615071090196F3CF21E004
:1031F000089709F020E08091E8008E778093E8003E
:10320000CECF2111CFCF0AC080913902882361F03F
:10321000853061F08091E80083FD0AC08091E8006C
:1032200082FFF2CF80E0089582E0089583E0089560
:1032300081E008952091400230914102261737071E
:1032400048F06115710539F42091E8002E7720933C
:10325000E80001C0B901FC0120E06115710591F1A0
:1032600080913902882309F440C0853009F43FC0B9
:103270008091E80083FD3DC08091E80082FD2FC071
:103280008091E80080FFE9CF2091F3008091F20067
:1032900090E0922B6115710559F08830910540F44A
:1032A00024912093F1003196615071090196F2CF7B
:1032B00021E0089709F020E08091E8008E77809364
:1032C000E800CBCF2111CCCF0AC0809139028823EE
:1032D00061F0853061F08091E80083FD0AC0809143
:1032E000E80082FFF2CF80E0089582E0089583E055
:1032F000089581E00895982F973068F59093E9003C
:10330000981739F07091EC002091ED005091F00089
:1033100003C0242F762F50E021FD02C09F5FECCF29
:103320003091EB003E7F3093EB003091ED003D7F1C
:103330003093ED003091EB0031603093EB007093EF
:10334000EC002093ED005093F0002091EE0027FD5B
:10335000E5CF80E008958F708093E90081E00895C3
:1033600080913A0287FF11C08091E80082FD05C07C
:10337000809139028111F8CF11C08091E8008B77DC
:103380000BC080913902882349F08091E80080FFCA
:10339000F8CF8091E8008E778093E800089520911F
:1033A000E4003091E50095E64091EC00842F8170B7
:1033B00040FF23C08091E80080FD1DC0809139024C
:1033C000882399F0853099F08091EB0085FD11C03C
:1033D0004091E4005091E5002417350729F39150FE
:1033E00011F09A01E1CF84E0089582E0089583E02E
:1033F000089581E0089580E008954091E80042FF3B
:10340000DDCF08950E94701A0E94781AE0EEF0E075
:10341000808181608083E8EDF0E080818F77808318
:1034200019BCA7EDB0E08C918E7F8C9380818F7E4C
:1034300080831092380208950F931F93CF93DF93E8
:103440000E94701A0E94781AC8EDD0E088818F77A8
:10345000888388818068888388818F7D888319BC70
:1034600010923902109235021092370210923602F1
:1034700000EE10E0F80180818B7F8083888181607D
:10348000888342E060E080E00E947B19E1EEF0E09A
:1034900080818E7F8083E2EEF0E080818160808396
:1034A000808188608083F80180818E7F808388811D
:1034B00080618883DF91CF911F910F910895E8ED8E
:1034C000F0E080818F7E8083E7EDF0E08081816095
:1034D000808384E082BF81E0809338020C941C1AC0
:1034E000E8EDF0E080818E7F80831092E200089505
:1034F0001092DA001092E10008951F920F920FB619
:103500000F9211242F933F934F935F936F937F9369
:103510008F939F93AF93BF93EF93FF938091E100BD
:1035200082FF0BC08091E20082FF07C08091E10022
:103530008B7F8093E1000E94F31C8091DA0080FF72
:103540001FC08091D80080FF1BC08091DA008E7F61
:103550008093DA008091D90080FF0DC080E189BDA1
:1035600082E189BD09B400FEFDCF81E0809339027C
:103570000E94C51605C019BC109239020E94D316CC
:103580008091E10080FF19C08091E20080FF15C0AA
:103590008091E2008E7F8093E2008091E200806162
:1035A0008093E2008091D80080628093D80019BC9B
:1035B00085E0809339020E94D8168091E10084FF53
:1035C00030C08091E20084FF2CC080E189BD82E19F
:1035D00089BD09B400FEFDCF8091D8008F7D809316
:1035E000D8008091E1008F7E8093E1008091E2001D
:1035F0008F7E8093E2008091E20081608093E20000
:1036000080913502882311F084E007C08091E300A7
:1036100087FD02C081E001C083E0809339020E94EF
:10362000E0168091E10083FF29C08091E20083FFD2
:1036300025C08091E100877F8093E10082E0809344
:103640003902109235028091E1008E7F8093E10073
:103650008091E2008E7F8093E2008091E2008061A1
:103660008093E20042E060E080E00E947B1980915C
:10367000F00088608093F0000E94D616FF91EF91D1
:10368000BF91AF919F918F917F916F915F914F917A
:103690003F912F910F900FBE0F901F9018951F9282
:1036A0000F920FB60F9211242F933F934F935F9376
:1036B0006F937F938F939F93AF93BF93CF93DF933A
:1036C000EF93FF93C091E900CF708091EC00D82F69
:1036D000D17080FDD0E81092E9008091F000877FE2
:1036E0008093F00078940E94931B1092E9008091DF
:1036F000F00088608093F000CD2BCF70C093E9007C
:10370000FF91EF91DF91CF91BF91AF919F918F91F9
:103710007F916F915F914F913F912F910F900FBECD
:103720000F901F9018951F93CF93DF93CDB7DEB7FF
:10373000AA970FB6F894DEBF0FBECDBFEAE3F2E062
:103740008091F100819322E0E234F207C9F70E94F0
:10375000FE168091E80083FF2EC180913A0290917D
:103760003B02492F50E04A30510508F024C1FA01CC
:10377000EC58FF4F0C940F1D803821F0823809F06F
:103780001AC108C08091360290913702992389F0BE
:1037900082600FC080913E028F70873008F00BC1AD
:1037A0008093E9008091EB0085FB882780F91092D7
:1037B000E9009091E800977F9093E8008093F100F2
:1037C0001092F100D1C0282F2D7F09F0F4C088237A
:1037D00019F0823061F0EFC080913C02813009F035
:1037E000EAC0933009F080E0809337022EC08091C8
:1037F0003C0281112AC080913E028F702FEF280F6A
:10380000263008F0D8C08093E9002091EB0020FF1B
:103810001CC0933021F48091EB00806214C0909121
:10382000EB0090619093EB0021E030E0A90102C031
:10383000440F551F8A95E2F74093EA001092EA0080
:103840008091EB0088608093EB001092E9008091FA
:10385000E800877F8093E8000E94B019ACC0811116
:10386000AAC010913C021F778091E3008078812BE1
:103870008093E3008091E800877F8093E8000E94B6
:10388000B0198091E80080FFFCCF8091E300806850
:103890008093E300111102C082E001C083E08093B5
:1038A000390289C08058823008F085C080913C027E
:1038B00090913D028C3D53E0950779F583E08A8332
:1038C0008AE289834FB7F894DE01139620E03EE048
:1038D00051E2E32FF0E050935700E49120FF03C042
:1038E000E295EF703F5FEF708E2F90E0EA3010F0BE
:1038F000C79601C0C0968D939D932F5F243149F7E1
:103900004FBF8091E800877F8093E8006AE270E013
:10391000CE0101960E94BC1816C060913E027091C3
:103920003F02AE014F5F5F4F0E940018BC01892B20
:1039300009F441C09091E800977F9093E800898155
:103940009A810E941A198091E8008B778093E80091
:1039500032C0803881F58091E800877F8093E8004D
:10396000809135028093F1008091E8008E7772CFCC
:10397000811121C080913C0290913D0299270297CC
:10398000D4F48091E800877F8093E80080913C0226
:10399000809335020E94B01980913502811106C0D2
:1039A0008091E30087FD02C081E001C084E0809344
:1039B00039020E94EA168091E80083FF0AC08091D4
:1039C000E800877F8093E8008091EB00806280931D
:1039D000EB00AA960FB6F894DEBF0FBECDBFDF9105
:1039E000CF911F9108950895CF9380913902882334
:1039F000A1F0C091E900CF709091EC00892F817007
:103A000090FD80E8C82B1092E9008091E80083FDCA
:103A10000E94931BCF70C093E900CF910895EE0FE1
:103A2000FF1F0590F491E02D0994FB01DC0104C017
:103A30008D910190801921F441505040C8F7881BA6
:103A4000990B0895F999FECF92BD81BDF89A9927F7
:103A500080B50895A8E1B0E042E050E00C94561D16
:103A6000262FF999FECF92BD81BDF89A019700B437
:103A7000021639F01FBA20BD0FB6F894FA9AF99AD7
:103A80000FBE08950396272F0E94311D0E94301DFE
:103A9000252F0E94311D242F0C94311D0196272FB4
:103AA0000E94311D0C94301DDC01CB01FC01F99901
:103AB000FECF06C0F2BDE1BDF89A319600B40D927A
:0C3AC00041505040B8F70895F894FFCF33
:103ACC00C800C2014C165016C416C016BC164F16B0
:103ADC0001E200E900EA00B500B600B700CD0083B2
:103AEC0001CC008A019201940121022302240225B7
:103AFC0002260227022A02B300B4006F0070008174
:103B0C008283E200E900EA00B500B600B700CD0000
:103B1C008301CC008A019201940121022302240228
:103B2C002502260227022A02B300B4006F0070009F
:083B3C0081828366313397009A
:00000001FF
